:020000040800F2
:100000002029002099A3000845820008B582000835
:10001000B7820008B9820008BB8200080000000017
:10002000000000000000000000000000BD82000889
:10003000BF82000800000000C1820008C3820008DF
:1000400009A500080DA5000811A5000815A50008C0
:1000500019A50008718200081DA5000821A5000847
:100060007D84000825A5000829A50008498300080B
:100070002DA5000831A5000835A5000839A5000800
:100080003DA5000841A5000845A5000849A50008B0
:100090004DA5000851A5000855A5000859A5000860
:1000A0005DA5000861A5000865A5000869A5000810
:1000B0005D8300089D830008DD8300086DA50008AE
:1000C00071A5000875A5000879A500087DA50008A0
:1000D00081A50008CB820008FB8200081983000874
:1000E00085A5000889A500088DA5000891A5000830
:1000F00095A5000899A500089DA50008A1A50008E0
:10010000A5A50008A9A50008FF830008ADA5000863
:10011000B1A50008B5A500081D8400083F840008AB
:10012000B9A50008BDA50008C1A50008C5A500081F
:1001300010B504002200D2B24FF40071DFF8840C35
:1001400001F05EFC10BD80B50121DFF87C0C01F0F0
:1001500046FC02BD10B504002200D2B20221DFF835
:100160006C0C01F04DFC10BD10B504002200D2B2A1
:100170004FF40061DFF8580C01F042FC10BD10B5DF
:1001800004002200D2B24FF48061DFF8440C01F089
:1001900037FC10BD10B504002200D2B24FF400713C
:1001A000DFF82C0C01F02CFC10BD10B5040022006F
:1001B000D2B24FF48071DFF8180C01F021FC10BDB1
:1001C00010B504002200D2B24FF40041DFF8F40B66
:1001D00001F016FC10BD10B504002200D2B24FF49D
:1001E0008041DFF8E00B01F00BFC10BD10B50400FE
:1001F0002200D2B24FF40051DFF8C80B01F000FC2E
:1002000010BD10B504002200D2B24FF48051DFF8C7
:10021000B40B01F0F5FB10BD10B504002200D2B202
:100220004021DFF8D00C01F0EBFB10BD10B504004D
:100230002200D2B28021DFF8BC0C01F0E1FB10BD3E
:1002400010B504002200D2B24FF48061DFF8740BC5
:1002500001F0D6FB10BD10B504002200D2B201217E
:10026000DFF8600B01F0CCFB10BD10B504002200DC
:10027000D2B20221DFF84C0B01F0C2FB10BD80B5F9
:100280000821DFF8440B01F0AAFB02BD80B5DFF8BE
:10029000540A007801280CD1DFF8941C0868002863
:1002A00002D10120086001E0002008600868FFF723
:1002B0003FFF01BD0120DFF87C1C08707047DFF8AC
:1002C000280A0168491C0160016840F277229142C6
:1002D00008D30068B0F5237F04D20120DFF8581C52
:1002E000087003E00020DFF8501C08707047DFF84A
:1002F000640A0168491C0160016840F2D1729142B0
:1003000006D300210160DFF8CC0A0168491C0160B6
:10031000704780B5DFF8240C0168491C0160016852
:10032000C92903D300210160FFF7B0FF01BD80B5EB
:100330000120DFF8241A0870DFF8200A0168491C40
:100340000160016842F21172914205D300210160FF
:100350000120DFF80C1A0870DFF87C0A0168491CDC
:100360000160016840F6A172914201D30021016051
:10037000DFF8E0190868401C086040F2E9300A68BC
:10038000824220D300220A60DFF8481A0A68521C11
:100390000A60DFF8481A097801290CD1DFF8401A01
:1003A0000A68521C0A600A684FF6FF739A4206D325
:1003B0000A220A6003E00021DFF8242A11600121EB
:1003C000DFF86C2A1170DFF86C1A0A68521C0A6098
:1003D0000A68824205D3002008600120DFF8581A1D
:1003E0000860DFF8580A0168491C0160016840F2A2
:1003F0005922914205D3002101600120DFF8401A03
:100400000870DFF8400A0168491C01600168C929C9
:1004100005D30021016001F0FAFB01F0ECFDDFF8EB
:10042000280A0168491C01600168652905D300217B
:1004300001600120DFF8141A0870DFF8140A01685F
:10044000491C0160DFF87C0A0168491C01600168F1
:1004500040F29112914205D3002101600120DFF8A2
:10046000781A0870DFF8900A006801280ED1DFF8CA
:10047000BC0C0168491C01600168C9290AD300212C
:1004800001600120DFF8741A086003E00020DFF843
:100490009C1C086001BD80B5DFF8940C0078012831
:1004A00001D1FFF736FF01BD80B5DFF8880C007879
:1004B000012802D1FFF73BFF01E0FFF718FFFFF72C
:1004C000FEFE01BDDFF8701C0868002802D0086835
:1004D000401E0860704730B4030000200024220052
:1004E0000D0092B2ADB2AA4205D2220092B29A5C3D
:1004F0001018641CF3E750F04000C0B230BC7047E5
:1005000001000800C0B20A2808DB0A00D2B20A23A0
:1005100092FBF3F003FB1020413001E011F13000B9
:10052000C0B2704730B40200012000231C000D004F
:10053000A4B2ADB2AC4202D250435B1CF6E780B22B
:1005400030BC704710B504002000C0B2DFF8F019CD
:1005500008808021DFF8A40C01F0F3FE0028F8D019
:1005600010BD38B504000025200001F02DFF290042
:1005700089B2814206D2280080B2205CFFF7E2FFF8
:100580006D1CF1E731BD80B50120DFF8B8190870A6
:1005900001F0A3FF0020DFF8B01908600020DFF8A9
:1005A000B018086001BD0120DFF8E81A08700020CB
:1005B000DFF8341708600020DFF89C1C08607047E3
:1005C000DFF8D40A0168491C01600168032906D3D9
:1005D0000A2101600020DFF80418087003E0012000
:1005E000DFF8F81708707047F8B500240025DFF829
:1005F000AC6A3088002809D15FF0804002F0BAFE72
:10060000DFF8381B0880012030802FE03088012877
:100610002CD1DFF82C7B5FF0804002F0ABFE3880FD
:10062000DFF8180B01883A88914204D23988008893
:10063000091A0C0006E04FF6FF710088091A388885
:1006400041180C00200080B202F0ACFF0100DFF87E
:10065000F40A02F0B5FF05000221280002F080FB39
:100660000020DFF8341A086000203080F1BDF8B5B2
:1006700000240025DFF8D06A3088002809D1DFF88F
:10068000CC0A02F075FEDFF84C1B08800120308098
:100690002BE03088012828D1DFF83C7BDFF8AC0A5A
:1006A00002F066FE3880DFF82C0B01883A88914210
:1006B00004D239880088091A0C0006E04FF6FF7151
:1006C0000088091A388841180C00200080B202F016
:1006D00069FF0100DFF86C0A02F072FF05000321D8
:1006E000280002F03DFB00203080F1BDF8B5DFF8B6
:1006F00044482078002833D0DFF84858287800286C
:100700002ED00020FFF788FDDFF8F46A3068322829
:1007100002D30020FFF78AFD3068C8280AD30120E1
:10072000DFF82C1D08700120FFF776FD0120FFF790
:100730007DFD06E03068401C30600020DFF8101DB1
:100740000870DFF80C7D3168387802F0A2F838784C
:10075000012803D100203060002028700020207084
:10076000F1BD70B500210024DFF870261078002854
:1007700003D10020DFF8E43A1870DFF8BC5728787E
:10078000002815D01678DFF8D40A02783300DBB2DF
:100790009A4202D001210C0006702000C0B201F084
:1007A000F7FF0020DFF8EC18087000202870002008
:1007B00070BD2DE9FE43DFF8A80A02F084FF012591
:1007C000DFF8A04A661C6F462A003100380003F0AB
:1007D000CDF9042714F102080DF104093A0041464D
:1007E000484603F0C3F9A41D9DF80010DFF8780A0D
:1007F00002F069FF0199DFF8740A02F064FFA17842
:10080000DFF86C0A02F05FFFE178DFF8680A02F0B7
:100810005AFF2179DFF8600A02F055FF6179DFF8AD
:100820005C0A02F050FFA179DFF8540A02F04BFF96
:10083000E179DFF8500A02F046FF217ADFF8480A32
:1008400002F041FF617ADFF8440A02F03CFFA17A2E
:10085000DFF83C0A02F037FFE17ADFF8380A02F0ED
:1008600032FF217BDFF8300A02F02DFF617BDFF8D9
:100870002C0A02F028FFA17BDFF8240A02F023FFF4
:10088000E17BDFF8200A02F01EFF217CDFF8180A66
:1008900002F019FF617CDFF8140A02F014FFA17C5A
:1008A000DFF80C0A02F00FFFE17CDFF8A80B02F082
:1008B0000AFF217DDFF8A00B02F005FF617DDFF864
:1008C0009C0B02F000FFA17DDFF8940B02F0FBFE11
:1008D000E17DDFF8900B02F0F6FE217EDFF8880B59
:1008E00002F0F1FE617EDFF8C80C02F0ECFEBDE81C
:1008F000F7832DE9F84F96B0DFF8344520780028CB
:1009000000F0918000208DF8010000208DF800009B
:1009100001F0D3FD019001F0D4FD050001F0C9FD07
:10092000060001F0C2FD070001F0CFFD0A21B0FB77
:10093000F1F801F0CEFDDFF8341B03F077F903F096
:10094000E1F981462020029002980C9000200B9043
:100950000DF1380A0B9A0C99504603F0E9F90DF1A4
:100960003E0A01200A90002009900DF1380B0A9AE6
:100970000999584603F0FAF8012008900DF1020099
:1009800007900DF1390B089A0799584603F0EEF8D5
:10099000042006900DA805900DF13A0B069A0599D2
:1009A000584603F0E3F89DF801008AF800009DF82E
:1009B00000008AF801000198000A8AF802000198F4
:1009C0008AF803002800000A8AF804008AF8055013
:1009D0003000000A8AF806008AF807603800000A2A
:1009E0008AF808008AF809704846000A8AF80A005E
:1009F0008AF80B904046000A8AF80C008AF80D80AD
:100A0000202004900EA80390DFF858B8049A0399A8
:100A1000584603F0ABF8029A0EA9DFF8680C03F011
:100A2000D9F90020207017B0BDE8F08F2DE9FE4FF6
:100A3000DFF81C442068B0F5BE7FC0F0ED8001F007
:100A40003CFD050001F03DFD060001F032FD070010
:100A500001F02BFD804601F038FD0A21B0FBF1F9D1
:100A600001F037FDDFF8041A03F0E0F803F04AF96B
:100A70008246DFF868030078002807D100200500CF
:100A8000002006000020824600208146DFF8A4BA3C
:100A900002208BF800000A20B8FBF0F000905FF015
:100AA0000008B8F1030F14D2D8F1020189B20A206C
:100AB000FFF738FD0099B1FBF0F00A21B0FBF1F22D
:100AC00001FB120030300BEB0801487018F10108EF
:100AD000E7E70A20B7FBF0F001900027032F13D2BD
:100AE000D7F1020189B20A20FFF71CFD0199B1FB81
:100AF000F0F00A21B0FBF1F201FB120030300BEBF9
:100B0000070108717F1CE9E70A20B5FBF0F55FF0EB
:100B10000008B8F1030F13D2D8F1020189B20A20FC
:100B2000FFF700FDB5FBF0F00A21B0FBF1F201FB8D
:100B3000120030300BEB0801C87118F10108E8E72A
:100B40000A20B6FBF0F60027032F12D2D7F10201DC
:100B500089B20A20FFF7E6FCB6FBF0F00A21B0FBF1
:100B6000F1F201FB120030300BEB070188727F1CA1
:100B7000EAE75FF00008B8F1030F13D2D8F10201E1
:100B800089B20A20FFF7CEFCBAFBF0F00A21B0FBD5
:100B9000F1F201FB120030300BEB0801487318F141
:100BA0000108E8E70027032F12D2D7F1020189B22A
:100BB0000A20FFF7B7FCB9FBF0F00A21B0FBF1F215
:100BC00001FB120030300BEB070108747F1CEAE7D1
:100BD00012211BF10100FFF77EFC80464046C0B2A7
:100BE0000009FFF78DFC8BF8130018F00F00FFF7DA
:100BF00087FC8BF8140003208BF815000D208BF870
:100C000016000A208BF817005846FFF7AAFC0020B0
:100C100020600020B0490870BDE8F78F2DE9F04151
:100C2000874C207800285AD00A25FFF78CFA012833
:100C300001D1002600E001263000C0B2002808D112
:100C40000020DFF8581B08700020DFF83C1A08600D
:100C50000EE0DFF8340A01682A00D2B2914203D2D2
:100C60000168491C016003E00120DFF8301B0870B7
:100C700058480068002829D0B34F3868401C3860B5
:100C8000DFF8D485D8F80000401CC8F800003868A8
:100C90002900C9B2884201D302F006F9D8F8000051
:100CA0002900C9B2884201D302F01AF93868FF2836
:100CB00003D32800C0B2401C3860D8F80000FF28D9
:100CC00004D32800C0B2401CC8F8000001F0D5FFD2
:100CD00001F038FDDFF8C81A087000202070BDE868
:100CE000F0810000940000201C20002070B53948DD
:100CF000006804282DD3554C2078002829D00A25D7
:100D00000026FFF7BCFA002801D1012006003000C0
:100D1000C0B201280DD1DFF8100A01688D4203D35B
:100D20000168491C01600CE00120DFF8001A08602E
:100D300007E00020DFF8F01908600020DFF8EC1968
:100D40000860DFF8E8090068DFF8581A087000202A
:100D5000207070BD0C2000200E21002010200020EB
:100D60001321002010B5DFF8404A2078002828D051
:100D70001A48007801280AD1DFF8301A01200870DB
:100D8000DFF82C0A0078002801D100200870DFF875
:100D9000200A0078002803D10020DFF8101A08701C
:100DA000DFF8100A0068012801D1002000E00120CE
:100DB000FFF7D0F9DFF8F4090078FFF741FA0020D7
:100DC000207010BD000C01400018014000100140CF
:100DD0000014014028200020142000200F210020B2
:100DE0002C20002010B5AAA4200002F06CFCDFF833
:100DF000C8090168DFF8C40902F065FCDFF8C039F2
:100E0000DFF8C029DFF8C0090168DFF8C00902F087
:100E10005AFC200002F057FCDFF8B40902F053FC42
:100E2000DFF8B00902F04FFC200002F04CFC10BDCE
:100E30001421002008200020402000200420002051
:100E40001221002000200020FC1F00200D21002086
:100E50001820002080B50120FFF7F2F90120FFF7EC
:100E6000FAF90120FFF701FA0020FFF773F901BD3D
:100E700080B5DFF8640902F026FCDFF82809017864
:100E8000DFF8580902F01FFCDFF81009007800288D
:100E900001D1012100E00021C9B2DFF8440902F0CC
:100EA00012FCDFF840090178DFF83C0902F00BFC86
:100EB000DFF8F8080178DFF8340902F004FC02F0EA
:100EC000FDFB01BDF81F002080B500F00EFFDFF82C
:100ED000200901F070F801BD1521002010B5DFF8E0
:100EE00014492078002803D003F0E7F80020207090
:100EF00010BD0000000801403C20002044200020DC
:100F000070B50500DFF8F068FC223100002003F026
:100F1000FCFB0400002C09D02800C0B2012805D138
:100F200022003100DFF8C80801F0ECF870BD0000C5
:100F30003020002007210020062100202020002052
:100F4000043801400C210020482000202DE9F34FF7
:100F500087B00600150004A8DFF8A01891E81C006F
:100F600080E81C000627300001F02EFA8046B8F118
:100F7000050F01D100241DE0B8F1040F0AD17078EB
:100F80008DF801009DF801002E2801D1012411E007
:100F900000240FE0B8F1030F01D101240AE0B8F1F9
:100FA000020F01D1022405E0B8F1010F01D10324A1
:100FB00000E0002400208DF8040001A80021417009
:100FC000002181700021C170002101715FF00009D2
:100FD000C14543D23900C9B28C423FD216F809103C
:100FE0008DF800109DF800102D3914D0491E22D024
:100FF000891E092906D9113919D0C91F0FD00E39F8
:1010000011D025E004A99DF80020114411F8301CEE
:101010000155641C1FE040210155641C1BE0762132
:101020000155641C17E03E210155641C13E0772133
:101030000155641C0FE0002C09D001A9214411F8CE
:10104000011C51F0800101AA224402F8011C02E0B7
:1010500000210155641C19F10109B9E7089800281D
:1010600013D0002D11D03800C0B2854201D2AA465B
:1010700002E0BA465FFA8AFA01A80390DDF820B0D0
:1010800052460399584602F071FD09B0BDE8F08F51
:101090000A0000000B21002050200020F820002032
:1010A0002DE9F84F04000D005FF000085FF0000B21
:1010B00000200090DFF84867300000F09EFC070039
:1010C00054EA080817F47F4158EA010189B2300058
:1010D00000F0A2FCDFF82C97484600F08EFC824618
:1010E0002800C0B25BEAC01B48F27F0111EA0A0186
:1010F0005BEA010189B2484600F08EFC00200090B6
:101100000098102803D20098401C0090F8E717F4CC
:101110007F41300000F080FC48F27F0111EA0A01B3
:10112000484600F079FCBDE8F18F00002420002043
:10113000092100200821002060200020FA20002042
:10114000FC2000200060EA46FE2000200004004051
:10115000F8B504000D001600002C02D0012C0ED0B2
:101160001BE000200700B74208D2E95D0120B8402B
:1011700010F00F00FFF794FF7F1CF4E70DE0002054
:101180000700B74209D2E95D0120B840000110F024
:10119000F000FFF785FF7F1CF3E7F1BD80B5DFF8B6
:1011A00068060078012810D10120DFF86016086079
:1011B0000522DFF85C160020FFF7CAFF0522DFF8E2
:1011C00054160120FFF7C4FF03E00020DFF83C16AF
:1011D000086001BD00210020022100200020DFF86E
:1011E00038160860DFF834060168012905D10121AD
:1011F000DFF82C26116000210160704700380140A3
:101200006420002038B5DFF81C462068002822D072
:101210000120DFF8F8150860DFF80C560421DFF82C
:101220000C0600F0DCFB28602868012811D10120A1
:10123000DFF8E8150860DFF8F8050168491C01606F
:101240000168042901D3012101600020DFF8D015D5
:1012500008600020206031BD4C20002017210020B4
:10126000A8A30008D41E0020E0A10008F4A10008F3
:10127000C88B0008F88B0008288C0008588C0008E0
:10128000888C0008B88C0008E88C0008188D0008CD
:10129000488D0008788D0008A88D0008D88D0008BA
:1012A000088E0008388E0008688E0008988E0008A6
:1012B000C88E00082DE9F04F89B0DFF87845206826
:1012C000002800F0C2800521002202AD280002F0B3
:1012D0002FFD052100226D46280002F029FD5FF058
:1012E0000A090025002601F0E8F80A21B0FBF1F018
:1012F000089001F0E6F80A21B0FBF1F0079001F048
:10130000D8F80A21B0FBF1F0069001F0CEF80A21DE
:1013100090FBF1F0059001F0D8F80A21B0FBF1F84C
:10132000404602F03FF9DFF8101502F049F9049049
:1013300001F0CFF88246DFF8F8743868012804D04D
:101340005CD3032837D01BD358E00FF2E41B089A74
:10135000594602A803F0FAF902A801F035F8050091
:10136000562002A94855079A5946684603F0EEF9F7
:10137000684601F029F806005620694688553DE088
:101380000FF2AC1B069A594602A803F0DFF902A837
:1013900001F01AF80500562002A94855059A594649
:1013A000684603F0D3F9684601F00EF806005620AF
:1013B0006946885522E0049803F0E8F902000B0022
:1013C000DFF8781402A803F0C1F902A800F0FCFFCE
:1013D0000500412002A94855504603F0D7F9020004
:1013E0000B00DFF85C14684603F0B0F9684600F0C3
:1013F000EBFF0600482069468855FFE70522DFF825
:10140000101402A8FFF7A2FD0522DFF808146846B1
:10141000FFF79CFDDFF8F403006801280AD1DFF82C
:10142000F8030168491C01600068814506D201206B
:10143000386003E00020DFF8E01308603868002817
:1014400001D1012038600020206009B0BDE8F08F94
:1014500016210020F88E0008288F0008588F0008F9
:10146000888F0008B88F0008E88F00080000C84285
:1014700010B50024DFF8CC0300680A280CD3C74855
:101480000078012808D1DFF8C00302F01CF9002021
:10149000C749087001200400DFF86C0300780128B8
:1014A00031D1DFF8A803006814282CD3DFF8A0039B
:1014B000007800280DD1DFF89C0302F004F9002029
:1014C000BB490870012004000120DFF88C1308607C
:1014D00003E00020DFF880130860B148007800289E
:1014E0000CD1DFF8780302F0EEF80020B049087064
:1014F000012004000120DA49086002E00020D849F8
:10150000086002F0DBF802F0D9F8A948007800285A
:1015100001D1012004002000C0B2002803D1002026
:10152000A449086002E00120A249086010BD000043
:1015300025640000101F002010B50024C94802F0E7
:10154000C2F82A21C84802F0BEF82A34FC21C74854
:1015500002F0B9F8FC344FF48051C54802F0B3F8FA
:1015600014F580544021C34802F0ADF840344FF4E4
:10157000FC71C14802F0A7F814F5FC746421BF485F
:1015800002F0A1F864349021BD4802F09CF8903438
:10159000B021BC4802F097F8B0341421BA4802F0E8
:1015A00092F814342100B94802F08DF810BD000003
:1015B0001890000810B5FFF715FCB54802F083F845
:1015C00003F038F9002801D100203AE0B14802F0D8
:1015D0007AF80121B04801F071FE0121AF4801F015
:1015E0006DFE0121AE4801F069FEAE4802F06BF8D5
:1015F00000F03EFB02F01AFC00F018FFAA4802F0CF
:1016000062F80120A9490870A94802F05CF8FFF7C8
:1016100021FCA84802F057F803F0F3F9A64802F0BD
:1016200052F80121A54801F049FEA54C0522784950
:101630002000FFF78BFC052276492000FFF786FC8F
:10164000012010BD1CB59F4C2A2000909E4BFC220F
:101650009E49200003F06EFB4FF4805000909C4B9D
:1016600040229C4914F1500003F064FB1E200090BE
:101670004FF4FC73984A01215D4800F059FC03F0D7
:10168000DFFB13BD281F00206820002080B500204C
:10169000FEF74EFD0020FEF75DFD0020FEF764FD25
:1016A0000020FEF76CFD0020FEF774FD0020FEF721
:1016B0007CFD0020FEF784FD0020FEF78CFD00205D
:1016C000FEF794FD0020FEF79CFD0120FEF7B8FD1B
:1016D0000120FEF7C0FD0120FEF7C7FD0120FEF747
:1016E0009BFD0120FEF7A2FD01BD80B57B4801F006
:1016F000EAFF01202F4908600021704801F0DEFD5B
:1017000001F0EEFB01F0D0FBFFF7C0FFFFF7EEFAB0
:10171000FFF7EFF8FFF78AF903F0A0FBF6E70120E7
:1017200062490870FEE700006C2000207020002055
:101730007CB56B4800906B4B202202216A4802F076
:101740002AFB404D2968694801F0BDFF0120684926
:10175000087001F0B3FF2E683400286804000120EF
:10176000FFF7CEFBFFF7B0FBFFF7B8FBFFF756FA2A
:10177000FEF7F7FFFEF7BAFFFFF77AFEFFF7F2FA80
:10178000FFF7B7F8FFF752F9FFF73CFDFFF792FDBF
:1017900003F0E2F80128E0D173BD00000A21002027
:1017A00097000020102100200E2100201121002090
:1017B000950000205C200020080000205CA40008A8
:1017C000C0A30008B4A300080C000020289B000858
:1017D000608B0008C89E0008F8A20008AC910008C1
:1017E0007890000896000020A4900008D09000088F
:1017F000F41E00201321002014180020CCA30008A0
:1018000000140140001801400F21002004000020B6
:10181000DC1F0020E41F00203420002000000020F6
:101820003C200020442000207420002000100140B3
:101830003820002040200020000020416CA4000837
:1018400074A400082820002008A200082C200020F2
:10185000001D00201CA2000854200020E09E00086B
:1018600058200020F89E0008D4910008FC91000840
:10187000249200084C920008749200089C92000880
:10188000C4920008EC9200081493000808A3000812
:10189000489B00085C9D000800080040000C0040C8
:1018A0000010004030A200081C950008092100200B
:1018B000789D0008949D0008109F000800140040C7
:1018C0007CA40008881C00207C1E00201817002023
:1018D00098000020FC1D002098100020D8A30008CC
:1018E0003C1E00207C1F0020281F0020409500087F
:1018F00008210020F0B50022002300240025002646
:10190000002791F803C01CF00F0C91F803E05FEA88
:10191000CE6E02D58A7852EA0C0C0A7812062AD0CA
:101920000268160000221400082C23D25FF0010E7A
:101930001EFA04F215000A882A401300AB4217D1A0
:10194000A20015000F22AA401700BE431CFA05F2A0
:101950001643CA78282A04D11EFA04FEC0F814E0FF
:1019600006E0CA78482A03D11EFA04FEC0F810E047
:10197000641CD9E706600A88B2F5807F2EDB4268D6
:10198000160000221400082C27D25FF0010E14F17B
:1019900008021EFA02F215000A882A401300AB4220
:1019A00019D1A20015000F22AA401700BE431CFA4D
:1019B00005F21643CA78282A04D114F108021EFA47
:1019C00002F24261CA78482A05D114F108021EFACF
:1019D00002FEC0F810E0641CD5E74660F0BD10B40C
:1019E0000200002390680C00A4B2204201D0012024
:1019F00000E00020C0B210BC7047806880B2704721
:101A00001300DBB2002B03D00B009BB2036102E09A
:101A10000B009BB2436170470A0092B2C2607047EC
:101A2000F0B40022002300250027002802D5324C04
:101A3000246801E0314C2468C0F3034586B210F4F9
:101A4000401CBCF5401F07D134F070642B4A176866
:101A500037F07067176011E0C20206D50322AA4072
:101A600013009C4354F0706408E00200520DD2B29F
:101A7000120116FA02F2944354F070640A00D2B2D2
:101A8000002A06D00200520DD2B2120116FA02F25A
:101A90001443002802D5184A146001E0174A146064
:101AA000F0BC7047F0B400230F2211F00304E4B23D
:101AB000A40012FA04F4124D0A00D2B2921055F8A2
:101AC0002220A2430E00F6B2B61045F826200A00E6
:101AD000D2B2921055F822600700FFB211F0030253
:101AE000D2B2920097403E430A00D2B2921045F81B
:101AF0002260F0BC704700001C000140040001405F
:101B000008000140016000234360002303720023AA
:101B1000437201238372C2600261704738B50400CA
:101B20000D0025722800C0B2012803D10021200039
:101B300000F001F831BD2DE9FC4104000D00A07A50
:101B40002900C9B288423ED0A572206880B203F055
:101B5000ECFA0600206880B203F0ECFA0700206877
:101B600080B203F0EDFA80462800C0B2012815D1FA
:101B70004046C0B200903B00DBB23200D2B22168D6
:101B8000DFF88C0301F09FFD00234246D2B23900FA
:101B9000C9B23000C0B202F042FA14E04046C0B20E
:101BA00000903B00DBB23200D2B22168DFF8640360
:101BB00001F089FD01234246D2B23900C9B230009A
:101BC000C0B202F02CFABDE8F381807A704710B5FC
:101BD0000400607A002819D0207A00280CD1E0682F
:101BE0002169884203D2E068401CE0600CE00121DA
:101BF0002000FFF7A0FF07E00020E06000212000A8
:101C0000FFF799FF002020720020607210BD0120B4
:101C1000C1490870704770B504000025200080B2EB
:101C200003F083FA0600200080B203F083FA02007A
:101C30000321012E04D011D3032E0AD005D30DE0C9
:101C4000022A01D2501E010008E0022A00D211002F
:101C500004E0022A01D2501C0100FFE7032905D24B
:101C6000AE48302303FB01F318440500280070BD83
:101C700038B50024032C37D2A848302101FB04F1E9
:101C800008440500002C04D101202860601C686015
:101C900010E0022C03D2022028606C600AE0032CC2
:101CA00004D203202860601E686003E000202860E2
:101CB0000020686001226968286803F027FA0100A3
:101CC0001E2289B215F10800FFF71CFF0222696885
:101CD000286803F01BFA1E2280B2010015F11C00D7
:101CE000FFF710FF641CC5E731BD70B58A4C207842
:101CF000002833D00026032E2ED28848302101FB45
:101D000006F10844050001206874012085F82500CB
:101D100015F10800FFF75BFF15F11C00FFF757FFF7
:101D200015F10800FFF751FF012806D10020E860F7
:101D300001226968286800F091F815F11C00FFF78E
:101D400044FF012806D10020286202226968286821
:101D500000F084F8761CCEE70020207070BDFEB540
:101D60000500A888FFF757FF0400002C56D0A8886C
:101D7000A168884227D1E988E06803F091F9012839
:101D80000AD1E888E060280000F049F8012114F148
:101D90000800FFF7C3FE41E0A88803F0D1F9060070
:101DA000A88803F0C7F90700A88803F0BEF902006D
:101DB000E8880290E068019000963B00A9885848A6
:101DC00001F081FC2AE0A888E169884226D1E988EF
:101DD000206A03F065F901280AD1E888206228000A
:101DE00000F01DF8012114F11C00FFF797FE15E02B
:101DF000A88803F0A5F90600A88803F09BF907005E
:101E0000A88803F092F9E9880291216A019100966D
:101E10003B000200A988424801F055FCF7BDF8B527
:101E200084B00400A08803F080F90500A08803F0C6
:101E300081F90600A08803F083F907006069039028
:101E400020690290E0680190607A0090E3883A008F
:101E50003100280002F061F805B0F0BD70B5040053
:101E60000D00160032002900200001F0FEFF70BDB9
:101E7000F0B587B02B4801F026FC284C250095F8DA
:101E80002600002801D0202600E04326A87C002858
:101E900001D0202700E04327286801F0D2FF03008B
:101EA0000696286A0590E86904900397E86802900E
:101EB000A8680190686800902A6800211A4801F01B
:101EC00002FC01F0FBFB0126032E1ED2302000FB9A
:101ED00006F020440500A87C002801D0202700E05F
:101EE0004327286801F0ADFF0397E9680291A968CC
:101EF00001916968009103002A6831000B4801F0E4
:101F0000E2FB01F0DBFB761CDEE707B0F0BD000072
:101F1000509A0008089D00081D210020781B002011
:101F200048900008A8A20008E88A000880910008EC
:101F30002DE9F04104000D0016001F00DDF81880A7
:101F40003A003100200003F00AF9002801D10020F6
:101F50000BE0E56000202074002060740120A07474
:101F6000C4F81480C4F818800120BDE8F08138B5A9
:101F700004000D0025742800C0B2012803D10021FF
:101F8000200000F001F831BD38B504000D00A07C40
:101F90002900C9B288420DD0A5742800C0B201281A
:101FA00004D1E168534801F08EFB03E0E168524838
:101FB00001F089FB31BD10B50400607C002819D008
:101FC000207C00280CD16069A169884203D2606935
:101FD000401C60610CE001212000FFF7D5FF07E005
:101FE0000020606100212000FFF7CEFF0020207458
:101FF0000020607410BD0120404948747047F8B556
:1020000004000D0016001F00E068012805D13A0009
:102010003100280002F086FF01E03E600020F2BDA2
:1020200003000120704770B58AB004000D0016004F
:10203000E068012802D0022833D057E003AA31001B
:10204000280002F0DAFF01282AD1BDF8100003F0C1
:102050006CF8012807D103A8FFF781FE01212000B9
:10206000FFF785FF1CE0BDF8100003F05EF80228C2
:1020700007D103A8FFF773FE01212000FFF777FFC8
:102080000EE09DF81500029006980190BDF8100032
:102090000090BDF812303200E168194801F013FBDE
:1020A00024E003AA3100280002F0A7FF01281CD178
:1020B000BDF8100003F039F8022807D103A8FFF794
:1020C0004EFE01212000FFF752FF0EE09DF81500A3
:1020D000029006980190BDF810000090BDF81230F3
:1020E0003200E168064801F0EEFAFFE701200AB08D
:1020F00070BD0000589E0008E89F0008F41E0020F4
:10210000549100082DE9FC4705000E0014005FF013
:10211000000A002C33D022003100280003F05FF8C1
:10212000280003F02AF80700280003F024F880466E
:10213000002824D06B46424639002800FFF75FFF95
:1021400081464846C0B2012809D1009A39002800CA
:10215000FFF769FF01280AD10120824607E00098B5
:10216000002804D0009A39002800FFF759FF009892
:10217000002804D00099280003F009F8D4E750465D
:10218000C0B2BDE8F68730B4002513E050F8042B48
:10219000D30744BFA9F101039A18091F042942F883
:1021A000045BFAD213468C0744BF15809B1CC907F9
:1021B00048BF1D7050F8041B0029E7D130BC7047A0
:1021C0002DE9F84F86B004000D00002600275FF0CF
:1021D00000085FF000095FF0000AA8890028A34604
:1021E000218A4CF6FF700140E88801430091009875
:1021F0002082A1894EF6F3100140AA882889024363
:1022000068890243114300910098A081A18A4FF68A
:10221000FF400140A889014300910098A08201A8D5
:1022200003F06CF81C48834501D1049900E0039940
:10223000A089000407D5192000FB01F02A6852008C
:10224000B0FBF2F206E0192000FB01F02A689200D0
:10225000B0FBF2F26420B2FBF0F6360133001B094A
:10226000642000FB1323A089000408D5D800323075
:102270006427B0FBF7F010F00700064307E01801F1
:1022800032306427B0FBF7F010F00F0006432681D0
:1022900007B0BDE8F08F0000003801400A00D2B25C
:1022A000002A04D0828952F40052828104E083899A
:1022B0004DF6FF721340838170472DE9F0410023F2
:1022C000002500275FF0000E0C0040F66A16A4B24D
:1022D000B44280460C00E4B26409E4B20E00B6B227
:1022E00016F01F065FF0010C1CFA06FC012C02D14F
:1022F00018F10C0806E0022C02D118F1100801E0D8
:1023000018F114081300DBB2002B06D0D8F8003007
:102310005CEA0303C8F8003005E0D8F8003033EA7F
:102320000C03C8F80030BDE8F0811300DBB2002BCD
:1023300003D0838A0B43838202E0838A8B438382A8
:10234000704702000023080080B2B0F5007F1088BB
:10235000084201D0012000E00020C0B27047F0B474
:10236000040000270020002200260B0040F66A151A
:102370009BB2AB420D00EDB26D09EDB20B009BB20A
:1023800013F01F035FF0010C1CFA03F3012D02D1BF
:10239000A089034006E0022D02D1208A034001E01B
:1023A000A08A03400A0092B2120A92B21CFA02F208
:1023B00020880240002B03D0002A01D0012000E039
:1023C0000020C0B2F0BC704700F10103810704D0C7
:1023D00010F8011B820781B1FAD10268A2F1013124
:1023E000914311F0803104BF50F8042FF6E709BA89
:1023F000B1FA81F100EBD100401CC01A704730B433
:102400000EE00268436802440830DC0744BFA9F1CB
:102410000104E31852F8045B43F8045B091FF9D187
:1024200050F8041B0029ECD130BC704770B564240F
:102430000025DFF8986B2A002100300001F078FCBD
:1024400070BD10B50121012002F0C4FFDFF8A04AE1
:10245000200003F043F8DFF89C1ADFF89C0A0860BC
:10246000DFF8980A4860002088600520C8600020D6
:102470000861802048614FF4807088614FF480606B
:10248000C861202008624FF4005048620020886232
:10249000200003F09CF801220221200003F0C4F880
:1024A0000121200003F0B1F810BDDFF8240B0088F3
:1024B0007047DFF8200B00687047DFF81C0B0068DE
:1024C0007047DFF8180B00687047DFF8140B0068DE
:1024D0007047DFF8140B006870470120DFF80C1B11
:1024E000087070472DE9F0475FF0000800250021D3
:1024F000DFF8080AB0F804A0DFF8040A0278C82A56
:1025000074D300210170DFF8FC29DFF8E41A0B68AE
:10251000007832F81000C3180B600868C823B0FBBD
:10252000F3F00860002004002000C0B2C8281AD2CE
:102530002000C0B232F810000B68984209D20B6834
:102540002000C0B232F810001B1A0868C318984661
:1025500004E02000C0B232F810008046404680B24D
:102560004519641CE0E7C820B5FBF0F5DFF83C0A2C
:102570000278C82A2BD300210170DFF8786A30680E
:10258000C821B0FBF1F03060DFF86C7A3868C82100
:10259000B0FBF1F03860DFF8389A30683968401ADB
:1025A00003F088F80022DFF8543A03F091F803F0C2
:1025B00061F9A9F800000020306000203860B9F807
:1025C0000000642822DA0020A9F800001EE002784A
:1025D000521C0270DFF81C0A0268AA180260DFF8B9
:1025E000182A13680868C31813600FE0DFF814197D
:1025F000027821F812A00278521C0270DFF8F0294C
:102600001368007831F81000C3181360BDE8F08734
:102610002DE9F047DFF8D48998F80000002800F091
:102620008F80002400205FF00A09DFF8D018B1F88D
:1026300008A0DFF8CC190A78642A79D30020087042
:10264000002005002800C0B264280ED2DFF8B409CB
:102650002900C9B230F81110A14204D32900C9B22F
:1026600030F8110004006D1CECE7DFF89C090178DC
:102670004A4689B292B291424ED300210170DFF8EE
:102680008C09DFF88C6931684A4692B2B1FBF2F1ED
:102690000160DFF88079006803F00CF8DFF8782932
:1026A000DFF8783903F014F80022DFF8743903F00A
:1026B000FFF803F021FA3860002030603868DFF856
:1026C000641903F04DFA13D2386802F05FF8DFF8AE
:1026D0005829DFF8583902F0FBFF0022DFF85039A3
:1026E00002F0F6FF03F04EFADFF8F41808601BE082
:1026F000386802F04BF8DFF83029DFF8383903F09A
:1027000055FA0022DFF8283902F0E2FF03F03AFA26
:10271000DFF8CC18086007E00178491C0170DFF889
:10272000F008016861180160002088F8000007E0E7
:10273000DFF8D0080A7820F812A00878401C08704A
:10274000BDE8F08710B401221421DFF8880803687F
:1027500041F28654A34204D3006841F2CB739842FD
:1027600005D3DFF8D40803685B1C036003E0002096
:10277000DFF8C4381860DFF8C0381868884203D31F
:1027800000204C1C1C6000E00120C0B210BC70474F
:102790002DE9F047814600275FF0000800244846F5
:1027A000C0B2012803D10020DFF890180860DFF8DC
:1027B0008C5828683C285FD3002006003000C0B247
:1027C0003C2808D2DFF878083100C9B250F821005F
:1027D000C719761CF2E73C20B7FBF0F7380002F08F
:1027E00069FF5FF06632DFF85C3802F071FF0022AB
:1027F000DFF82C3803F05CF803F07EF9DFF84818B6
:10280000086040F69800874205D3A7F69800052196
:10281000B0FBF1F0040040F6C410C01B00F0C2FE93
:10282000DFF8281800F0CCFE01F0B0FFDFF8E82751
:10283000DFF81C3803F0BAF903F05EF98046DFF8E0
:1028400094A7380000F0AEFE414600F0B9FE01F05A
:1028500059FA2018CAF80000DAF800100A2041439B
:10286000CAF8001000202860DAF8000064280ED2B0
:102870000020CAF800000AE0DFF88006C088DFF810
:10288000C0172A6841F822002868401C2860BDE86B
:10289000F0872DE9F34F89B00020079000200690C3
:1028A00000260025002005900020049000200390C1
:1028B00000200090002002905FF0000B00200190AB
:1028C0009DF82400012840F03D8100200700BE2F24
:1028D00006D2DFF8800730F8170086197F1CF6E76C
:1028E000BE20B6FBF0F00790DFF86C97D9F8000037
:1028F0000A28C0F08480DFF864A7DAF800000A2113
:10290000B0FBF1F0CAF80000DFF85487DAF80000F5
:10291000C8F80000D8F8000002F0CCFE5FF0663284
:10292000DFF8203702F0D4FE0022DFF8F43602F0A0
:10293000BFFF03F0E1F8DFF82C170860D8F80000BB
:10294000B0F5FA6F0ED3D8F80000B0F5FA6002F0D7
:10295000B1FE5FF06632DFF8103702F0A9FF03F036
:1029600011F90390D8F80000B0F5AF6F15D3D8F87F
:10297000000000F017FEDFF8F41600F021FE0090D2
:10298000009801F003FFDFF8E826DFF8E83603F0EF
:102990000DF903F0B1F8029016E0D8F80010D1F567
:1029A000AF61C9080A2041430491D8F8000000F043
:1029B000F9FDDFF8C41600F003FE009000995FF007
:1029C000804003F0B1F90290D8F8000000F0EAFD71
:1029D000029900F0F5FDDFF8A41601F027F901F0E7
:1029E00091F90499401A03990818DFF8EC1508606A
:1029F0000020C9F800000020CAF800000AE0DFF853
:102A00005C160A68079882180A60D9F80000401C12
:102A1000C9F8000087200400BE2C06D2DFF860064B
:102A200030F814004519641CF6E72D20B5FBF0F0D2
:102A30000690DFF85096D9F800000A2876D3DFF820
:102A400048A6DAF800000A21B0FBF1F0CAF800004D
:102A5000DFF83886DAF80000C8F80000D8F800007F
:102A600002F028FE5FF06632DFF8D83502F030FE63
:102A70000022DFF8AC3502F01BFF03F03DF8DFF871
:102A800010160860D8F80000B0F57A7F15D3D8F892
:102A9000000000F087FDDFF8FC1500F091FD834693
:102AA000584601F073FE5FF03332DFF8EC3503F087
:102AB0007DF803F021F801901FE0D8F80000B0F590
:102AC000967F05D2D8F80000D0F5967040080590A2
:102AD000D8F8000000F066FDDFF8C01500F070FDCA
:102AE0008346584601F052FE5FF06632DFF8B0359B
:102AF00003F05CF803F000F80190D8F8000000F053
:102B000051FD019900F05CFDDFF8701501F08EF8C1
:102B100001F0F8F805990818DFF8C01408600020E3
:102B2000C9F800000020CAF800001DE0DFF85815C1
:102B30000A68069882180A60D9F80000401CC9F893
:102B4000000011E0DFF8B4030188DFF808250A9BD4
:102B500002EB430222F8021C4088DFF824150A9A8F
:102B600001EB420121F8020C0BB0BDE8F08F2DE91A
:102B7000F04104000D002800C0B2022813D100204B
:102B800084F83800002084F837002826002714F144
:102B90003C083A003100404601F0CAF80020DFF856
:102BA0004814086014E02800C0B2032810D10020A7
:102BB00020720020E0712826002714F10C083A004A
:102BC0003100404601F0B4F80020DFF81814086026
:102BD000BDE8F08170B5030008000F240025DFF880
:102BE000C41402F0BDFF04D3DFF8BC1403F00EF9E7
:102BF00001D801210D001100C9B2022920D12900FC
:102C0000C9B2012912D1210093F83660C9B2B1428C
:102C100005D393F83610491C83F836102CE00121B7
:102C200083F83510002183F8341025E0002183F863
:102C30003610002183F83510012183F834101BE091
:102C40001100C9B2032917D12900C9B201290DD138
:102C500021009E79C9B2B14203D39979491C997177
:102C60000AE0012159710021197105E000219971D3
:102C7000002159710121197170BDF8B5002400259A
:102C8000DFF8486337000322DFF858030168380093
:102C9000FFF7A0FF0222DFF8500301683800FFF7BA
:102CA00099FF97F83500012801D1012004007879B7
:102CB000012801D101200500012030702800C0B298
:102CC000012801D100203070F1BD2DE9F041040050
:102CD0000D0016005FF00008E078012815D10027EC
:102CE0003800C0B20A280AD23800C0B204EB800013
:102CF0008068414603F018F880467F1CF0E74046A4
:102D0000DFF8781300F05CFC1BE000273800C0B24D
:102D10002900C9B2491C88420ADA3800C0B204EB63
:102D200080008068414602F0FFFF80467F1CEDE78F
:102D30002800C0B2401C03F07BF80100404600F0C0
:102D40003FFC3100C9B2032902D1A649086005E061
:102D50003100C9B2022901D1A3490860BDE8F08160
:102D600070B504000D002800C0B2032820D1CF4860
:102D7000060030790A280DD2307906EB8000846095
:102D80002A00D2B231793000FFF79FFF3079401C22
:102D9000307131E030790A282ED3002030710120C3
:102DA000F0702A00D2B231793000FFF78EFF23E0B5
:102DB0002800C0B202281FD1BD48060030790A2879
:102DC0000DD2307906EB800084602A00D2B23179CE
:102DD0003000FFF77AFF3079401C30710CE0307919
:102DE0000A2809D3002030710120F0702A00D2B2E5
:102DF00031793000FFF769FF70BD2DE9F0419AB0DD
:102E000080460EA818F10401302200F0BFFE9DF8A4
:102E10003C0001909DF83B0000909DF83A309DF8F1
:102E200039209DF83810A34800F04DFC0A240025F5
:102E3000A5420DD20EA800EB8500806801F0A6FC2B
:102E400002000B0029009C4800F03DFC6D1CEFE7E0
:102E500002A818F13401302200F098FE9DF80C0011
:102E600001909DF80B0000909DF80A309DF8092014
:102E70009DF80810914800F026FC0A260027B7426A
:102E80000DD202A800EB8700806801F07FFC0200F1
:102E90000B003900884800F016FC7F1CEFE700F0BB
:102EA0000DFC1AB0BDE8F08110B5484C00204A492D
:102EB0000860002049490860002049490860002056
:102EC0004949086002212000FFF751FE00206549B2
:102ED000086000206E49086000204E49086010BD5F
:102EE00010B53A4C03212000FFF741FE10BD000051
:102EF00008000240A81E00204C240140AC1F002006
:102F0000192100209012002080B56D4800F0DBFBF5
:102F1000304800680A21B0FBF1F16A4800F0D3FBA9
:102F20002D4800680A21B0FBF1F1674800F0CBFBA7
:102F30002A4800680A21B0FBF1F1644800F0C3FBA5
:102F4000234800880A2190FBF1F1614800F0BBFBA7
:102F5000234801685F4800F0B6FB5F4800F0B3FB10
:102F60003948006801F012FC02000B005B4800F0D9
:102F7000AAFB3C48006801F009FC02000B0058481D
:102F800000F0A1FB4248006801F000FC02000B00C9
:102F9000544800F098FB1F48006801F0F7FB02005E
:102FA0000B00514800F08FFB01BD00001A210020EA
:102FB00010B5064C4D4800F086FB21784C4800F0D7
:102FC00082FB2000FFF719FF10BD0000001D00204C
:102FD00004210020782000207C2000208020002078
:102FE00084200020882000208C2000201821002030
:102FF000A0200020A4200020A820002000000E40D7
:103000001B210020001A00201C210020B0200020DD
:10301000AC2000209C200020CDCCCCCCCCCC0440DB
:1030200000FEAF400100803F9A9999999999F13F2C
:1030300000408F409999B93FB4200020B82000206B
:103040001019002066660A40902000200000E1432D
:10305000CCCC084020140020C4200020CC2000202C
:10306000BC20002094200020666602400000AF448F
:10307000295C8FC2F528064000004844000020412A
:103080009C150020C8200020D0200020C020002057
:103090009820002000007A44333325400000484344
:1030A00066661A40713D3A4090C24540041D0020BA
:1030B000341D0020048A0008B09D0008B089000873
:1030C000CC9D0008689B0008889B0008A89B00080E
:1030D000C89B0008E89B000864930008D09500088E
:1030E000F4950008189600083C96000858A20008BD
:1030F000289F000810B4002204886C4B98420FD01F
:10310000DFF8202390420BD0B0F1804F08D0684AFE
:10311000904205D0674A904202D0674A904204D15B
:103120004FF68F7214404A881443DFF8F022904221
:1031300008D0DFF8EC22904204D04FF6FF42144052
:10314000CA88144304808A8882850A880285984246
:103150000FD0DFF8D02290420BD0DFF8402390420E
:1031600007D0DFF8B023904203D0DFF8202490424C
:1031700001D10A7A02860122828210BC7047F0B423
:10318000002600275FF0000C038C4FF6FE72134000
:103190000384058C8388048B4FF68F7214404FF69E
:1031A000FC7214400A8814434FF6FD7215400A89D8
:1031B00015434A8815433D4A90420FD0DFF86422F8
:1031C00090420BD0DFF8D422904207D0DFF844239E
:1031D000904203D0DFF8B423904213D14FF6F77238
:1031E00015404A8915434FF6FB7215408A881543EE
:1031F0004FF6FF6213404FF6FF5213408A89134384
:10320000CA89134383800483CA8882860584F0BCFC
:10321000704738B504000D00244884420FD0DFF811
:10322000040284420BD0B4F1804F08D0204884427D
:1032300005D02048844202D01F48844200D1FFE7D5
:10324000288800280AD12B89AA886988200000F0E4
:10325000B0F8E988200000F065F825E02888042807
:103260000AD12B89AA886988200000F0DDF8E98856
:10327000200000F060F817E0288808280AD12B8980
:10328000AA886988200000F00BF9E988200000F086
:103290005CF809E02B89AA886988200000F03CF9D5
:1032A000E988200000F05AF831BD0000002C0140F0
:1032B0000004004000080040000C00400A00D2B2A8
:1032C000002A04D0028852F00102028004E0038840
:1032D0004FF6FE721340038070471300DBB2002BE1
:1032E00003D083890B43838102E083898B438381ED
:1032F00070470A00D2B2002A04D0028852F080023D
:10330000028004E003884FF67F7213400380704709
:1033100010B40023048B4FF6F77214400C4304835F
:1033200010BC7047038B4FF6F37213400383028B7C
:103330000A4302837047038B4FF2FF32134003832B
:10334000028B52EA012202837047838B4FF6F3729D
:1033500013408383828B0A4382837047838B4FF2AF
:10336000FF3213408383828B52EA012282837047AB
:10337000808E7047B0F840007047F0B40200002320
:1033800000260024178A0F4095890D40380080B22E
:10339000002805D0280080B2002801D0012000E0DC
:1033A0000020C0B2F0BC70470A0092B2D243028241
:1033B0007047F0B400275FF0000C058C4FF6FE74E8
:1033C00025400584068B058C4FF60C74264052EA86
:1033D000031426436F4CA0420ED0124CA0420BD0D7
:1033E000B0F1804F08D06C4CA04205D06B4CA0428D
:1033F00002D06B4CA04206D14FF6FD74254051F02F
:103400000104254305E04FF6F574254051F0010411
:10341000254306830584F0BC70470000001000407F
:1034200000140040003401402DE9F0415FF0000C31
:103430005FF0000E5FF00008058C4FF6EF7425403A
:103440000584058B068C0F0140F6FF44254055EAA4
:10345000033555EA02254F4CA0420ED04C4CA042F9
:103460000BD0B0F1804F08D04B4CA04205D04B4C54
:10347000A04202D04A4CA04206D14FF6DF7426404B
:1034800057F01004264305E04FF65F74264051F0D4
:103490001004264305830684BDE8F0810040014006
:1034A0002DE9F0415FF0000C5FF0000E5FF00008C6
:1034B000058C4FF6FF6425400584858B068C0F0232
:1034C0004FF60C74254052EA03142543314CA042B8
:1034D0000ED02F4CA0420BD0B0F1804F08D02E4C14
:1034E000A04205D02D4CA04202D02D4CA04206D1C6
:1034F0004FF6FF54264057F48074264305E04FF200
:10350000FF54264051F48074264385830684BDE829
:10351000F0810000004401402DE9F0415FF0000C13
:103520005FF0000E5FF00008058C4EF6FF7425403A
:103530000584858B068C0F0340F6FF44254055EA31
:10354000022555EA0335134CA0420ED0104CA04280
:103550000BD0B0F1804F08D00F4CA04205D00F4CDB
:10356000A04202D00E4CA04206D14DF6FF74264078
:1035700057F48054264305E047F6FF54264051F4A3
:103580008054264385830684BDE8F08100480140CD
:1035900000340140002C01400004004000080040BD
:1035A000000C004000280AD0B0FA80F18840D1F128
:1035B0009D01C905020672F1004241EB10207047DF
:1035C00010B5FF2313EAD0541DBF13EAD1529C4219
:1035D0009A4239E0A41ADA0780EA0103134042EA6A
:1035E000012142EA0020421A3CBF641E01EB420264
:1035F000090AB2FBF1FE01FB1E221202B2FBF1F03E
:1036000001FB10226EF30F201202B2FBF1FE4EEA14
:1036100000207F3406DDFE2C24DA53EA500050EB04
:10362000C45010BDD4F1020401FB1E2240F0807191
:10363000192C1DDC21FA04F0C4F12004A14011432F
:1036400071F10042584110BD9C421ABF03EAD152A9
:103650009A420FE080EA010E0EF00043400004D0D1
:10366000490016D143F0FF4010BD490008BFD343C5
:10367000180010BD9C4205D1D21AF7D001F00041CC
:10368000484010BD4A0212BF0846484000F00040C2
:1036900010BD4AB90902B1FA81F2914044B1A418AF
:1036A000C00140F000409EE7C90141F00041524294
:1036B0000002B0FA80F4A040141B94E780B5022009
:1036C00001F035F801BD0EB4F0B5C0B004004FF400
:1036D000807100226D46280000F02AFBFF2645AFCE
:1036E0003B0022003100684602F0B4FB0500012DCA
:1036F00007DB0020694648552A006946022000F091
:10370000E5FF40B0F0BC5DF810FB10B5DFF84843B2
:103710002000FFF7D8FFDFF84403FFF7D4FF2000B5
:10372000FFF7D1FF0421CE48FFF7CDFF0121CD489F
:10373000FFF7C9FF0421CC48FFF7C5FF0221CB48A2
:10374000FFF7C1FF0421CA48FFF7BDFF0421C948A4
:10375000FFF7B9FF0821C848FFF7B5FF0821C748A0
:10376000FFF7B1FF0421C648FFF7ADFF69A42000B1
:10377000FFF7A9FF0421C348FFF7A5FF2000FFF7CB
:10378000A2FF0421C048FFF79EFF0421BF48FFF7B6
:103790009AFF0121BE48FFF796FF0221BD48FFF7BF
:1037A00092FF0421BC48FFF78EFF0821BB48FFF7BA
:1037B0008AFF0121BA48FFF786FF0221B948FFF7C7
:1037C00082FF0421B848FFF77EFF0821B748FFF7C2
:1037D0007AFF2000FFF777FF0421B548FFF773FF5A
:1037E0000821B448FFF76FFF0421B348FFF76BFFD0
:1037F0000821B248FFF767FF2000FFF764FF0121AF
:10380000AF48FFF760FF0121AE48FFF75CFF0221E0
:10381000AD48FFF758FF0421AC48FFF754FF2000E4
:10382000FFF751FF0121AA48FFF74DFF0121A948E9
:10383000FFF749FF0421A848FFF745FF0421A748E7
:10384000FFF741FF2000FFF73EFFA548FFF73BFFD2
:10385000A448FFF738FFA448FFF735FFA348FFF758
:1038600032FFA348FFF72FFF0821A248FFF72BFFE5
:103870002000FFF728FF2000FFF725FF10BD70B5DF
:1038800086B09D48039005A89C490A68026004A878
:103890009B490A680260042403AD02AE220029009D
:1038A000300000F063F96C4E3000FFF70CFF9548D4
:1038B000FFF709FF3000FFF706FF9DF80B000190AE
:1038C0009DF80A0000909DF809309DF808200399A2
:1038D0008D48FFF7F8FE042205A902A802F0D8FAE5
:1038E000002803D18948FFF7EEFE0DE0042204A969
:1038F00002A802F0CDFA002803D18548FFF7E3FEC5
:1039000002E08448FFF7DFFE02A0FFF7DCFE06B00E
:1039100070BD00000D0A00002DE9F84185B04E4C45
:103920002000FFF7D0FE7C48FFF7CDFE2000FFF718
:10393000CAFE002555F00105B5F1004F03D17748C7
:10394000FFF7C1FE08E0012D03D17548FFF7BBFE6C
:1039500002E07448FFF7B7FE29007348FFF7B3FE93
:10396000002600270020ADF810000020ADF80C0064
:1039700000208DF8080000208DF8040056F0004665
:1039800057F00107049850F400400490039850F059
:1039900001000390029850F080000290019850F0CE
:1039A0000100019031006148FFF78DFE3900604849
:1039B000FFF789FEBDF810105E48FFF784FEBDF8E2
:1039C0000C105D48FFF77FFE9DF808105B48FFF77D
:1039D0007AFE9DF804105A48FFF775FE0624002071
:1039E000ADF80000200080B2009960F38A210091B8
:1039F000BDF80000002803D15248FFF764FE02E042
:103A00005148FFF760FE5FF005080020ADF80000A8
:103A1000404680B2009960F38A210091BDF8000011
:103A2000B0F5806F03D14948FFF74DFE02E04848EA
:103A3000FFF749FE00200099C1F38024210089B2DC
:103A4000012903D14348FFF73EFE02E04248FFF759
:103A50003AFE06B0BDE8F081548A000818A30008B9
:103A60006096000884960008A8960008CC96000886
:103A7000F096000814970008389700085C97000833
:103A8000809700088C930008A4970008C897000846
:103A9000EC9700081098000834980008589800081F
:103AA0007C980008A0980008C4980008E8980008CE
:103AB000B4930008DC930008049400082C940008D8
:103AC000549400087C940008A4940008CC94000846
:103AD0000C9900083099000854990008789900085A
:103AE0009C990008C0990008E4990008089A000809
:103AF0002C9A00082891000878563412F4A4000883
:103B0000F8A4000828A30008288B0008E89D0008F6
:103B1000049E0008089C000838A30008289C0008A0
:103B2000209E00083C9E0008A48A0008489C0008CB
:103B3000689C0008889C0008A89C0008C89C000895
:103B4000E89C0008409F0008589F0008709F0008EC
:103B5000889F0008A09F0008B89F000880B5FFF765
:103B6000D4FDFFF78CFEFFF7D7FE01BD62B38B07D4
:103B700008D0521E11F8013B00F8013B00F02480F0
:103B80008B07F6D1830740F0208000BF103A07D39F
:103B900030B4B1E83810103AA0E83810F9D230BC8F
:103BA000530724BFB1E80810A0E8081044BF51F83B
:103BB000043B40F8043BD20724BF31F8022B20F825
:103BC000022B44BF0B7803707047121F17D35B00A2
:103BD00009D151F8043B20F8023B1B0C121F20F8BE
:103BE000023BF6D20BE051F8043B00F8013B1B0A04
:103BF00020F8023B1B0C121F00F8013BF3D238BF28
:103C0000121D521E24BF11F8013B00F8013BF8D8E9
:103C100070478268521C8260426832B10268531C4D
:103C2000036011704168491E41607047FF2212EA2B
:103C3000D05C1DBF12EAD153944593422BE09C44C3
:103C4000D30780EA01021A4043EA002043EA012137
:103C5000A1FB0030C04238BF40007CF17F010BDB8C
:103C6000FE294ADA5B0842EAC15153EA006373F164
:103C7000004C51EB10207047D1F1080CDCF1200111
:103C80002FDB5B0810FA01F10B4320FA0CF073F103
:103C900000415041704794451CBF02EAD153934202
:103CA00080EA010202F000421DD0400019D0490014
:103CB00017D05BB9634514D00902B1FA81F399407A
:103CC000BCEB030CC00140F00040C1E70002B0FAB9
:103CD00080FC10FA0CF0B3EB0C0CC90141F0004170
:103CE000B6E71000704740000AD0490008D010F134
:103CF000807F94BF11F1807F02E042F0FF40704767
:103D0000D043704700180CD2010E7F3909D4D1F18D
:103D10001F015DBFC00140F00040C8406FF00000CF
:103D20007047002070470268531C03601170704791
:103D300062F30F2262F31F42401810F0030308D011
:103D4000C91A1FD3DB0748BF00F8012D28BF20F890
:103D5000022D130030B414461546103928BF20E94F
:103D60003C00FAD8490728BF20E90C0048BF40F8BA
:103D7000042D890028BF20F8022D48BF00F8012D2E
:103D800030BC7047C91818BF00F8012DCB0728BFF9
:103D900000F8012D7047F0B40400049D21606260BA
:103DA000A36000268E420CD2A06800EBC60002FB86
:103DB00006F72F4447600020A76847F83600761CB6
:103DC000F0E70020E0600020206100206061012019
:103DD000F0BC70472DE9F04704000D001600E068C4
:103DE0002168884201D300201EE06068B04201D201
:103DF000002019E0A068216900EBC107B046A94680
:103E0000D7F804A0424649465046FFF7AFFE3E6051
:103E10002069401C2168B0FBF1F201FB1200206117
:103E2000E068401CE0600120BDE8F08770B5B02478
:103E30000025DFF8C4672A0021003000FFF778FF73
:103E400070BD0100012904D00CD3032907D003D38E
:103E500008E0DFF8A80707E0DFF8A40704E0DFF8D0
:103E6000A40701E0DFF8A00770472DE9F84F05002F
:103E70000C001600012D04D04DD3032D34D01CD3DB
:103E800049E0002C18D0022C16D2601E8246012E6A
:103E900002D15FF0000B01E05FF0010BDFF8580783
:103EA000582101FB0AF108442C2101FB0BF10844C5
:103EB0000700380000F00EFA2DE0002C13D0022C81
:103EC00011D2601E8246002083462C20DFF828177E
:103ED00000FB0AF2114400FB0BF008445830804606
:103EE000404600F003FA16E0002C13D0022C11D249
:103EF000601E8246002083462C20DFF8FC1600FB63
:103F00000AF2114400FB0BF0084484308146484615
:103F100000F0F8F9FFE7BDE8F18F2DE9F14F86B029
:103F20000C0015001E00109FDDF84480DDF848905D
:103F3000DDF84CA00698012804D06DD3032848D0A2
:103F400024D369E0002C20D0022C1ED2601E0290E7
:103F5000012D02D15FF0000B01E05FF0010BDFF8F3
:103F60009816029A5820424301EB02002C2101FBD3
:103F70000BF10844059005980190CDF800A04B4640
:103F800042463900300000F0CAF845E0002C1FD04E
:103F9000022C1DD2601E0290012D02D15FF0000B99
:103FA00001E05FF0010B2C20DFF84C16029A42432F
:103FB000114400FB0BF00844583004900498019021
:103FC000CDF800A04B4642463900300000F0D5F84D
:103FD00022E0002C1FD0022C1DD2601E0290012D69
:103FE00002D15FF0000B01E05FF0010B2C20DFF845
:103FF0000816029A4243114400FB0BF00844843037
:10400000039003980190CDF800A04B46424639003A
:10401000300000F0E0F8FFE707B0BDE8F08FF0B443
:10402000012804D047D303282ED016D343E000291B
:1040300012D0022910D24E1E3400012A01D10025CF
:1040400000E00125DFF8B065582707FB04F73E4480
:104050002C2707FB05F7F3552DE0002913D0022983
:1040600011D24E1E3400012A01D1002500E00125A5
:104070002C26DFF8847506FB04FC674406FB05F676
:104080003E4486F8583016E0002913D0022911D298
:104090004E1E3400012A01D1002500E001252C2606
:1040A000DFF8547506FB04FC674406FB05F63E4446
:1040B00086F88430FFE7F0BC704770B50024002C10
:1040C00010D15825DFF8306505FB04F0304400F0CE
:1040D000B0F805FB04F506EB05002C3000F0A9F85C
:1040E000641CECE70025002D0AD1DFF80C052C211B
:1040F00001FB05F10844583000F0B6F86D1CF2E7FA
:104100000024002C0AD1DFF8F0042C2101FB04F17B
:104110000844843000F0C3F8641CF2E770BD2DE958
:10412000F34F83B014001D000E9E0F9F04980128CA
:1041300020D103987860FC60387C01281AD01B2EAF
:1041400002D35FF01A0800E0B0465FF01A095FF092
:10415000000A17F1110B524649465846FFF7E8FD91
:10416000CDF80480009517F1110B019A009958467B
:10417000FFF7FCFC05B0BDE8F08F2DE9F34F83B0ED
:1041800014001D000E9E0F9F0498022820D1039852
:104190007860FC60387C01281AD01B2E02D35FF0B7
:1041A0001A0800E0B0465FF01A095FF0000A17F144
:1041B000110B524649465846FFF7BAFDCDF8048028
:1041C000009517F1110B019A00995846FFF7CEFCA4
:1041D00005B0BDE8F08F2DE9F34F83B014001D004A
:1041E0000E9E0F9F0498032820D103987860FC60EE
:1041F000387C01281AD01B2E02D35FF01A0800E089
:10420000B0465FF01A095FF0000A17F1110B524631
:1042100049465846FFF78CFDCDF80480009517F10C
:10422000110B019A00995846FFF7A0FC05B0BDE8B4
:10423000F08F10B50400A068E16888420FD12078A3
:10424000012805D101202074200000F043F80AE085
:10425000002020740020A0600020E06003E0002027
:104260002074E068A06010BD10B50400A068E1688B
:1042700088420FD12078012805D101202074200028
:1042800000F034F80AE0002020740020A060002034
:10429000E06003E000202074E068A06010BD10B56D
:1042A0000400A068E16888420FD12078012805D178
:1042B00001202074200000F025F80AE0002020747E
:1042C0000020A0600020E06003E000202074E0688F
:1042D000A06010BDF8B504001A25002614F11107DE
:1042E000320029003800FFF723FDF1BDF8B50400C6
:1042F0001A25002614F11107320029003800FFF7B3
:1043000017FDF1BDF8B504001A25002614F11107B8
:10431000320029003800FFF70BFDF1BD70B59AB0EF
:1043200004000D0016003078002801D0432300E07F
:10433000202396F82A00199096F82900189096F8EC
:104340002800179096F82700169096F826001590EA
:1043500096F82500149096F82400139096F8230000
:10436000129096F82200119096F82100109096F87D
:1043700020000F90F07F0E90B07F0D90707F0C901A
:10438000307F0B90F07E0A90B07E0990707E08908E
:10439000307E0790F07D0690B07D0590707D049092
:1043A000307D0390F07C0290B07C0190707C009096
:1043B0002A0021009548FFF786F91AB070BD70B544
:1043C0009AB004000D0016003078002801D0432375
:1043D00000E0202396F82A00199096F829001890FA
:1043E00096F82800179096F82700169096F8260061
:1043F000159096F82500149096F82400139096F8DE
:104400002300129096F82200119096F82100109047
:1044100096F820000F90F07F0E90B07F0D90707F87
:104420000C90307F0B90F07E0A90B07E0990707EE9
:104430000890307E0790F07D0690B07D0590707DED
:104440000490307D0390F07C0290B07C0190707CF1
:1044500000902A0021006D48FFF735F91AB070BDB1
:1044600070B59AB004000D0016003078002801D015
:10447000432300E0202396F82A00199096F829009B
:10448000189096F82800179096F82700169096F83E
:104490002600159096F82500149096F824001390A5
:1044A00096F82300129096F82200119096F82100B9
:1044B000109096F820000F90F07F0E90B07F0D9036
:1044C000707F0C90307F0B90F07E0A90B07E099048
:1044D000707E0890307E0790F07D0690B07D05904C
:1044E000707D0490307D0390F07C0290B07C019050
:1044F000707C00902A0021004448FFF7E4F81AB0CD
:1045000070BD2DE9F84F4248FFF7DDF84148FFF74D
:10451000DAF80024002C2ED10FF2D0094846FFF71C
:10452000D2F85FF0580ADFF8D0B00AFB04F00BEBCA
:1045300000052A0001212000FFF7F0FE2CA0FFF764
:10454000C2F80FF2B0084046FFF7BDF84846FFF743
:10455000BAF80AFB04FA0BEB0A002C300090009A20
:1045600002212000FFF7DAFE4046FFF7ACF8FFF724
:10457000A5F8641CCEE72848FFF7A5F80025002D14
:1045800015D11AA0FFF79FF81B482C2101FB05F15C
:10459000084458300600320001212800FFF70FFFC1
:1045A00014A0FFF790F8FFF789F86D1CE7E71B48A8
:1045B000FFF789F80024002C15D10CA0FFF783F831
:1045C0000D482C2101FB04F10844843007003A0017
:1045D00001212000FFF744FF06A0FFF774F8FFF762
:1045E0006DF8641CE7E7BDE8F18F000009000000EA
:1045F000202F20000A000000C81A002008A400088C
:1046000014A4000820A40008CCA400088088000896
:1046100080A2000848A300082CA40008D09F00082E
:1046200070B504004748282101FB04F100EB0105A7
:10463000454850F8240086883100C9B2280000F0AF
:104640004CFB70BD7CB504003E48282101FB04F101
:10465000084410F114056946280000F054FB0600D8
:104660003000C0B2012805D19DF80000364951F84C
:10467000241088803000C0B2002807D1002240F208
:104680002771314850F82400FDF717FE73BDF8B5C7
:1046900004000D002B48282101FB04F1084410F10F
:1046A00014072900C9B2380000F017FB06003000DB
:1046B000C0B2012807D1012240F22771224850F8E8
:1046C0002400FDF7FAFD3000C0B2F2BDF8B50400D9
:1046D0000D0016000027B74207D2E95D2000FFF762
:1046E000D6FF002801D07F1CF5E73800F2BD70B579
:1046F00004000D001348282101FB04F100EB010622
:104700002900300000F0FFFA70BDF8B504000D007C
:1047100016000027B74208D205EB07012000FFF77B
:10472000E6FF002801D07F1CF4E73800F2BD054900
:10473000282202FB00F2114411F11402517C0029DD
:10474000FCD07047881C0020100000200CB430B54D
:1047500083B00A4606A902910446002501940095FB
:1047600002AB01A9084878441E3001F0C5FB019A4C
:10477000157000284EBF04460198041B204603B064
:1047800030BC5DF80CFB00BF9FF5FFFFC0F3C751C5
:1047900081B1FF2906D0C110400721F0E04101F1AD
:1047A0006051704741020CBF40F4E0016FF00041DE
:1047B0000020704700F0004100020AD0B0FA80FCEF
:1047C00000FA0CF001F16051A1EB0C5101EBD0218A
:1047D0004005704780B520214048FDF700F902BD33
:1047E00010B53F4CFFF7F6FF20600120606010BD60
:1047F00010B53C48FEF767FFFFF7F2FF384C216821
:104800003948FEF760FF61683848FEF75CFFA06832
:10481000FFF717FB0200A1683548FEF754FFE16877
:104820003448FEF750FF21693348FEF74CFFFEF78E
:1048300045FF10BDF8B514250026294C270032008D
:1048400029003800FFF774FAFFF7CAFF6068E060DC
:104850002068401C20610120A060E068002801D190
:1048600000203AE0A068012804D033D3032821D0E7
:1048700010D32FE0E068022801D300202DE0E0688B
:10488000022801D3002028E02069032801D300205A
:1048900023E021E0E068022801D300201DE0E06869
:1048A000022801D3002018E02069032801D300204A
:1048B00013E011E0E068022801D300200DE0E06879
:1048C000022801D3002008E02069032801D300203A
:1048D00003E001E0002000E00120F2BD00100140F3
:1048E000401F002044A200083C930008FC900008F0
:1048F0006495000888950008AC950008010000291F
:1049000009D0022916D009D304290DD00FD30629C6
:1049100013D006D314E0DFF8740113E0DFF8700160
:1049200010E0DFF870010DE0DFF86C010AE0DFF85D
:104930006C0107E0DFF8680104E0DFF8680101E0DE
:10494000DFF86401704701000800401E042801D808
:10495000002000E00120704780B5DFF854010068B6
:10496000FFF7F1FF02BD0022026000224260002238
:104970008260C1600022026100224261704770B50E
:1049800004000D00160029002000FFF7ECFF2900AD
:1049900014F11800FFF7E7FF002020630020606398
:1049A0000020A0630020E0632664002060640020F3
:1049B00084F8480070BD016000224260002202724B
:1049C0000022C26000220261002242610022826154
:1049D0000022C26100220262002242620022826240
:1049E0000022C2620022026300224263002282632C
:1049F0000022C26300220264002242640022826418
:104A000070472DE9F84F0124DFF81C02006900907F
:104A10004C250026DFF8A070B84632002900404639
:104A2000FFF786F95FF04C085FF00009DFF8F4A1AA
:104A3000D3464A4641465846FFF77AF9C82205212F
:104A40003800FFF79CFF4FF4C8715046FFF7B3FFE3
:104A50000098012802D0022804D007E00220134960
:104A6000086005E001201149086001E000200BE02A
:104A700001200F4908600020DFF838100860009816
:104A8000DFF8A81108600120BDE8F28FD4A4000867
:104A9000DCA4000858A3000838A4000868A3000894
:104AA00078A30008E4A4000844A40008DC20002047
:104AB000D8200020E0200020641D0020F8B55C48CC
:104AC000FEF701FE5B4C2068FFF718FF0200236829
:104AD000564801685848FEF7F6FD584C2068FFF725
:104AE0000DFF23680200564801685648FEF7EBFDAB
:104AF000554C21685548FEF7E6FD2068002801D195
:104B0000012100E00021C9B25148FEF7DCFD514807
:104B1000FEF7D9FD504F39685048FEF7D4FD79684B
:104B20004F48FEF7D0FDB9684E48FEF7CCFDF96856
:104B30004D48FEF7C8FD39694C48FEF7C4FD796958
:104B40004B48FEF7C0FD396B4A48FEF7BCFD796B58
:104B50004948FEF7B8FDB9694848FEF7B4FDF96960
:104B60004748FEF7B0FD396A4648FEF7ACFD796A62
:104B70004548FEF7A8FDB96A4448FEF7A4FDF96A66
:104B80004348FEF7A0FDB96B4248FEF79CFDF96B68
:104B90004148FEF798FD414C396C2000FEF793FD2B
:104BA0003F4D796C2800FEF78EFD3E4E97F8481079
:104BB0003000FEF788FD3C48FEF785FD194FB869C7
:104BC00000907B693A69F9683848FEF77CFD786A9D
:104BD00000903B6AFA69B96A3548FEF774FDB86B14
:104BE00000907B6B3A6BF96A3248FEF76CFD786C8B
:104BF00000903B6CFA6BB96C2F48FEF764FD396886
:104C00002000FEF760FD79682800FEF75CFD397A28
:104C10003000FEF758FD294801682948FEF753FD8A
:104C2000F1BD0000B01D0020401F0020D420002056
:104C300088A30008D8200020749E0008E0200020EF
:104C4000DC200020909E0008E4200020BCA2000888
:104C5000D0A2000800A00008641D002018A00008D1
:104C600030A0000848A0000860A0000878A0000854
:104C700090A00008A8A00008C0A00008D8A00008C4
:104C8000F0A0000808A1000820A1000838A1000831
:104C900050A1000868A1000880A1000898A10008A0
:104CA000B0A10008C8A10008E4A20008749A000896
:104CB000989A0008BC9A0008E09A00085C2000203E
:104CC000AC9E000801604260002383600023C36043
:104CD0000023037400234374704770B40200D56846
:104CE0009368581C5668B0FBF6F406FB1404AC42FB
:104CF00003D101201074002003E01068C1549460B7
:104D0000012070BC704770B402009568D368581CCD
:104D10005668B0FBF6F406FB1404AB4203D1012045
:104D20005074002004E01068C05C0870D46001205A
:104D300070BC70472DE9F04104000D0016001F0003
:104D4000DDF81880320029002000FFF7BBFF424643
:104D5000390014F11400FFF7B5FFBDE8F0813F0002
:104D600080B500F030F801BD80B5FCF73BF801BD1F
:104D700080B5FCF7E1FBFEF7F1FE01BD80B5FFF762
:104D800037FD01BD80B5FDF773F801BD80B5FFF7B4
:104D9000B8FB01BD80B5FBF70CFD01BD80B5FEF78A
:104DA00007F901BD80B5FEF7AFF801BD80B5FCF78E
:104DB0005FF801BD80B5FFF781FE01BD80B552A04F
:104DC000FEF781FC01BD70B55048FEF77CFC0C2657
:104DD0000025B54209D24E4800EBC5000400216809
:104DE0004C48FEF770FC6D1CF3E770BD2DE9F041F7
:104DF00005000C00002C02D1FFF7E0FF1EE05FF081
:104E00000C080027474514D2414800EBC7000600B4
:104E10003068FDF7D9FA02002900306802F041F845
:104E2000002804D170688047FFF7C8FF06E07F1CA8
:104E3000E8E73948FEF747FCFFF7C0FFBDE8F0811F
:104E400038B58025354C2A002100354800F087F917
:104E5000002801D1002000E0012032BD2DE9F047FB
:104E600090B0402269460220FFF74FFC0400002C5E
:104E700047D0A04600200700474542D26846C05DA3
:104E800081464846C0B20A2817D14946C9B2022015
:104E9000FFF7FDFBDFF888A0504600F06CF9060034
:104EA000504600F06AF9050031002800FFF79EFF28
:104EB0003100504600F06BF921E04846C0B20D28A1
:104EC0001DD04846C0B2092819D04846C0B20828AB
:104ED00003D1134800F0CBF911E04846C0B22028B6
:104EE0000DDB4846C0B27F2809DA4946C9B2022024
:104EF000FFF7CDFB4946C9B2094800F0A6F97F1C6F
:104F0000BAE710B0BDE8F0873E000000BCA400087E
:104F10001C000020C4A400086CA20008081C00208B
:104F2000B81F00202DE9FF4705000E0014005FF0B8
:104F300000095FF0000A724801688E423FD3297869
:104F40008DF800109DF80010AA2946D169788DF8D7
:104F500001109DF8011001293FD1A978EA7852EAA1
:104F60000122ADF80220BDF802100068814234D35E
:104F700064480068BDF8021088422ED3BDF80200D4
:104F800086421CD3BDF80200801E81464946280097
:104F900001F09CFF070015F8090005EB09014978AD
:104FA00051EA00218846404680B2874215D1002C44
:104FB00002D0BDF8020020600120C0B21AE000213A
:104FC000B14204D2685CAA2801D0491CF8E7002C41
:104FD00000D021605046C0B20CE00121B14204D2A1
:104FE000685CAA2801D0491CF8E7002C00D0216099
:104FF0005046C0B204B0BDE8F08730B403000024CE
:105000003F480068814201D2002047E0185D1070DF
:10501000641C185D5070641C185D03EB04056D780A
:1050200055EA00255580A41C185D03EB04056D7836
:1050300055EA00259580A41C185D03EB04056D78E6
:1050400055EA0025D580A41C185D1072641C185DFB
:105050005072641C185D03EB04056D782D0455EA4D
:10506000006503EB0400807855EA002503EB04009B
:10507000C0780543D560241D03EB040010615088FF
:10508000001B801E506150690419185D03EB040574
:105090006D7855EA00251583A41C012030BC7047AB
:1050A000F8B505000C00002D01D1012026E0002CF0
:1050B00001D1012022E0A54201D100201EE06E1C9A
:1050C000B6B215F12007BFB2AE4200D2761CAF4295
:1050D00000D27F1CBE4205D2B4420BD3A74209D3F3
:1050E00001200BE0B44201D3012007E0A74201D325
:1050F000012003E00448FEF7E6FA0020F2BD0000BC
:1051000000A5000804A5000894A2000810B404003B
:10511000002050EA0430130213F44073184311F0D6
:10512000FF03184380B210BC70470100080080B232
:10513000000B70470100080080B210F00F007047AC
:105140000100080080B2C0F30122D00701D5012080
:1051500004E0900701D5022000E000207047030022
:1051600019605A60002098605868002801D100201A
:1051700000E01800704780687047006870470100C1
:105180004A688868101A70470021816070472DE9CD
:10519000F84F04000D00A068854203D32000FFF7FC
:1051A000F3FF13E0A668761BA768BF1BD4F8008046
:1051B000206800EB07090096CA46C346009A51468C
:1051C000584601F0A1FEA068401BA060BDE8F18F29
:1051D00010B5040001212000FFF7D9FF10BD2DE913
:1051E000FE4F04000D001600012E04D12978200086
:1051F00000F02BF827E06068B04205D2676860686D
:10520000301A05EB000801E03700A8462000FFF740
:10521000B6FF8146B94506D2B7EB09000090009968
:105220002000FFF7B4FF2068A16800EB010A029795
:10523000CDF80480D346029A01995846FEF796FCB1
:10524000A0683818A060BDE8F78F38B504000D00DD
:10525000A0686168884202D12000FFF7B9FF20688A
:10526000A16808440570A168491CA16031BD81682E
:10527000002902D08168491E81607047DFF81C1246
:105280000A6832F480320A600A6832F480220A60C6
:105290000200B2F5803F03D0B2F5802F05D009E0BF
:1052A0000A6852F480320A6004E00A6852F4A022CC
:1052B0000A60FFE770470100C9B27B4A116070477E
:1052C0000021774B1A689208920002431A607047D7
:1052D0000A00D2B2002A04D0744A13780343137030
:1052E00003E0724A137883431370704700216C4BBC
:1052F0001A6832F4404202431A6070472DE9F04FB9
:1053000001000022002500200026654FD7F800C0CC
:105310001CF00C0C6346002B04D0042B05D0082B8A
:1053200006D023E0634A0A6022E0624A0A601FE076
:105330003A6812F470123B6813F480331800920C30
:10534000921C1500002804D15B4A02FB05F20A609A
:105350000BE03A68920304D5574A02FB05F20A6053
:1053600003E0544A02FB05F20A6001E0514A0A6078
:105370003C6814F0F0042409DFF8409119F804E0C7
:105380000A6832FA0EF24A603B6813F4E0631B0AC3
:1053900019F803804A6832FA08F28A603A6812F40F
:1053A0006052D20A19F80290D1F804A03AFA09FA28
:1053B000C1F80CA03F6817F44047BF0BDFF800A10D
:1053C0001AF807A0D1F80CB0BBFBFAFBC1F810B07B
:1053D000BDE8F08F0A00D2B2002A04D0394A13681F
:1053E0000343136003E0374A136883431360704735
:1053F0000A00D2B2002A04D0334A13680343136070
:1054000003E0314A13688343136070470A00D2B245
:10541000002A04D02D4A13680343136003E02B4A8B
:1054200013688343136070470100C9B2284A1160B2
:10543000704730B401000020002300250A00D2B2DA
:105440005209D2B2012A02D11448046806E0022AA5
:1054500002D11748046801E01E4804680B00DBB263
:1054600013F01F032000D840C00701D5012000E041
:105470000020C0B230BC704701000022094800681B
:105480000B00DBB2184201D0012000E00020C0B2C6
:10549000704711490870704700000000001002407A
:1054A000041002400810024060004242091002400D
:1054B0002010024000127A0000093D007C0000200C
:1054C0008C00002014100240181002401C100240F2
:1054D0004C004242241002400A10024002684FF67B
:1054E000FE710A400260002101600021416000213C
:1054F00081600021C1605F49884205D15E490A6828
:1055000052F00F020A6061E05C49884205D15A49B5
:105510000A6852F0F0020A6058E05949884205D101
:1055200055490A6852F470620A604FE05549884252
:1055300005D151490A6852F470420A6046E0524966
:10554000884205D14C490A6852F470220A603DE055
:105550004E49884205D148490A6852F470020A60EF
:1055600034E04B49884205D143490A6852F07062E1
:105570000A602BE04749884205D147490A6852F042
:105580000F020A6022E04549884205D142490A6873
:1055900052F0F0020A6019E04149884205D13E49C3
:1055A0000A6852F470620A6010E03E49884205D1F0
:1055B00039490A6852F470420A6007E03A49884261
:1055C00004D135490A6852F470220A60704730B439
:1055D000002304686FF30E148D680A6A15430A6984
:1055E00015434A6915438A691543CA6915434A6ACE
:1055F00015438A6A15432C430460CA6842600A68EE
:1056000082604A68C26030BC70470A00D2B2002A89
:1056100004D0026852F00102026004E003684FF611
:10562000FE721340036070471300DBB2002B03D0FF
:1056300003680B43036002E003688B430360704719
:10564000010000220020CB0002D5184B1B6801E0AE
:10565000174B1B680B4201D0012000E00020C0B2B4
:105660007047C10002D50C49086001E0024908609A
:105670007047000008000240040002401C00024085
:105680003000024044000240580002406C000240DA
:105690008000024008040240040402401C0402404E
:1056A0003004024044040240580402400004024016
:1056B00000000240014648B1B0FA80F18840C91CA0
:1056C000C1F58461090501EBD02140057047000058
:1056D000B0B581EA030C0CF0004C40F2FF7515EAFE
:1056E00011541DBF15EA1357AC42AF4239E0E4191B
:1056F00023EA455343F48013C90241F0004141EAD3
:10570000505EC7021100A7FB020200284FF0000004
:10571000EEFB01204FF00001E3FB072118BF42F030
:105720000102401800214941E3FB0E01A4F5806409
:105730000F0302D252004041494154F101046CDD93
:10574000470872F1004250F1000051EB0451A1F5FD
:1057500080115CBF41EA0C01B0BD4CEA055100204C
:10576000B0BD05EA1357AC4214BFAF4241E050EA66
:10577000410E1CBF52EA430E02E061460020B0BD5C
:1057800024423C441BD15FEA070EF6D0090302BF56
:1057900001460020AEF1140EB1FA81F7AEEB07041A
:1057A00001FA07FE0C37C7F1200100FA07F7C840DD
:1057B0004EEA000E23EA455343F48013A2E733F088
:1057C0000043B3FA83F704BFB2FA82FE77440B3F7B
:1057D000E41BB7F1200E2FBF02FA0EF3BB40C7F156
:1057E000200E22FA0EFE38BF43EA0E03BA40641CB4
:1057F00082E750EA410E14BF52EA430E6FF00001F7
:105800004FF4001717EB430F8ABF194617EB410FF0
:10581000B5E74CEA05510020B0BDD4F10104B4F164
:1058200020070FDAC4F12007520828BF42F0010216
:1058300010FA07F501FA07F7E1BF2A43E0403843C1
:10584000E1400FE0352C98DCC7F1200452EA400219
:1058500020FA07F218BF42F0010231FA07F0A14026
:105860000A43002172F1004250F1000051EB0C019B
:10587000B0BD0000C1F30A5340F2FE329B1A14DDA2
:10588000D3F120034FEAE17208DDC90241EA505129
:1058900041F00040D84080185040704703F2E1309A
:1058A00010B1D24382F000407047002070470000E2
:1058B000F0B540F2FF7581EA030C0CF0004C15EADC
:1058C00011541DBF15EA1357AC42AF42E5E0BC418D
:1058D000C1F31301C3F31303801A994143F48013F6
:1058E00004D2641E4000494180185941C90241EA6E
:1058F0005051B1FBF3F603FB1611A2FB0675D7EB73
:10590000C020A94102D2761E80185941C90241EA3D
:105910005051B1FBF3FE03FB1E11A2FB0E75D7EB3A
:10592000C020A94103D2AEF1010E8018594189026D
:1059300041EA9051760546EA8E2EB1FBF3F603FB61
:105940001611A2FB0675D7EB8020A94102D2761E64
:1059500080185941C90241EA50514EEA060EB1FB86
:10596000F3F603FB1611A2FB0675D7EBC020A94185
:1059700002D2761E80185941C90241EA5051B1FB4A
:10598000F3F703FB1711A2FB0735D3EBC020A941A6
:1059900067F100070CBF004247F0010766F3D52707
:1059A0004FEA1E31B80814F5806412DDBD0775F1A9
:1059B000004250EB0E5051EB045111F5801F5CBFBB
:1059C00041EA0C01F0BD4CF07F6141F0E041002064
:1059D000F0BDBD076D0840EA0E5041F48011D4F1CE
:1059E0000104B4F120060ADAC4F120060200E04006
:1059F00001FA06F3E1401843B24015430EE0342C9F
:105A000013DCC6F1200445EA40056D0820FA06F2D1
:105A1000154321FA06F0A1400D43002175F1004223
:105A200050F1000051EB0C01F0BD00205FEA0C01C9
:105A3000F0BDCFB992185B41B3FA83F704BFB2FA55
:105A400082F6BF190B3FB7F120062FBF02FA06F30B
:105A5000BB40C7F1200622FA06F638BF3343BA40EE
:105A60001CB1E419641E33E77F4231F00041B1FA02
:105A700081F404BFB0FA80F6A4190B3CB4F12006FF
:105A80002FBF00FA06F1A140C4F1200620FA06F665
:105A900038BF3143A0403C1B1AE7AC421ABF05EAAD
:105AA0001357AF4212E050EA41061CBF52EA4306C8
:105AB000BFE750EA4107304661461CBF41EA055145
:105AC000F0BD52EA430C08BFC143F0BD00204FF4C3
:105AD000001616EB410F98BF16EB430F08BF16EBED
