:020000040800F2
:10000000D83600200D960008E17B0008517C0008DE
:10001000537C0008557C0008577C00080000000055
:10002000000000000000000000000000597C0008F3
:100030005B7C0008000000005D7C00085F7C00081D
:100040003D97000841970008459700084997000828
:100050004D9700080D7C000851970008559700083F
:10006000599700085D97000861970008537D0008C4
:1000700065970008699700086D9700087197000858
:1000800075970008799700087D9700088197000808
:1000900085970008899700088D97000891970008B8
:1000A00095970008999700089D970008A197000868
:1000B0006B7D00088F7D0008C57D0008A5970008AE
:1000C000A9970008AD970008B1970008B5970008F8
:1000D000B9970008677C0008977C0008DD7C000861
:1000E0001D7E0008BD970008C1970008C59700084D
:1000F000C9970008CD970008D1970008D597000848
:10010000D9970008DD970008E37D0008E197000813
:100110000D7D0008E5970008E9970008ED970008B5
:10012000F1970008F5970008F9970008FD97000877
:1001300010B504002200D2B24021DFF8100C01F00B
:1001400007FD10BD10B504002200D2B24FF40071BB
:10015000DFF8FC0B01F0FCFC10BD80B50121DFF8DD
:10016000F40B01F0E4FC02BD10B504002200D2B291
:100170004FF48071DFF8D40B01F0EAFC10BD10B52C
:1001800004002200D2B24FF40071DFF8C00B01F07E
:10019000DFFC10BD80B54FF48051DFF8B40B01F0E7
:1001A000C6FC02BD80B54FF40051DFF8A40B01F08E
:1001B000BEFC02BD80B54FF48041DFF8940B01F026
:1001C000B6FC02BD80B54FF40041DFF8840B01F0AE
:1001D000AEFC02BD80B50221DFF8740B01F0A7FC74
:1001E00002BD80B5DFF8B407007801280CD1DFF834
:1001F000681B0868002802D10120086001E0002087
:1002000008600868FFF79EFF01BDDFF894070168EA
:10021000491C0160016840F2D172914206D300216D
:100220000160DFF8380B0168491C0160704780B538
:10023000DFF82C0B0168491C01600168C92903D350
:1002400000210160FFF7CDFF01BD10B5DFF85407B5
:100250000168491C0160016842F21172914205D3A4
:10026000002101600120DFF840170870DFF8300737
:100270000168491C0160016840F2D17291420AD3C1
:1002800000210160DFF8D40A0168491C01600120E7
:10029000DFF8D01A0870DFF8D00A0168491C016045
:1002A000016840F2E932914205D30021016001204A
:1002B000DFF8B81A0860DFF8B80A0168491C016065
:1002C00040F291140168A14205D300210160012090
:1002D000DFF8A01A0870DFF8A00A0168491C016065
:1002E0000168C92909D30021016001F038FD01F03E
:1002F0002EFF0120DFF8841A0870DFF8840A0168F5
:10030000491C01600168A1420FD300210160DFF8A0
:10031000740A0168491C0160DFF86C0A0168491C15
:1003200001600120DFF8641A0870DFF8640A0068D1
:1003300001280ED1DFF85C0A0168491C01600168E0
:10034000C9290AD3002101600120DFF84C1A086096
:1003500003E00020DFF83C1A0860DFF8400A01687B
:10036000491C01600120DFF8781C087010BD0120D5
:10037000DFF8701C0870704780B5DFF8240A007839
:10038000012801D1FFF753FFDFF8D40C00780128D2
:1003900002D1FFF75AFF01E0FFF737FF01BDDFF899
:1003A000C41C0868002802D00868401E0860704716
:1003B00080B50120DFF8701B08700120DFF86C1B8E
:1003C000087002F08CFA0020DFF8D01908600020D5
:1003D000DFF8101D086001BDF8B500240025DFF826
:1003E000506B3088002809D1DFF8480B02F09BFDE4
:1003F000DFF8441B0880012030802AE03088012883
:1004000027D1DFF8387BDFF82C0B02F08CFD388029
:10041000DFF8240B01883A88914204D23988008899
:10042000091A0C0006E04FF6FF710088091A388897
:1004300041180C00200080B202F08CFE0100DFF8B1
:10044000A80C02F095FE0500280002F03EFB0020FB
:100450003080F1BD7047F8B5DFF8884B2078002870
:1004600036D0DFF8C45A2878002831D0DFF8786B0E
:100470003068002802D00020FFF776FE3068282878
:1004800002D30020FFF77BFE3068C9280AD3012081
:10049000DFF8581C08700120FFF766FE0120FFF707
:1004A0006EFE06E03068401C30600020DFF83C1C27
:1004B0000870DFF8387C3168387801F068FF3878E8
:1004C000012803D100203060002028700020207017
:1004D000F1BD2DE9F0470400DFF85C5BDFF85C6BF1
:1004E000286834542868411C2960305C0A281BD1D4
:1004F0002F68B046DFF8889B3A004146484602F034
:10050000B5FE0120DFF87C1B08705FF019095FF071
:10051000000A52464946300002F012FF2868DFF810
:10052000D01B0860002028602868192801D300200B
:100530002860BDE8F0872DE9F0470400DFF8485B4C
:10054000DFF8486B286834542868411C2960305C07
:100550000A281BD12F68B046DFF8989B3A00414625
:10056000484602F083FE0120DFF88C1B08705FF024
:1005700019095FF0000A52464946300002F0E0FED9
:100580002868DFF8C01C086000202860286833282D
:1005900001D300202860BDE8F08730B403000020BC
:1005A000002422000D0092B2ADB2AA4205D2220070
:1005B00092B29A5C1018641CF3E750F04000C0B28D
:1005C00030BC704730B403000020002422000D002E
:1005D00092B2ADB2AA4205D2220092B29A5C101831
:1005E000641CF3E72030C0B230BC704710B4010087
:1005F00011F00F020800C0B20A2808DB1300DBB2BA
:100600000A2493FBF4F004FB1030413001E012F1B6
:100610003000C0B210BC704730B40200012000238B
:100620001C000D00A4B2ADB2AC4202D250435B1C20
:10063000F6E780B230BC704710B504002000C0B2AD
:10064000DFF8B81A08808021DFF8080D02F07DFF7E
:100650000028F8D010BD38B504000025200002F0B5
:10066000CFFF290089B2814206D2280080B2205CE7
:10067000FFF7E2FF6D1CF1E731BD2DE9F84F0500F2
:100680000E0017001C005FF0000B5FF0000AB7427D
:1006900032D305EB060010F8030C80464046C0B28A
:1006A000032802D01BF1020B26E0122105EB060005
:1006B0001738FFF772FF81464846C0B20009FFF7BE
:1006C00095FF05EB060111F8051CC0B2814202D06E
:1006D0001BF1020B10E019F00F00FFF787FF05EB8D
:1006E000060111F8041CC0B2814202D01BF1020BBA
:1006F00002E0B34601208246002C01D0C4F800B0CD
:100700005046C0B2BDE8F28F2DE9F84F04000D004D
:100710000020DFF870160860280080B2204410F82E
:10072000116C6421280080B2204410F8102C0A209B
:10073000424301FB0626280080B2204410F80F0C2B
:100740008619DFF8940B8619642E17D31227280018
:1007500080B22044B0F11708DFF8809B3A00414690
:10076000484602F083FD5FF019095FF0000ADFF8E8
:1007700010B952464946584602F0E2FDBDE8F18FF5
:100780002DE9F84F04000D000020DFF8FC1508608B
:10079000280080B2204410F8116C6421280080B237
:1007A000204410F8102C0A20424301FB06262800A2
:1007B00080B2204410F80F0C8619DFF81C0B861944
:1007C000642E17D31227280080B22044B0F11708F6
:1007D000DFF8089B3A004146484602F047FD5FF0CB
:1007E00019095FF0000ADFF80CB95246494658462D
:1007F00002F0A6FDBDE8F18FF8B5DFF88848207853
:10080000002814D01927DFF8E8080668DFF87058C8
:100810006B463A0031002800FFF72FFF002804D074
:10082000009989B22800FFF76FFF00202070F1BD0A
:10083000F8B5DFF8C4482078002814D01927DFF86D
:10084000040A0668DFF8AC586B463A00310028000D
:10085000FFF713FF002804D0009989B22800FFF7A2
:100860008FFF00202070F1BDF8B5DFF874472078C5
:10087000002825D0DFF8B4562878002820D0DFF8EB
:100880004C6B3068B0F5257F04D30120DFF8401BA6
:10089000087006E03068401C30600020DFF8301B34
:1008A0000870DFF82C7B3168387801F0CAFE3878A0
:1008B000012803D100203060002028700020207023
:1008C000F1BD2DE9FE43DFF80C0B02F0BAFE012466
:1008D000DFF8045B6E1C6F4622003100380002F026
:1008E000C5FC042715F102080DF104093A00414640
:1008F000484602F0BBFCA81DBDE8F78380B5DFF8D1
:10090000DC0A02F09EFEFFF765FC002801D1012100
:1009100000E00021C9B2DFF8C80A02F092FEFFF73A
:100920001CFC0100DFF8BC0A02F08BFEFFF732FC72
:10093000002801D1012100E00021C9B2DFF8A80A96
:1009400002F07FFEFFF72EFC002801D1012100E01C
:100950000021C9B2DFF8940A02F073FEFFF72AFC07
:10096000002801D1012100E00021C9B2DFF8800A8E
:1009700002F067FEFFF726FC002801D1012100E00C
:100980000021C9B2DFF8AC0C02F05BFE02F054FEAD
:1009900001BDDFF8A40C006870470000940000203F
:1009A000DC2D0020E02D0020C62E00202DE9F84F80
:1009B0008AB0DFF8E8432068B0F5BE7FC0F0C2819E
:1009C0000020ADF806000020ADF804000020ADF8CE
:1009D00002000020ADF80000DE4801F0B6F8C04388
:1009E00010F03C00ADF80600BDF80600C0F383002F
:1009F000ADF80200D54801F0A8F8C04310F00F0090
:100A0000ADF80400BDF8040010F00F00ADF80000D0
:100A1000BDF8020003F068F8ADF80200BDF8000070
:100A200003F062F8ADF80000DFF8100C40680990A0
:100A300001F095FC050001F096FC079001F097FC91
:100A40000A21B0FBF1F0039001F095FC0A21B0FB04
:100A5000F1F0029001F093FC0A21B0FBF1F601F0F5
:100A600092FCDFF8DC1B03F00DF903F077F9069038
:100A70002E2008901220059030200490DFF86C7B27
:100A800017F10408C146049A0599484602F058FC3B
:100A900002203870BDF80200C0B2FFF7A7FD7870E1
:100AA000BDF80000C0B2FFF7A1FDB870DFF840ABA1
:100AB000DFF890BB2021584601F039F8CAF8000051
:100AC000DFF8849B8021584601F031F8C9F8000016
:100AD000DAF80000002804D13120DFF8701B08701C
:100AE00019E0A848006804280DD3A7480068042826
:100AF00004D33420DFF8541B08700CE03320DFF8F7
:100B00004C1B087007E0A0480068042803D332207B
:100B1000DFF8381B0870D9F80000002803D1302016
:100B2000DFF8281B0870DFF8240B0078F8705FF0FE
:100B30001209DFF8A8A7CDF810A04A46049940464C
:100B400002F094FB5FF012085FF0300B5A4641460A
:100B5000504602F0F5FB0A20B5FBF0F55FF0000A05
:100B6000BAF1030F13D2DAF1020189B20A20FFF7BA
:100B700053FDB5FBF0F00A21B0FBF1F201FB1200CE
:100B8000303007EB0A0188751AF1010AE8E7079887
:100B90000A21B0FBF1F85FF0000BBBF1030F13D299
:100BA000DBF1020189B20A20FFF736FDB8FBF0F055
:100BB0000A21B0FBF1F201FB1200303007EB0B0110
:100BC00048761BF1010BE8E75FF00009B9F1030F6C
:100BD00014D2D9F1020189B20A20FFF71DFD06994E
:100BE000B1FBF0F00A21B0FBF1F201FB1200303052
:100BF00007EB0901087719F10109E7E70A20B6FBBD
:100C0000F0F65FF0000ABAF1030F13D2DAF1020135
:100C100089B20A20FFF700FDB6FBF0F00A21B0FB15
:100C2000F1F201FB1200303007EB0A01C8771AF12C
:100C3000010AE8E75FF0000BBBF1030F15D2DBF10F
:100C4000020189B20A20FFF7E7FC0299B1FBF0F03C
:100C50000A21B0FBF1F201FB1200303007EB0B016F
:100C600081F822001BF1010BE6E75FF00009B9F102
:100C7000030F15D2D9F1020189B20A20FFF7CCFC8B
:100C80000399B1FBF0F00A21B0FBF1F201FB120075
:100C9000303007EB090181F8250019F10109E6E779
:100CA000DFF8E00A0068012806D15FF0310A002071
:100CB000DFF8601A086020E00398142805D3029832
:100CC000142802D35FF0320A05E05FF0300A0020FA
:100CD000DFF8401A08602B480168062909D32A4921
:100CE0000A68062A05D30A2202600A200860342016
:100CF00082460020DFF81C1A086087F828A0282107
:100D0000781CFFF75FFC83465846C0B20009FFF726
:100D10006DFC87F829001BF00F00FFF767FC87F8D0
:100D20002A00032087F82B000D2087F82C000A20CA
:100D300087F82D003800FFF78EFC0020206000208F
:100D4000124908700BB0BDE8F08F000000100140A0
:100D5000000C014000180140002E0020F42D00205E
:100D6000F02D0020C72E0020D82D00200C2E0020B2
:100D7000D42D0020CB2E0020D02D0020C52E002009
:100D8000CC2D0020F82D0020FC2D0020C82E0020A6
:100D9000142E0020E82D0020102E0020E42D00202D
:100DA000BF2E00202DE9F843DFF8DC492078002829
:100DB00000F0B7801E250F26DFF8480B00680028DA
:100DC00011D0C84F3868401C386038683100C9B24B
:100DD000884201D301F0C1FE3868FF2803D33000F8
:100DE000C0B2401C386032275FF00109FFF7B5F947
:100DF000012802D15FF0000801E05FF001084046E1
:100E0000C0B2002808D10020DFF8301A0870002096
:100E1000DFF82C1A08600EE0DFF8240A01683A00B7
:100E2000D2B2914203D20168491C016003E0012063
:100E3000DFF8081A087001F09AFA814601F09BFA6F
:100E40000100B9F1FA0F04D3B1F5AF7F01D301224C
:100E500000E00022B9F1640F03D2C82901D20123B6
:100E600000E00023012A17D1DFF8180900680028E4
:100E700012D1DFF8D009D0F800C0AC4505D301206D
:100E8000DFF8C4C98CF8000010E0D0F800C01CF1F5
:100E9000010CC0F800C009E00020DFF8A8C9CCF8B8
:100EA00000000020DFF8A0C98CF80000012B17D14A
:100EB000DFF8D0080068012812D1DFF89009D0F8D7
:100EC00000C0AC4505D30120DFF884C98CF80000D0
:100ED00010E0D0F800C01CF1010CC0F800C009E01F
:100EE0000020DFF868C9CCF800000020DFF860C9F6
:100EF0008CF80000DFF850090078012804D0DFF8F2
:100F000050090078012805D10120DFF8FCC98CF8D0
:100F1000000004E00020DFF8F0C98CF80000002099
:100F20002070BDE8F1830000CC2E0020CD2E0020E3
:100F3000B82E002000040040BA2E0020BC2E002055
:100F4000F8B5DFF8C8492078002847D006250026E4
:100F5000FFF740F9002801D1012006003000C0B29F
:100F600001280DD1DFF8A8090168A94203D2016860
:100F7000491C016011E00120DFF8081808600CE04E
:100F8000DFF88C190868002803D00868401E086044
:100F900003E00020DFF8EC1708600027FFF7FAF8FD
:100FA000002802D10120070013E0FFF7FBF800281A
:100FB00002D1022007000CE0FFF7FCF8002802D164
:100FC0000320070005E0FFF7FDF8002801D1042009
:100FD0000700DFF84009076000202070F1BD000025
:100FE000CA2E0020C92E0020302E002010B596A455
:100FF000200002F026FBDFF820090168DFF81C0959
:1010000002F01FFBDFF81839DFF81829DFF818099C
:101010000168DFF8180902F014FB200002F011FB50
:10102000DFF80C0902F00DFBDFF8080902F009FBFC
:10103000200002F006FB10BD342E0020882C00207A
:1010400080B500F0FEFEDFF8F00801F060F8DFF890
:10105000EC0801F05CF8DFF8E80801F058F801BD91
:10106000BE2E0020C82D002010B5DFF8D84820780B
:10107000002803D002F0CBFF0020207010BD00003C
:10108000502C0020CE2E0020382E0020FC2A0020DC
:10109000F8B50600DFF8B078FC223900012003F033
:1010A000E4FA0500002D09D03000C0B2012805D1B6
:1010B0002A003900DFF8800801F0B4F8FC2239007A
:1010C000032003F0D2FA0400002C09D03000C0B293
:1010D000012805D122003900DFF8640801F0A2F8E8
:1010E000F1BD00001C2E00200060EA46D02E00203A
:1010F000282E00206C2C0020CF2E00200448004019
:101100002DE9F34F87B00600150004A8DFF83C185E
:1011100091E81C0080E81C000627300002F070FAFD
:101120008046B8F1050F01D100241DE0B8F1040F8D
:101130000AD170788DF801009DF801002E2801D1A8
:10114000012411E000240FE0B8F1030F01D10124C4
:101150000AE0B8F1020F01D1022405E0B8F1010F55
:1011600001D1032400E0002400208DF8040001A830
:1011700000214170002181700021C17000210171A6
:101180005FF00009C14543D23900C9B28C423FD259
:1011900016F809108DF800109DF800102D3914D0A4
:1011A000491E22D0891E092906D9113919D0C91F13
:1011B0000FD00E3911D025E004A99DF8002011446C
:1011C00011F8301C0155641C1FE040210155641CBE
:1011D0001BE076210155641C17E03E210155641C7B
:1011E00013E077210155641C0FE0002C09D001A900
:1011F000214411F8011C51F0800101AA224402F897
:10120000011C02E000210155641C19F10109B9E734
:101210000898002813D0002D11D03800C0B28542A4
:1012200001D2AA4602E0BA465FFA8AFA01A8039000
:10123000DDF820B052460399584602F017F809B07D
:10124000BDE8F08F2C2E00200A0000002DE9F84F99
:1012500004000D005FF000085FF0000B002000901C
:10126000DFF8EC66300000F070FC070054EA080874
:1012700007F0FF0158EA010189B2300000F074FC68
:10128000DFF8CC93484600F060FC82462800C0B2EC
:101290005BEAC01B48F27F0111EA0A015BEA010127
:1012A00089B2484600F060FC0020009000981028A9
:1012B00003D20098401C0090F8E707F0FF013000CF
:1012C00000F052FC48F27F0111EA0A01484600F0A2
:1012D0004BFCBDE8F18F000030EBFFFF102D00202C
:1012E000F8B504000D001600002C02D0012C0FD020
:1012F0001CE000200700B74209D2E95D0120B84098
:10130000000210F47060FFF7A1FF7F1CF3E70DE00F
:1013100000200700B74209D2E95D0120B840000370
:1013200010F47040FFF792FF7F1CF3E7F1BD80B52A
:101330000120DFF8201608600422DFF81C160020C8
:10134000FFF7CEFF0422DFF814160120FFF7C8FFD5
:1013500001BD000000480040DFF8040601680129D3
:1013600009D10121DFF8FC25116000210160002076
:10137000DFF8F4150860704738B5DFF8F0452068ED
:10138000002822D00120DFF8CC150860DFF8E055F6
:101390004FF40041AE4800F0CAFB286028680128DD
:1013A00011D10120DFF8B8150860DFF8C805016821
:1013B000491C01600168052901D301210160002059
:1013C000DFF8A01508600020206031BD3C2E002011
:1013D000D12E00201C960008102C0020AC9500088F
:1013E0002C860008548600087C860008A486000825
:1013F000CC8600082DE9F84F8CB0DFF87C452068DA
:10140000002800F0EF800521002202AD280001F045
:1014100097FF052100226D46280001F091FF5FF043
:101420000A0A0025002600F09AFF0A21B0FBF1F01D
:101430000B9000F098FF0A21B0FBF1F00A9000F049
:1014400096FF0A21B0FBF1F0099000F094FF0A2109
:10145000B0FBF1F0089000F092FF01F07BFE8046B7
:101460004046DFF8181501F083FE02F077FC814654
:10147000484601F06FFE724901F07AFE069000F0D6
:1014800082FF07906D4840680590DFF88804006887
:101490000490DFF8E0743868012806D071D303287F
:1014A00039D01DD3042851D06BE00FF2642B0B9A76
:1014B000594602A803F0FAF802A802F0A1F80500C4
:1014C000562002A948550A9A5946684603F0EEF894
:1014D000684602F095F8060056206946885550E0A7
:1014E0000FF22C2B089A594602A803F0DFF802A845
:1014F00002F086F80500562002A94855099A594677
:10150000684603F0D3F8684602F07AF806005620E1
:101510006946885535E0059A7DA102A803F0C6F812
:1015200002A802F06DF80500079803F0DFF802004A
:101530000B00DFF84C14684603F0B8F8684602F078
:101540005FF806004820694688551AE0069803F0BF
:10155000CDF802000B00DFF8281402A803F0A6F86B
:1015600002A802F04DF80500412002A94855049A4E
:1015700067A1684603F09AF8684602F041F8060051
:10158000FFE70522DFF8D01302A8FFF7B9FD052217
:10159000DFF8C8136846FFF7B3FDDFF8B80300684B
:1015A000012814D13868012805D0DFF8BC03016890
:1015B000491C016003E00020DFF8AC130860DFF88D
:1015C000A8030068824506D20120386003E00020AD
:1015D000DFF8941308603868002801D101203860D2
:1015E000002020600DB0BDE8F08F0000302B0020FF
:1015F000202E002080B5DFF88C03002101708F4978
:101600000978012901D101210170BE490968042925
:1016100005D3BD490978012901D101210170007864
:10162000012803D10020FEF783FD02E00120FEF730
:101630007FFD01BDF4860008182E0020242D002017
:101640000000C84200080140242E0020D22E0020B5
:101650000018014010B50024CB4801F0F2FF4FF410
:101660008051CA4801F0EDFF14F580544021C8486C
:1016700001F0E7FF40342A21C64801F0E2FF2A3496
:10168000FC21C54801F0DDFFFC342A21C34801F0EC
:10169000D8FF2A34FC21C24801F0D3FFFC342A21B0
:1016A000C04801F0CEFF2A34FC21BF4801F0C9FF39
:1016B000FC344FF4FC71BD4801F0C3FF14F5FC7419
:1016C0004FF4FC71BA4801F0BCFF14F5FC744FF400
:1016D000FC71B84801F0B5FF14F5FC742021B64840
:1016E00001F0AFFF20349021B44801F0AAFF9034FC
:1016F000B021B34801F0A5FFB0341421B14801F086
:10170000A0FF14342100B04801F09BFF10BD000081
:1017100025640000402E002010B5FFF767FCAB48A1
:1017200001F08FFF02F048FA002801D1002028E0E4
:10173000A74801F086FF0121A64801F0B3FBA648A7
:1017400001F07FFF00F03CFB02F01AFB00F0C8FD47
:10175000A24801F076FF0120A1490870A14801F0DC
:1017600070FF0121A04801F09DFBA04C05227A49A1
:101770002000FFF7C5FC052278492000FFF7C0FCD8
:10178000012010BD042E0020C52E00201CB5984C51
:101790002A200090974BFC22974914F1280003F06F
:1017A00001F82A200090954BFC22954914F1500035
:1017B00002F0F8FF2A200090924BFC22924914F18B
:1017C000780002F0EFFF1E2000904FF4FC738F4A68
:1017D0000221594800F058FC1E2000904FF4FC7381
:1017E0008B4A0321554800F04FFC1E2000904FF417
:1017F000FC73884A0421524800F046FC4FF48050A4
:101800000090854B40228549200002F0CBFF03F079
:101810004BF813BD80B50020FEF794FC0020FEF7C6
:1018200087FC0120FEF7A0FC0120FEF7A8FC01BD0B
:1018300080B57B4801F005FF01BD0000C02E0020EF
:101840004C2E0020442E0020C22E0020482E0020C6
:10185000C32E00202DE9F84372480090724B2022DD
:101860000221724803F092F8264C2168704801F07A
:10187000E8FE01206F49087001F0DEFE25682E00A9
:1018800012275FF03008DFF8B09142463900484631
:1018900001F056FD206806000120FFF7F9FBFFF775
:1018A000CFFBFFF7E1FBFEF7A7FFFEF7C1FFFFF756
:1018B00079FAFFF745FBFEF7CEFDFEF7D5FFFFF700
:1018C00099FEFFF773F8FFF757FDFFF793FD02F05E
:1018D000F9FF2C480078012809D1584801780129DE
:1018E000D8D1002101704E4801F0ABFED2E7534938
:1018F00008780028CED101200870514801F0A1FEDF
:10190000C8E70000F42D0020C12E0020CB2E0020BF
:10191000502E0020082E00200C000020AC9600085D
:101920003496000828960008100000203C9000081B
:101930001485000800940008A42C0020C02C00206E
:10194000DC2C0020C62E0020BC260020409600087B
:101950000014014008000020B02D0020B82D002008
:1019600000000020142E0020EC2D0020102E00205E
:10197000542E0020040000200C2E002000002041E6
:10198000BC960008C42E0020189400081C8700088C
:10199000448700086C87000894870008BC8700080B
:1019A000E48700080C880008348800085C88000878
:1019B00084880008AC880008D4880008FC880008E7
:1019C000248900084C890008BC9500085C90000838
:1019D000B092000800080040209500082C8B0008F9
:1019E000BF2E002030940008000C0040C496000870
:1019F00068280020602B0020C82300208C2B0020AA
:101A0000C4240020B82B0020C0250020E81A0020A4
:101A1000E01C0020D81E0020980000207C2A002016
:101A20004C960008BC2A0020602D0020F82C0020D5
:101A3000508B0008BE2E0020102D002095000020A5
:101A4000CC950008F0B500220023002400250026D4
:101A5000002791F803C01CF00F0C91F803E05FEA37
:101A6000CE6E02D58A7852EA0C0C0A7812062AD079
:101A70000268160000221400082C23D25FF0010E29
:101A80001EFA04F215000A882A401300AB4217D14F
:101A9000A20015000F22AA401700BE431CFA05F24F
:101AA0001643CA78282A04D11EFA04FEC0F814E0AE
:101AB00006E0CA78482A03D11EFA04FEC0F810E0F6
:101AC000641CD9E706600A88B2F5807F2EDB426885
:101AD000160000221400082C27D25FF0010E14F12A
:101AE00008021EFA02F215000A882A401300AB42CF
:101AF00019D1A20015000F22AA401700BE431CFAFC
:101B000005F21643CA78282A04D114F108021EFAF5
:101B100002F24261CA78482A05D114F108021EFA7D
:101B200002FEC0F810E0641CD5E74660F0BD10B4BA
:101B30000200002390680C00A4B2204201D00120D2
:101B400000E00020C0B210BC7047806880B27047CF
:101B50001300DBB2002B03D00B009BB2036102E049
:101B60000B009BB2436170470A0092B2C26070479B
:101B7000F0B40022002300250027002802D5324CB3
:101B8000246801E0314C2468C0F3034586B210F4A8
:101B9000401CBCF5401F07D134F070642B4A176815
:101BA00037F07067176011E0C20206D50322AA4021
:101BB00013009C4354F0706408E00200520DD2B24E
:101BC000120116FA02F2944354F070640A00D2B281
:101BD000002A06D00200520DD2B2120116FA02F209
:101BE0001443002802D5184A146001E0174A146013
:101BF000F0BC7047F0B400230F2211F00304E4B2EC
:101C0000A40012FA04F4124D0A00D2B2921055F850
:101C10002220A2430E00F6B2B61045F826200A0094
:101C2000D2B2921055F822600700FFB211F0030201
:101C3000D2B2920097403E430A00D2B2921045F8C9
:101C40002260F0BC704700001C000140040001400D
:101C50000800014001600023436000230372002359
:101C6000437201238372C2600261704738B5040079
:101C70000D0025722800C0B2012803D100212000E8
:101C800000F001F831BD2DE9FC4104000D00A07AFF
:101C90002900C9B288423ED0A572206880B202F005
:101CA00098FF0600206880B202F098FF07002068C5
:101CB00080B202F099FF80462800C0B2012815D1F9
:101CC0004046C0B200903B00DBB23200D2B2216885
:101CD000DFF8940301F0B5FC00234246D2B239008C
:101CE000C9B23000C0B202F044F914E04046C0B2BC
:101CF00000903B00DBB23200D2B22168DFF86C0307
:101D000001F09FFC01234246D2B23900C9B2300033
:101D1000C0B202F02EF9BDE8F381807A704710B5A9
:101D20000400607A002819D0207A00280CD1E068DD
:101D30002169884203D2E068401CE0600CE0012188
:101D40002000FFF7A0FF07E00020E0600021200056
:101D5000FFF799FF002020720020607210BD012063
:101D6000C3490870704770B504000025200080B298
:101D700002F02FFF0600200080B202F02FFF0200C9
:101D80000321012E04D011D3032E0AD005D30DE078
:101D9000022A01D2501E010008E0022A00D21100DE
:101DA00004E0022A01D2501C0100FFE7032905D2FA
:101DB000B048302303FB01F318440500280070BD30
:101DC00038B50024032C3BD2AA48302101FB04F192
:101DD00008440500002C04D101202860601C6860C4
:101DE00010E0022C03D2022028606C600AE0032C71
:101DF00004D203202860601E686003E00020286091
:101E00000020686001226968286802F0D3FE0100A2
:101E10001E2289B215F10800FFF71CFF0020E860C0
:101E200002226968286802F0C5FE1E2280B2010005
:101E300015F11C00FFF70EFF00202862641CC1E7AB
:101E400031BD70B58A4C2078002833D00026032E8F
:101E50002ED28848302101FB06F1084405000120FC
:101E60006874012085F8250015F10800FFF757FF79
:101E700015F11C00FFF753FF15F10800FFF74DFFA8
:101E8000012806D10020E86001226968286800F076
:101E900091F815F11C00FFF740FF012806D1002042
:101EA000286202226968286800F084F8761CCEE770
:101EB0000020207070BDFEB50500A888FFF753FF15
:101EC0000400002C56D0A888A168884227D1E98850
:101ED000E06802F039FE01280AD1E888E0602800B5
:101EE00000F049F8012114F10800FFF7BFFE41E0BE
:101EF000A88802F079FE0600A88802F06FFE0700AD
:101F0000A88802F066FE0200E8880290E06801906E
:101F100000963B00A988584801F093FB2AE0A88866
:101F2000E169884226D1E988206A02F00DFE012885
:101F30000AD1E8882062280000F01DF8012114F180
:101F40001C00FFF793FE15E0A88802F04DFE060086
:101F5000A88802F043FE0700A88802F03AFEE9884C
:101F60000291216A019100963B000200A988424833
:101F700001F067FBF7BDF8B584B00400A08802F05B
:101F800028FE0500A08802F029FE0600A08802F0C5
:101F90002BFE07006069039020690290E0680190C1
:101FA000607A0090E3883A003100280001F05FFF7A
:101FB00005B0F0BD70B504000D0016003200290018
:101FC000200001F0FCFE70BDF0B587B02B4801F099
:101FD00038FB284C250095F82600002801D0202643
:101FE00000E04326A87C002801D0202700E04327FA
:101FF000286801F0D0FE03000696286A0590E8697B
:1020000004900397E8680290A868019068680090BF
:102010002A6800211A4801F014FB01F00DFB01268B
:10202000032E1ED2302000FB06F020440500A87CC1
:10203000002801D0202700E04327286801F0ABFEEC
:102040000397E9680291A96801916968009103000A
:102050002A6831000B4801F0F4FA01F0EDFA761C21
:10206000DEE707B0F0BD0000F48F00085C920008C6
:10207000D52E0020082900207885000898950008B2
:102080009C840008008600082DE9F04104000D0042
:1020900016001F00DDF818803A003100200002F021
:1020A000B2FD002801D100200BE0E5600020207483
:1020B000002060740120A074C4F81480C4F8188053
:1020C0000120BDE8F08138B504000D00257428001A
:1020D000C0B2012803D10021200000F001F831BD79
:1020E00038B504000D00A07C2900C9B288420DD08B
:1020F000A5742800C0B2012804D1E168434801F06A
:10210000A0FA03E0E168424801F09BFA31BD10B546
:102110000400607C002819D0207C00280CD1606964
:10212000A169884203D26069401C60610CE0012112
:102130002000FFF7D5FF07E00020606100212000AC
:10214000FFF7CEFF002020740020607410BD012036
:102150003049487401203049487401202F4948749F
:102160007047F8B504000D0016001F00E068801EDF
:10217000022805D83A003100280002F027FC01E0CF
:102180003E600020F2BD03000120704770B58AB0A8
:1021900004000D001600E068801E022832D803AA51
:1021A0003100280002F07DFC01282AD1BDF8100082
:1021B00002F00FFD012807D103A8FFF77CFE0121E3
:1021C0002000FFF780FF1CE0BDF8100002F001FDC9
:1021D000022807D103A8FFF76EFE01212000FFF7B8
:1021E00072FF0EE09DF81500029006980190BDF870
:1021F00010000090BDF812303200E168084801F08C
:1022000020FAFFE701200AB070BD0000E493000847
:1022100008950008A42C0020C02C0020DC2C0020F5
:10222000D48500082DE9FC4705000E0014005FF07E
:10223000000A002C33D022003100280002F023FDD8
:10224000280002F0EEFC0700280002F0E8FC8046BF
:10225000002824D06B46424639002800FFF781FF52
:1022600081464846C0B2012809D1009A39002800A9
:10227000FFF78CFF01280AD10120824607E0009871
:10228000002804D0009A39002800FFF77CFF00984E
:10229000002804D00099280002F0CDFCD4E7504675
:1022A000C0B2BDE8F68730B4002513E050F8042B27
:1022B000D30744BFA9F101039A18091F042942F862
:1022C000045BFAD213468C0744BF15809B1CC907D8
:1022D00048BF1D7050F8041B0029E7D130BC70477F
:1022E00070B520240025DFF898692A00210030000D
:1022F00001F026F870BD10B50121012002F0BEFDED
:10230000DFF88049200002F03DFEDFF87C19DFF89D
:102310007C090860DFF878094860002088600520A3
:10232000C86000200861802048614FF48070886197
:102330004FF48060C861202008624FF4005048626A
:1023400000208862200002F096FE01220221200077
:1023500002F0BEFE0121200002F0ABFE10BDDFF84E
:10236000340900687047DFF8300900687047DFF80B
:102370002C0900687047DFF8280900687047DFF80B
:10238000240900687047DFF82009006870472DE9CC
:10239000F34F89B00020079000200690002400260B
:1023A0005FF000095FF0000B002005900020049012
:1023B0000020039000200290002000900020019057
:1023C0009DF82400012840F027810A200500BE2D39
:1023D00006D2DFF8D80830F8150004196D1CF6E7AE
:1023E000B420B4FBF0F00790DFF8C488D8F8000000
:1023F0000528C0F08480DFF8BCA8DAF800000521C9
:10240000B0FBF1F0CAF80000DAF800008146484657
:1024100002F0A4FE5FF06632DFF89C3802F0ACFEFA
:102420000022DFF8983802F079FF03F09BF8DFF81C
:10243000901808600020009040F63500814508D3D0
:10244000A9F634001221B0FBF1F10A2041430091BA
:1024500025E040F2B140814521D240F2592081452A
:1024600008D2D9F57A700921B0FBF1F10A20414375
:10247000009114E040F28530814508D2D9F57A7098
:102480000721B0FBF1F10A204143009107E0D9F5A3
:1024900096600721B0FBF1F10A20414300914846C4
:1024A00000F058FEDFF81C1800F062FE0590059859
:1024B00002F01CF9DFF81028DFF8103803F086F876
:1024C00003F050F80490484600F044FE049900F0F0
:1024D0004FFEDFF8FC1701F0D5FBDFF8F81700F02E
:1024E00047FE01F03BFC00990818DFF8A8170860C8
:1024F0000020C8F800000020CAF800000AE0DFF859
:10250000B4170A68079882180A60D8F80000401CBF
:10251000C8F8000078200700BE2F06D2DFF8B80701
:1025200030F8170086197F1CF6E74620B6FBF0F05E
:102530000690DFF8A887D8F80000052860D3DFF8F8
:10254000A0A7DAF800000521B0FBF1F0CAF80000FE
:10255000DAF800008346584602F000FE5FF066326B
:10256000DFF8543702F008FE0022DFF8503702F09F
:10257000D5FE02F0F7FFDFF86C170860BBF57A7F35
:1025800006D2DBF57A7149090A20414301910BE03B
:1025900040F6C410834507D3ABF6C4101C21B0FB32
:1025A000F1F10A2041430191584600F0D3FDDFF8D4
:1025B000381700F0DDFD0390039802F097F85FF004
:1025C0006632DFF8283703F001F802F0CBFF029003
:1025D000584600F0BFFD029900F0CAFDDFF8F4167E
:1025E00001F050FB01F0BAFB01990818DFF8A816BA
:1025F00008600020C8F800000020CAF800001DE0B4
:10260000DFF8DC160A68069882180A60D8F800001D
:10261000401CC8F8000011E0DFF874060188DFF8FC
:102620008C260A9B02EB430222F8021C4088DFF84A
:10263000A8160A9A01EB420121F8020C0BB0BDE882
:10264000F08F2DE9F34F83B000200190002000901F
:10265000002400265FF0000B5FF0000A9DF80C00DC
:10266000012840F027813C200500B5F5257F06D2E2
:10267000DFF87C0630F8150004196D1CF5E74FF4FF
:102680001670B4FBF0F00190DFF86886D8F800000F
:10269000022870D3DFF86096D9F800004008C9F826
:1026A0000000D9F800008346584602F057FD5FF05D
:1026B0006632DFF8043602F05FFD0022DFF8FC35F9
:1026C00002F02CFE02F04EFFDFF830160860DFF853
:1026D000CC150B20BBFBF0F20A2042430A600868CD
:1026E000962807D20A686E2042436420B2FBF0F0BD
:1026F000086039E0086896280AD30868FA2807D2E3
:102700000A686A2042436420B2FBF0F008602BE0C4
:102710000868FA280BD30868B0F5AF7F07D20A68BB
:10272000642042436420B2FBF0F008601CE00868BB
:10273000B0F5CD7F0CD3086840F22722904207D233
:102740000A68602042436420B2FBF0F008600BE0AE
:10275000086840F22722904206D30A685A20424372
:102760006420B2FBF0F008600020C8F800000020F0
:10277000C9F800000AE0DFF880150A68019882189D
:102780000A60D8F80000401CC8F8000000200700CC
:10279000B7F5257F06D2DFF8680530F817008619EF
:1027A0007F1CF5E74FF42570B6FBF0F00090DFF8E2
:1027B0005485D8F80000022870D3DFF84C95D9F87A
:1027C00000004008C9F80000D9F8000082465046D1
:1027D00002F0C4FC5FF06632DFF8DC3402F0CCFCBF
:1027E0000022DFF8D83402F099FD02F0BBFEDFF8DA
:1027F0001C150860DFF8A8142220BAFBF0F20A20AA
:1028000042430A600868962807D20A686C2042434F
:102810006420B2FBF0F0086039E0086896280AD31B
:102820000868FA2807D20A68682042436420B2FB8D
:10283000F0F008602BE00868FA280BD30868B0F5C0
:10284000AF7F07D20A68622042436420B2FBF0F0F7
:1028500008601CE00868B0F5CD7F0CD3086840F232
:102860002722904207D20A685D2042436420B2FBCF
:10287000F0F008600BE0086840F22722904206D38F
:102880000A685A2042436420B2FBF0F0086000203E
:10289000C8F800000020C9F800001DE0DFF8681447
:1028A0000A68009882180A60D8F80000401CC8F82E
:1028B000000011E0DFF8D8038188DFF83424049B9E
:1028C00002EB430222F8021CC088DFF83414049A99
:1028D00001EB420121F8020C05B0BDE8F08F0120A8
:1028E000DFF82C140870704780B500F001F801BDC6
:1028F0002DE9F84FDFF818140878002800F09580CB
:1029000000245FF00008002000905FF0000B5FF0F3
:10291000000ADFF80054286832287CD300202860A1
:102920000020087005200600322E0CD2DFF8E803E4
:1029300030F81610424692B2914202D330F8160097
:102940008046761CF0E7DFF8D4733878052855D335
:10295000DFF8CC93D9F800000521B0FBF1F00400BA
:10296000200002F0FBFB5FF06632DFF84C3302F030
:1029700003FC0022DFF8443302F0D0FC02F0F2FD49
:10298000DFF8A0130860002038700020C9F80000AC
:1029900040F6C510844209D3462000FB04F06421B0
:1029A000B0FBF1F0DFF8FC12086031E040F2DD51DD
:1029B0008C420BD3844209D24A2000FB04F06421EC
:1029C000B0FBF1F0DFF8DC12086021E040F2F51016
:1029D00084420AD38C4208D24C2000FB04F06421CC
:1029E000B0FBF1F0AF49086012E04F2000FB04F0AB
:1029F0006421B0FBF1F0AB49086009E0DFF8201377
:102A00000A68404680B282180A603878401C3870E4
:102A10000020286009E09E480089DFF8FC122A683F
:102A200021F812002868401C2860BDE8F18FF8B535
:102A30000400002020720020E0711425002614F10B
:102A40000C0732002900380000F07AFC002096497B
:102A50000860F1BDF8B504000D000026E0780128FB
:102A600014D100273800C0B205280AD23800C0B2FD
:102A700004EB80008068310002F066FE06007F1CD7
:102A8000F0E73000A84900F073FB1BE00027380096
:102A9000C0B22900C9B2491C88420ADA3800C0B263
:102AA00004EB80008068310002F04EFE06007F1CBF
:102AB000EDE72800C0B2401C02F0B8FE0100300073
:102AC00000F056FB78490860F1BD38B50400974D19
:102AD000287905280BD2287905EB800084602979B4
:102AE0002800FFF7B7FF2879401C28710AE02879F1
:102AF000052807D3002028710120E87029792800D3
:102B0000FFF7A8FF31BD70B588B0040001A8211DF2
:102B10001C2200F0BBFB9DF8080000909DF80730D8
:102B20009DF806209DF80510814800F08AFD0525D6
:102B30000026AE420DD201A800EB8600806801F0AD
:102B4000D5FD02000B0031007A4800F07AFD761CBA
:102B5000EFE700F071FD08B070BD10B5484C0020E3
:102B60004C49086000204C49086000204B4908602F
:102B700000204B49086000204A49086000204A496B
:102B800008602000FFF753FF00205C490860002028
:102B90005E49086000204A490860002051490860E9
:102BA00000206049086010BD80B5634800F049FD11
:102BB0003A4800680A21B0FBF1F1604800F041FD9D
:102BC000374800680A21B0FBF1F15D4800F039FD9B
:102BD000304800680A21B0FBF1F15A4800F031FD9D
:102BE0002D4800680A21B0FBF1F1574800F029FD9B
:102BF0002C4800680A21B0FBF1F1544800F021FD97
:102C0000534800F01EFD3D48006801F06FFD0200D2
:102C10000B00504800F015FD3C48006801F066FDCF
:102C200002000B004C4800F00CFD2548006801F044
:102C30005DFD02000B00494800F003FD29480068D3
:102C400001F054FD02000B00454800F0FAFC354845
:102C5000006801F04BFD02000B00424800F0F1FC5F
:102C600001BD10B5064C404800F0EBFC21783F4810
:102C700000F0E7FC2000FFF746FF10BD0000000059
:102C8000302C002008000240E42B00204C2401409E
:102C9000802D0020582E00205C2E0020602E002069
:102CA000642E0020682E00206C2E0020D0200020F2
:102CB000842E00208C2E002066660A4000FEAF4065
:102CC000782E00200000C8449A9999999999054056
:102CD0000000D242000020414C220020882E00201B
:102CE000902E00207C2E00200000E14366661E40EE
:102CF00098100020942E00209C2E0020702E002082
:102D0000C0150020982E0020A02E0020742E002038
:102D1000D32E0020A42E0020182A0020D42E00201C
:102D2000A82E0020802E00200000A040342C00207F
:102D30001084000804930008209300089C90000869
:102D4000BC900008DC900008FC9000083C93000850
:102D5000748900081C9100083C910008988B0008B9
:102D6000BC8B0008E08B00084895000848940008D8
:102D700010B400220488474B98420FD0DFF8542249
:102D800090420BD0B0F1804F08D0434A904205D01A
:102D9000424A904202D0424A904204D14FF68F728A
:102DA00014404A881443DFF82422904208D0DFF808
:102DB0002022904204D04FF6FF421440CA881443A8
:102DC00004808A8882850A88028598420FD0DFF8BD
:102DD000042290420BD0DFF87422904207D0DFF833
:102DE000E422904203D0DFF85423904201D10A7AC2
:102DF00002860122828210BC704738B504000D00A3
:102E0000244884420FD0DFF8CC0184420BD0B4F1C7
:102E1000804F08D02048844205D02048844202D008
:102E20001F48844200D1FFE7288800280AD12B8957
:102E3000AA886988200000F094F8E988200000F052
:102E40004CF825E0288804280AD12B89AA886988AB
:102E5000200000F0C1F8E988200000F047F817E0F2
:102E6000288808280AD12B89AA886988200000F0C0
:102E7000EFF8E988200000F043F809E02B89AA88E0
:102E80006988200000F020F9E988200000F041F86E
:102E900031BD0000002C014000040040000800404B
:102EA000000C00400A00D2B2002A04D0028852F07E
:102EB0000102028004E003884FF6FE721340038093
:102EC00070471300DBB2002B03D083890B4383814F
:102ED00002E083898B4383817047038B4FF6F37243
:102EE00013400383028B0A4302837047038B4FF224
:102EF000FF3213400383028B52EA012202837047A0
:102F0000838B4FF6F37213408383828B0A43828351
:102F10007047838B4FF2FF3213408383828B52EAD8
:102F2000012282837047008F7047F0B402000023B3
:102F300000260024178A0F4095890D40380080B282
:102F4000002805D0280080B2002801D0012000E030
:102F50000020C0B2F0BC70470A0092B2D243028295
:102F60007047F0B400275FF0000C058C4FF6FE743C
:102F700025400584068B058C4FF60C74264052EADA
:102F8000031426436F4CA0420ED0124CA0420BD02B
:102F9000B0F1804F08D06C4CA04205D06B4CA042E1
:102FA00002D06B4CA04206D14FF6FD74254051F083
:102FB0000104254305E04FF6F574254051F0010466
:102FC000254306830584F0BC7047000000100040D4
:102FD00000140040003401402DE9F0415FF0000C86
:102FE0005FF0000E5FF00008058C4FF6EF7425408F
:102FF0000584058B068C0F0140F6FF44254055EAF9
:10300000033555EA02254F4CA0420ED04C4CA0424D
:103010000BD0B0F1804F08D04B4CA04205D04B4CA8
:10302000A04202D04A4CA04206D14FF6DF7426409F
:1030300057F01004264305E04FF65F74264051F028
:103040001004264305830684BDE8F081004001405A
:103050002DE9F0415FF0000C5FF0000E5FF000081A
:10306000058C4FF6FF6425400584858B068C0F0286
:103070004FF60C74254052EA03142543314CA0420C
:103080000ED02F4CA0420BD0B0F1804F08D02E4C68
:10309000A04205D02D4CA04202D02D4CA04206D11A
:1030A0004FF6FF54264057F48074264305E04FF254
:1030B000FF54264051F48074264385830684BDE87E
:1030C000F0810000004401402DE9F0415FF0000C68
:1030D0005FF0000E5FF00008058C4EF6FF7425408F
:1030E0000584858B068C0F0340F6FF44254055EA86
:1030F000022555EA0335134CA0420ED0104CA042D5
:103100000BD0B0F1804F08D00F4CA04205D00F4C2F
:10311000A04202D00E4CA04206D14DF6FF742640CC
:1031200057F48054264305E047F6FF54264051F4F7
:103130008054264385830684BDE8F0810048014021
:1031400000340140002C0140000400400008004011
:10315000000C004000280AD0B0FA80F18840D1F17C
:103160009D01C905020672F1004241EB1020704733
:1031700010B5FF2313EAD0541DBF13EAD1529C426D
:103180009A4239E0A41ADA0780EA0103134042EABE
:10319000012142EA0020421A3CBF641E01EB4202B8
:1031A000090AB2FBF1FE01FB1E221202B2FBF1F092
:1031B00001FB10226EF30F201202B2FBF1FE4EEA69
:1031C00000207F3406DDFE2C24DA53EA500050EB59
:1031D000C45010BDD4F1020401FB1E2240F08071E6
:1031E000192C1DDC21FA04F0C4F12004A140114384
:1031F00071F10042584110BD9C421ABF03EAD152FE
:103200009A420FE080EA010E0EF00043400004D025
:10321000490016D143F0FF4010BD490008BFD34319
:10322000180010BD9C4205D1D21AF7D001F0004120
:10323000484010BD4A0212BF0846484000F0004016
:1032400010BD4AB90902B1FA81F2914044B1A41803
:10325000C00140F000409EE7C90141F000415242E8
:103260000002B0FA80F4A040141B94E762B38B070D
:1032700008D0521E11F8013B00F8013B00F02480F9
:103280008B07F6D1830740F0208000BF103A07D3A8
:1032900030B4B1E83810103AA0E83810F9D230BC98
:1032A000530724BFB1E80810A0E8081044BF51F844
:1032B000043B40F8043BD20724BF31F8022B20F82E
:1032C000022B44BF0B7803707047121F17D35B00AB
:1032D00009D151F8043B20F8023B1B0C121F20F8C7
:1032E000023BF6D20BE051F8043B00F8013B1B0A0D
:1032F00020F8023B1B0C121F00F8013BF3D238BF31
:10330000121D521E24BF11F8013B00F8013BF8D8F2
:10331000704730B40EE00268436802440830DC07AE
:1033200044BFA9F10104E31852F8045B43F8045BBD
:10333000091FF9D150F8041B0029ECD130BC7047AB
:1033400062F30F2262F31F42401810F0030308D00B
:10335000C91A1FD3DB0748BF00F8012D28BF20F88A
:10336000022D130030B414461546103928BF20E949
:103370003C00FAD8490728BF20E90C0048BF40F8B4
:10338000042D890028BF20F8022D48BF00F8012D28
:1033900030BC7047C91818BF00F8012DCB0728BFF3
:1033A00000F8012D70478268521C8260426832B179
:1033B0000268531C036011704168491E41607047E8
:1033C0002DE9F84F86B004000D00002600275FF0BD
:1033D00000085FF000095FF0000AA8890028A346F2
:1033E000218A4CF6FF700140E88801430091009863
:1033F0002082A1894EF6F3100140AA882889024351
:1034000068890243114300910098A081A18A4FF678
:10341000FF400140A889014300910098A08201A8C3
:1034200001F0C0FC1C48834501D1049900E00399D8
:10343000A089000407D5192000FB01F02A6852007A
:10344000B0FBF2F206E0192000FB01F02A689200BE
:10345000B0FBF2F26420B2FBF0F6360133001B0938
:10346000642000FB1323A089000408D5D800323063
:103470006427B0FBF7F010F00700064307E01801DF
:1034800032306427B0FBF7F010F00F0006432681BE
:1034900007B0BDE8F08F0000003801400A00D2B24A
:1034A000002A04D0828952F40052828104E0838988
:1034B0004DF6FF721340838170472DE9F0410023E0
:1034C000002500275FF0000E0C0040F66A16A4B23B
:1034D000B44280460C00E4B26409E4B20E00B6B215
:1034E00016F01F065FF0010C1CFA06FC012C02D13D
:1034F00018F10C0806E0022C02D118F1100801E0C6
:1035000018F114081300DBB2002B06D0D8F80030F5
:103510005CEA0303C8F8003005E0D8F8003033EA6D
:103520000C03C8F80030BDE8F0811300DBB2002BBB
:1035300003D0838A0B43838202E0838A8B43838296
:1035400070478088C005C00D704702000023080046
:1035500080B2B0F5007F1088084201D0012000E061
:103560000020C0B27047F0B4040000270020002201
:1035700000260B0040F66A159BB2AB420D00EDB27F
:103580006D09EDB20B009BB213F01F035FF0010C4D
:103590001CFA03F3012D02D1A089034006E0022D9D
:1035A00002D1208A034001E0A08A03400A0092B2BF
:1035B000120A92B21CFA02F220880240002B03D0B9
:1035C000002A01D0012000E00020C0B2F0BC70470A
:1035D00070B4002200240B0040F66A159BB2AB4287
:1035E0000B009BB21B0A01259D402E00B6B2F6438C
:1035F000068070BC70470268531C036011707047EE
:1036000000F10103810704D010F8011B820781B18A
:10361000FAD10268A2F10131914311F0803104BF67
:1036200050F8042FF6E709BAB1FA81F100EBD100A6
:10363000401CC01A70473F0080B5002001F027F8F9
:1036400001BD0EB4F0B5C0B004004FF4807100228B
:103650006D462800FFF774FEFF2645AF3B002200B1
:103660003100684602F0F4F80500012D07DB002068
:10367000694648552A006946002000F0D7FF40B04F
:10368000F0BC5DF810FB10B5DFF848432000FFF7F1
:10369000D8FFDFF84403FFF7D4FF2000FFF7D1FF86
:1036A0000421CE48FFF7CDFF0121CD48FFF7C9FF28
:1036B0000421CC48FFF7C5FF0221CB48FFF7C1FF2B
:1036C0000421CA48FFF7BDFF0421C948FFF7B9FF2D
:1036D0000821C848FFF7B5FF0821C748FFF7B1FF29
:1036E0000421C648FFF7ADFF69A42000FFF7A9FF3A
:1036F0000421C348FFF7A5FF2000FFF7A2FF042124
:10370000C048FFF79EFF0421BF48FFF79AFF012141
:10371000BE48FFF796FF0221BD48FFF792FF042144
:10372000BC48FFF78EFF0821BB48FFF78AFF012145
:10373000BA48FFF786FF0221B948FFF782FF04214C
:10374000B848FFF77EFF0821B748FFF77AFF20004F
:10375000FFF777FF0421B548FFF773FF0821B4484E
:10376000FFF76FFF0421B348FFF76BFF0821B24852
:10377000FFF767FF2000FFF764FF0121AF48FFF765
:1037800060FF0121AE48FFF75CFF0221AD48FFF763
:1037900058FF0421AC48FFF754FF2000FFF751FF0A
:1037A0000121AA48FFF74DFF0121A948FFF749FF72
:1037B0000421A848FFF745FF0421A748FFF741FF70
:1037C0002000FFF73EFFA548FFF73BFFA448FFF7A7
:1037D00038FFA448FFF735FFA348FFF732FFA3489F
:1037E000FFF72FFF0821A248FFF72BFF2000FFF76C
:1037F00028FF2000FFF725FF10BD70B586B09D485B
:10380000039005A89C490A68026004A89B490A68BD
:103810000260042403AD02AE220029003000FFF74D
:1038200025FD6C4E3000FFF70CFF9548FFF709FFB0
:103830003000FFF706FF9DF80B0001909DF80A008D
:1038400000909DF809309DF8082003998D48FFF7F6
:10385000F8FE042205A902A802F018F8002803D1F6
:103860008948FFF7EEFE0DE0042204A902A802F049
:103870000DF8002803D18548FFF7E3FE02E08448F5
:10388000FFF7DFFE02A0FFF7DCFE06B070BD000010
:103890000D0A00002DE9F84185B04E4C2000FFF7DD
:1038A000D0FE7C48FFF7CDFE2000FFF7CAFE0025C2
:1038B00055F00105B5F1004F03D17748FFF7C1FE80
:1038C00008E0012D03D17548FFF7BBFE02E0744804
:1038D000FFF7B7FE29007348FFF7B3FE0026002765
:1038E0000020ADF810000020ADF80C0000208DF88D
:1038F000080000208DF8040056F0004657F001073C
:10390000049850F400400490039850F00100039094
:10391000029850F080000290019850F00100019050
:1039200031006148FFF78DFE39006048FFF789FEDE
:10393000BDF810105E48FFF784FEBDF80C105D481E
:10394000FFF77FFE9DF808105B48FFF77AFE9DF8B1
:1039500004105A48FFF775FE06240020ADF8000059
:10396000200080B2009960F38A210091BDF8000028
:10397000002803D15248FFF764FE02E05148FFF7E8
:1039800060FE5FF005080020ADF80000404680B200
:10399000009960F38A210091BDF80000B0F5806FB6
:1039A00003D14948FFF74DFE02E04848FFF749FEC2
:1039B00000200099C1F38024210089B2012903D19C
:1039C0004348FFF73EFE02E04248FFF73AFE06B0EA
:1039D000BDE8F081C0830008DC950008048C000875
:1039E000288C00084C8C0008708C0008948C00080F
:1039F000B88C0008DC8C0008008D0008248D0008BD
:103A00009C890008488D00086C8D0008908D000886
:103A1000B48D0008D88D0008FC8D0008208E0008A9
:103A2000448E0008688E00088C8E0008C489000847
:103A3000EC890008148A00083C8A0008648A00089F
:103A40008C8A0008B48A0008DC8A0008B08E00085E
:103A5000D48E0008F88E00081C8F0008408F0008E4
:103A6000648F0008888F0008AC8F0008D08F000892
:103A7000A8850008785634122C9700083097000863
:103A8000EC950008DC840008589300087493000843
:103A90005C910008FC9500087C9100089093000858
:103AA000AC930008588400089C910008BC91000861
:103AB000DC910008FC9100081C9200083C92000870
:103AC000609400087894000890940008A894000876
:103AD000C0940008D894000880B5FFF7D4FDFFF724
:103AE0008CFEFFF7D7FE01BD30B40100002001239A
:103AF0000022042A0ADA00180C00A4B21D00ADB29C
:103B00002C4200D0401CDB18521CF2E780B230BCC3
:103B100070472DE9F84F0024002500260027514862
:103B2000FEF713F8C04310F03C00ADF80000BDF8FC
:103B30000000C0F383084C48FEF707F883467FEA8D
:103B40000B0B1BF00F0B1BF00F09404680B2FFF769
:103B5000CBFF8246484680B2FFF7C6FF43490122A9
:103B60000A60524692B2120112F0F00203009BB2B8
:103B700013F00F031A434A60BDE8F18F10B53C48BB
:103B8000FFF75FFDFFF7C5FF384C61683948FFF765
:103B900058FDA06800F0FFF80200A1683648FFF762
:103BA00050FDE1683548FFF74CFD21693448FFF7C7
:103BB00048FDFFF741FD10BDF8B5142500262B4C3C
:103BC0002700320029003800FFF7BAFBFFF7A1FFFA
:103BD0006068E060206820610220A060E068002842
:103BE00001D100203CE0A068012804D035D303288F
:103BF00023D010D331E0E068022801D300202FE069
:103C0000E068022801D300202AE02069032801D3BC
:103C1000002025E023E0E068B0F5807F01D300209C
:103C20001EE06068B0F5807F01D3002018E02069B5
:103C3000022801D3002013E011E0E068022801D33C
:103C400000200DE0E068022801D3002008E0206990
:103C5000022801D3002003E001E0002000E0012061
:103C6000F2BD00000018014000100140242D00208A
:103C700034950008748B00087C900008CC920008F2
:103C8000E8920008FF2212EAD05C1DBF12EAD1536D
:103C9000944593422BE09C44D30780EA01021A40EA
:103CA00043EA002043EA0121A1FB0030C04238BFB3
:103CB00040007CF17F010BDBFE294ADA5B0842EA17
:103CC000C15153EA006373F1004C51EB102070476F
:103CD000D1F1080CDCF120012FDB5B0810FA01F1B7
:103CE0000B4320FA0CF073F10041504170479445AA
:103CF0001CBF02EAD153934280EA010202F0004263
:103D00001DD0400019D0490017D05BB9634514D0CD
:103D10000902B1FA81F39940BCEB030CC00140F0F9
:103D20000040C1E70002B0FA80FC10FA0CF0B3EBDF
:103D30000C0CC90141F00041B6E71000704740008B
:103D40000AD0490008D010F1807F94BF11F1807F24
:103D500002E042F0FF407047D043704700180CD299
:103D6000010E7F3909D4D1F11F015DBFC00140F0C0
:103D70000040C8406FF0000070470020704700000E
:103D800070B5B0240025DFF8CC672A002100300090
:103D9000FFF7D6FA70BD0100012904D00CD3032926
:103DA00007D003D308E0DFF8B00707E0DFF8AC077F
:103DB00004E0DFF8AC0701E0DFF8A80770472DE961
:103DC000F84F05000C001600012D04D04DD3032D33
:103DD00034D01CD349E0002C18D0022C16D2601E1F
:103DE0008246012E02D15FF0000B01E05FF0010B73
:103DF000DFF86007582101FB0AF108442C2101FB80
:103E00000BF108440700380000F00EFA2DE0002CFA
:103E100013D0022C11D2601E8246002083462C2033
:103E2000DFF8301700FB0AF2114400FB0BF00844E6
:103E300058308046404600F003FA16E0002C13D0BC
:103E4000022C11D2601E8246002083462C20DFF80F
:103E5000041700FB0AF2114400FB0BF00844843005
:103E60008146484600F0F8F9FFE7BDE8F18F2DE9FB
:103E7000F14F86B00C0015001E00109FDDF8448045
:103E8000DDF84890DDF84CA00698012804D06DD3E9
:103E9000032848D024D369E0002C20D0022C1ED265
:103EA000601E0290012D02D15FF0000B01E05FF077
:103EB000010BDFF8A016029A5820424301EB0200E2
:103EC0002C2101FB0BF10844059005980190CDF8D9
:103ED00000A04B4642463900300000F0CAF845E0E9
:103EE000002C1FD0022C1DD2601E0290012D02D189
:103EF0005FF0000B01E05FF0010B2C20DFF854169F
:103F0000029A4243114400FB0BF0084458300490DD
:103F100004980190CDF800A04B464246390030008D
:103F200000F0D5F822E0002C1FD0022C1DD2601E1C
:103F30000290012D02D15FF0000B01E05FF0010B58
:103F40002C20DFF81016029A4243114400FB0BF0BC
:103F500008448430039003980190CDF800A04B46AC
:103F600042463900300000F0E0F8FFE707B0BDE856
:103F7000F08FF0B4012804D047D303282ED016D3F5
:103F800043E0002912D0022910D24E1E3400012A2B
:103F900001D1002500E00125DFF8B865582707FBAF
:103FA00004F73E442C2707FB05F7F3552DE00029C5
:103FB00013D0022911D24E1E3400012A01D100254E
:103FC00000E001252C26DFF88C7506FB04FC674415
:103FD00006FB05F63E4486F8583016E0002913D05B
:103FE000022911D24E1E3400012A01D1002500E021
:103FF00001252C26DFF85C7506FB04FC674406FBF4
:1040000005F63E4486F88430FFE7F0BC704770B593
:104010000024002C10D15825DFF8386505FB04F08A
:10402000304400F0B0F805FB04F506EB05002C3039
:1040300000F0A9F8641CECE70025002D0AD1DFF898
:1040400014052C2101FB05F10844583000F0B6F8A6
:104050006D1CF2E70024002C0AD1DFF8F8042C21B3
:1040600001FB04F10844843000F0C3F8641CF2E75B
:1040700070BD2DE9F34F83B014001D000E9E0F9FFD
:104080000498012820D103987860FC60387C0128CE
:104090001AD01B2E02D35FF01A0800E0B0465FF082
:1040A0001A095FF0000A17F1110B524649465846AB
:1040B000FFF746F9CDF80480009517F1110B019A2E
:1040C00000995846FFF7D2F805B0BDE8F08F2DE90A
:1040D000F34F83B014001D000E9E0F9F049802281A
:1040E00020D103987860FC60387C01281AD01B2E00
:1040F00002D35FF01A0800E0B0465FF01A095FF0E3
:10410000000A17F1110B524649465846FFF718F9B5
:10411000CDF80480009517F1110B019A00995846CB
:10412000FFF7A4F805B0BDE8F08F2DE9F34F83B099
:1041300014001D000E9E0F9F0498032820D10398A1
:104140007860FC60387C01281AD01B2E02D35FF007
:104150001A0800E0B0465FF01A095FF0000A17F194
:10416000110B524649465846FFF7EAF8CDF804804D
:10417000009517F1110B019A00995846FFF776F850
:1041800005B0BDE8F08F10B50400A068E168884272
:104190000FD12078012805D101202074200000F0E3
:1041A00043F80AE0002020740020A0600020E060B6
:1041B00003E000202074E068A06010BD10B504008A
:1041C000A068E16888420FD12078012805D101203C
:1041D0002074200000F034F80AE000202074002051
:1041E000A0600020E06003E000202074E068A06090
:1041F00010BD10B50400A068E16888420FD1207896
:10420000012805D101202074200000F025F80AE0E3
:10421000002020740020A0600020E06003E0002067
:104220002074E068A06010BDF8B504001A250026CF
:1042300014F11107320029003800FFF781F8F1BDB1
:10424000F8B504001A25002614F1110732002900E0
:104250003800FFF775F8F1BDF8B504001A250026FF
:1042600014F11107320029003800FFF769F8F1BD99
:1042700070B59AB004000D0016003078002801D007
:10428000432300E0202396F82A00199096F829008D
:10429000189096F82800179096F82700169096F830
:1042A0002600159096F82500149096F82400139097
:1042B00096F82300129096F82200119096F82100AB
:1042C000109096F820000F90F07F0E90B07F0D9028
:1042D000707F0C90307F0B90F07E0A90B07E09903A
:1042E000707E0890307E0790F07D0690B07D05903E
:1042F000707D0490307D0390F07C0290B07C019042
:10430000707C00902A0021009748FFF79AF91AB0B4
:1043100070BD70B59AB004000D001600307800280A
:1043200001D0432300E0202396F82A00199096F844
:104330002900189096F82800179096F827001690F4
:1043400096F82600159096F82500149096F824000B
:10435000139096F82300129096F82200119096F888
:104360002100109096F820000F90F07F0E90B07F03
:104370000D90707F0C90307F0B90F07E0A90B07E95
:104380000990707E0890307E0790F07D0690B07D99
:104390000590707D0490307D0390F07C0290B07C9D
:1043A0000190707C00902A0021006F48FFF749F9C6
:1043B0001AB070BD70B59AB004000D0016003078C8
:1043C000002801D0432300E0202396F82A0019900A
:1043D00096F82900189096F82800179096F827006C
:1043E000169096F82600159096F82500149096F8E9
:1043F0002400139096F82300129096F82200119052
:1044000096F82100109096F820000F90F07F0E9003
:10441000B07F0D90707F0C90307F0B90F07E0A90F3
:10442000B07E0990707E0890307E0790F07D0690F7
:10443000B07D0590707D0490307D0390F07C0290FB
:10444000B07C0190707C00902A0021004748FFF763
:10445000F8F81AB070BD2DE9FE4FFCF79AFA070084
:104460004348FFF7EEF839004248FFF7EAF8002426
:10447000002C2ED10FF2D0094846FFF7E2F85FF08A
:10448000580ADFF8D0B00AFB04F00BEB00052A0055
:1044900001212000FFF7ECFE2CA0FFF7D2F80FF26D
:1044A000B0084046FFF7CDF84846FFF7CAF80AFBC8
:1044B00004FA0BEB0A002C300190019A0221200033
:1044C000FFF7D6FE4046FFF7BCF8FFF7B5F8641CCF
:1044D000CEE72948FFF7B5F80025002D15D11AA021
:1044E000FFF7AFF81B482C2101FB05F108445830B9
:1044F0000090009A01212800FFF70BFF14A0FFF79E
:10450000A0F8FFF799F86D1CE7E71C48FFF799F84A
:104510000024002C15D10CA0FFF793F80D482C2196
:1045200001FB04F108448430060032000121200020
:10453000FFF740FF06A0FFF784F8FFF77DF8641C43
:10454000E7E7BDE8F78F000009000000202F2000FA
:104550000A000000B8270020709600087C9600082A
:10456000889600081C970008F881000890820008CF
:1045700070950008C893000894960008F09400080D
:1045800070B504004748282101FB04F100EB010548
:10459000454850F8240086883100C9B2280000F050
:1045A000D4F870BD7CB504003E48282101FB04F11D
:1045B000084410F114056946280000F0DCF80600F4
:1045C0003000C0B2012805D19DF80000364951F8ED
:1045D000241088803000C0B2002807D1002240F2A9
:1045E0002771314850F82400FEF767FF73BDF8B516
:1045F00004000D002B48282101FB04F1084410F1B0
:1046000014072900C9B2380000F09FF806003000F6
:10461000C0B2012807D1012240F22771224850F888
:104620002400FEF74AFF3000C0B2F2BDF8B5040026
:104630000D0016000027B74207D2E95D2000FFF702
:10464000D6FF002801D07F1CF5E73800F2BD70B519
:1046500004000D001348282101FB04F100EB0106C2
:104660002900300000F087F870BDF8B504000D0097
:1046700016000027B74208D205EB07012000FFF71C
:10468000E6FF002801D07F1CF4E73800F2BD0549A1
:10469000282202FB00F2114411F11402517C00297E
:1046A000FCD0704768280020140000200CB430B5FE
:1046B00083B00A4606A9029104460025019400959C
:1046C00002AB01A9084878441E3001F013F9019AA1
:1046D000157000284EBF04460198041B204603B005
:1046E00030BC5DF80CFB00BF0FEFFFFFC0F3C751FC
:1046F00081B1FF2906D0C110400721F0E04101F14E
:104700006051704741020CBF40F4E0016FF000417E
:104710000020704700F0004100020AD0B0FA80FC8F
:1047200000FA0CF001F16051A1EB0C5101EBD0212A
:104730004005704701604260002383600023C3602E
:104740000023037400234374704770B40200D568DB
:104750009368581C5668B0FBF6F406FB1404AC4290
:1047600003D101201074002003E01068C15494604C
:10477000012070BC704770B402009568D368581C63
:104780005668B0FBF6F406FB1404AB4203D10120DB
:104790005074002004E01068C05C0870D4600120F0
:1047A00070BC70472DE9F04104000D0016001F0099
:1047B000DDF81880320029002000FFF7BBFF4246D9
:1047C000390014F11400FFF7B5FFBDE8F0810000D7
:1047D00080B500F02CF801BD80B5FCF707FC01BDE9
:1047E00080B5FCF737FFFFF777F901BD80B5FFF71C
:1047F000C5F901BD80B5FDF7E7FB01BD80B5FFF749
:104800002AFE01BD80B5FCF75CF801BD80B5FEF75E
:1048100028FA01BD80B5FEF7C7F901BD80B5FCF7E8
:104820006DF801BD80B552A0FEF70BFF01BD70B55C
:104830005048FEF706FF0B260025B54209D24E4828
:1048400000EBC500040021684C48FEF7FAFE6D1C21
:10485000F3E770BD2DE9F04105000C00002C02D1FA
:10486000FFF7E0FF1EE05FF00B080027474514D27A
:10487000414800EBC70006003068FEF7C1FE0200A9
:104880002900306802F00BF8002804D170688047D6
:10489000FFF7C8FF06E07F1CE8E73948FEF7D1FEC6
:1048A000FFF7C0FFBDE8F08138B58025354C2A0000
:1048B0002100354800F0A7F9002801D1002000E0D0
:1048C000012032BD2DE9F04790B04022694600201A
:1048D000FFF7CBFE0400002C47D0A04600200700C5
:1048E000474542D26846C05D81464846C0B20A2864
:1048F00017D14946C9B20020FFF779FEDFF888A03A
:10490000504600F08CF90600504600F08AF9050088
:1049100031002800FFF79EFF3100504600F08BF970
:1049200021E04846C0B20D281DD04846C0B2092833
:1049300019D04846C0B2082803D1134800F0EBF95B
:1049400011E04846C0B220280DDB4846C0B27F289F
:1049500009DA4946C9B20020FFF749FE4946C9B203
:10496000094800F0C6F97F1CBAE710B0BDE8F0872F
:104970003E0000000C970008240000201497000857
:104980005C950008982900208C2D0020F0B40400CC
:10499000049D21606260A36000268E420CD2A06854
:1049A00000EBC60002FB06F72F4447600020A76813
:1049B00047F83600761CF0E70020E0600020206118
:1049C000002060610120F0BC704700002DE9FF4726
:1049D00005000E0014005FF000095FF0000A724845
:1049E00001688E423FD329788DF800109DF80010A1
:1049F000AA2946D169788DF801109DF80110012986
:104A00003FD1A978EA7852EA0122ADF80220BDF838
:104A100002100068814234D364480068BDF8021077
:104A200088422ED3BDF8020086421CD3BDF8020096
:104A3000801E81464946280001F046FF070015F810
:104A4000090005EB0901497851EA002188464046F2
:104A500080B2874215D1002C02D0BDF80200206040
:104A60000120C0B21AE00021B14204D2685CAA2839
:104A700001D0491CF8E7002C00D021605046C0B29C
:104A80000CE00121B14204D2685CAA2801D0491C83
:104A9000F8E7002C00D021605046C0B204B0BDE859
:104AA000F08730B4030000243F480068814201D2FF
:104AB000002047E0185D1070641C185D5070641C85
:104AC000185D03EB04056D7855EA00255580A41C9C
:104AD000185D03EB04056D7855EA00259580A41C4C
:104AE000185D03EB04056D7855EA0025D580A41CFC
:104AF000185D1072641C185D5072641C185D03EB25
:104B000004056D782D0455EA006503EB04008078F8
:104B100055EA002503EB0400C0780543D560241D49
:104B200003EB040010615088001B801E5061506927
:104B30000419185D03EB04056D7855EA002515830B
:104B4000A41C012030BC7047F8B505000C00002DF6
:104B500001D1012026E0002C01D1012022E0A54254
:104B600001D100201EE06E1CB6B215F12007BFB2C5
:104B7000AE4200D2761CAF4200D27F1CBE4205D2AC
:104B8000B4420BD3A74209D301200BE0B44201D3B6
:104B9000012007E0A74201D3012003E00448FEF70B
:104BA00050FD0020F2BD000034970008389700083F
:104BB0008495000810B40400002050EA0430130269
:104BC00013F44073184311F0FF03184380B210BC74
:104BD00070470100080080B2000B70470100080018
:104BE00080B210F00F0070470100080080B2C0F3DF
:104BF0000122D00701D5012004E0900701D5022051
:104C000000E000207047030019605A60002098609F
:104C10005868002801D1002000E018007047806823
:104C200070470068704701004A688868101A70472A
:104C30000021816070472DE9F84F04000D00A06845
:104C4000854203D32000FFF7F3FF13E0A668761B2D
:104C5000A768BF1BD4F80080206800EB0709009606
:104C6000CA46C346009A5146584601F04BFEA0681A
:104C7000401BA060BDE8F18F10B5040001212000A9
:104C8000FFF7D9FF10BD2DE9FE4F04000D001600FF
:104C9000012E04D12978200000F02BF827E060686D
:104CA000B04205D267686068301A05EB000801E081
:104CB0003700A8462000FFF7B6FF8146B94506D267
:104CC000B7EB0900009000992000FFF7B4FF2068BF
:104CD000A16800EB010A0297CDF80480D346029A3E
:104CE00001995846FEF7C2FAA0683818A060BDE8DE
:104CF000F78F38B504000D00A0686168884202D1C2
:104D00002000FFF7B9FF2068A16808440570A1687A
:104D1000491CA16031BD8168002902D08168491E0B
:104D200081607047DFF81C120A6832F480320A6032
:104D30000A6832F480220A600200B2F5803F03D094
:104D4000B2F5802F05D009E00A6852F480320A607B
:104D500004E00A6852F4A0220A60FFE770470100ED
:104D6000C9B27B4A116070470021774B1A689208DC
:104D7000920002431A6070470A00D2B2002A04D09F
:104D8000744A13780343137003E0724A1378834321
:104D90001370704700216C4B1A6832F44042024392
:104DA0001A6070472DE9F04F010000220025002015
:104DB0000026654FD7F800C01CF00C0C6346002B92
:104DC00004D0042B05D0082B06D023E0634A0A60E8
:104DD00022E0624A0A601FE03A6812F470123B68EF
:104DE00013F480331800920C921C1500002804D193
:104DF0005B4A02FB05F20A600BE03A68920304D5B5
:104E0000574A02FB05F20A6003E0544A02FB05F22E
:104E10000A6001E0514A0A603C6814F0F004240979
:104E2000DFF8409119F804E00A6832FA0EF24A609D
:104E30003B6813F4E0631B0A19F803804A6832FAEE
:104E400008F28A603A6812F46052D20A19F80290A5
:104E5000D1F804A03AFA09FAC1F80CA03F6817F497
:104E60004047BF0BDFF800A11AF807A0D1F80CB03B
:104E7000BBFBFAFBC1F810B0BDE8F08F0A00D2B25C
:104E8000002A04D0394A13680343136003E0374A09
:104E900013688343136070470A00D2B2002A04D01B
:104EA000334A13680343136003E0314A13688343B2
:104EB000136070470A00D2B2002A04D02D4A13684A
:104EC0000343136003E02B4A136883431360704766
:104ED0000100C9B2284A1160704730B401000020B7
:104EE000002300250A00D2B25209D2B2012A02D10F
:104EF0001448046806E0022A02D11748046801E059
:104F00001E4804680B00DBB213F01F032000D840DA
:104F1000C00701D5012000E00020C0B230BC7047BE
:104F200001000022094800680B00DBB2184201D0E2
:104F3000012000E00020C0B270471149087070479E
:104F4000000000000010024004100240081002405F
:104F500060004242091002402010024000127A0014
:104F600000093D007C0000208C000020141002404D
:104F7000181002401C1002404C0042422410024013
:104F80000A10024002684FF6FE710A4002600021DA
:104F9000016000214160002181600021C1605F4902
:104FA000884205D15E490A6852F00F020A6061E04A
:104FB0005C49884205D15A490A6852F0F0020A60F9
:104FC00058E05949884205D155490A6852F470623F
:104FD0000A604FE05549884205D151490A6852F4A8
:104FE00070420A6046E05249884205D14C490A683D
:104FF00052F470220A603DE04E49884205D148498A
:105000000A6852F470020A6034E04B49884205D1C4
:1050100043490A6852F070620A602BE047498842AF
:1050200005D147490A6852F00F020A6022E045495B
:10503000884205D142490A6852F0F0020A6019E03C
:105040004149884205D13E490A6852F470620A60BB
:1050500010E03E49884205D139490A6852F470424D
:105060000A6007E03A49884204D135490A6852F497
:1050700070220A60704730B4002304686FF30E1486
:105080008D680A6A15430A6915434A6915438A6996
:105090001543CA6915434A6A15438A6A15432C4366
:1050A0000460CA6842600A6882604A68C26030BCB4
:1050B00070470A00D2B2002A04D0026852F00102FE
:1050C000026004E003684FF6FE721340036070470D
:1050D0001300DBB2002B03D003680B43036002E034
:1050E00003688B4303607047010000220020CB005F
:1050F00002D5184B1B6801E0174B1B680B4201D00F
:10510000012000E00020C0B27047C10002D50C4968
:10511000086001E002490860704700000800024092
:10512000040002401C0002403000024044000240E3
:10513000580002406C000240800002400804024017
:10514000040402401C0402403004024044040240B3
:10515000580402400004024000000240014648B1E9
:10516000B0FA80F18840C91CC1F58461090501EBE2
:10517000D021400570470000B0B581EA030C0CF067
:10518000004C40F2FF7515EA11541DBF15EA135784
:10519000AC42AF4239E0E41923EA455343F48013AB
:1051A000C90241F0004141EA505EC7021100A7FB6D
:1051B000020200284FF00000EEFB01204FF000013A
:1051C000E3FB072118BF42F00102401800214941CA
:1051D000E3FB0E01A4F580640F0302D252004041AC
:1051E000494154F101046CDD470872F1004250F16D
:1051F000000051EB0451A1F580115CBF41EA0C01A4
:10520000B0BD4CEA05510020B0BD05EA1357AC42D1
:1052100014BFAF4241E050EA410E1CBF52EA430EB8
:1052200002E061460020B0BD24423C441BD15FEA4D
:10523000070EF6D0090302BF01460020AEF1140E9E
:10524000B1FA81F7AEEB070401FA07FE0C37C7F19C
:10525000200100FA07F7C8404EEA000E23EA455342
:1052600043F48013A2E733F00043B3FA83F704BF9B
:10527000B2FA82FE77440B3FE41BB7F1200E2FBF3A
:1052800002FA0EF3BB40C7F1200E22FA0EFE38BF21
:1052900043EA0E03BA40641C82E750EA410E14BF91
:1052A00052EA430E6FF000014FF4001717EB430F63
:1052B0008ABF194617EB410FB5E74CEA05510020AC
:1052C000B0BDD4F10104B4F120070FDAC4F1200716
:1052D000520828BF42F0010210FA07F501FA07F759
:1052E000E1BF2A43E0403843E1400FE0352C98DC31
:1052F000C7F1200452EA400220FA07F218BF42F038
:10530000010231FA07F0A1400A43002172F1004284
:1053100050F1000051EB0C01B0BD0000F0B540F2BF
:10532000FF7581EA030C0CF0004C15EA11541DBF07
:1053300015EA1357AC42AF42E5E0BC41C1F313019B
:10534000C3F31303801A994143F4801304D2641EFB
:105350004000494180185941C90241EA5051B1FB0E
:10536000F3F603FB1611A2FB0675D7EBC020A9418B
:1053700002D2761E80185941C90241EA5051B1FB50
:10538000F3FE03FB1E11A2FB0E75D7EBC020A94153
:1053900003D2AEF1010E80185941890241EA9051C1
:1053A000760546EA8E2EB1FBF3F603FB1611A2FB3F
:1053B0000675D7EB8020A94102D2761E801859418C
:1053C000C90241EA50514EEA060EB1FBF3F603FB67
:1053D0001611A2FB0675D7EBC020A94102D2761E9A
:1053E00080185941C90241EA5051B1FBF3F703FB60
:1053F0001711A2FB0735D3EBC020A94167F10007C5
:105400000CBF004247F0010766F3D5274FEA1E3173
:10541000B80814F5806412DDBD0775F1004250EB49
:105420000E5051EB045111F5801F5CBF41EA0C0195
:10543000F0BD4CF07F6141F0E0410020F0BDBD07C0
:105440006D0840EA0E5041F48011D4F10104B4F12A
:1054500020060ADAC4F120060200E04001FA06F351
:10546000E1401843B24015430EE0342C13DCC6F182
:10547000200445EA40056D0820FA06F2154321FA9A
:1054800006F0A1400D43002175F1004250F10000EB
:1054900051EB0C01F0BD00205FEA0C01F0BDCFB96B
:1054A00092185B41B3FA83F704BFB2FA82F6BF19D0
:1054B0000B3FB7F120062FBF02FA06F3BB40C7F13E
:1054C000200622FA06F638BF3343BA401CB1E4196D
:1054D000641E33E77F4231F00041B1FA81F404BF2A
:1054E000B0FA80F6A4190B3CB4F120062FBF00FAE5
:1054F00006F1A140C4F1200620FA06F638BF314378
:10550000A0403C1B1AE7AC421ABF05EA1357AF4252
:1055100012E050EA41061CBF52EA4306BFE750EAD8
:105520004107304661461CBF41EA0551F0BD52EAD1
:10553000430C08BFC143F0BD00204FF4001616EB2A
:10554000410F98BF16EB430F08BF16EB410F24BF66
:10555000C14305E016EB430F0CBF61464CEA055111
:10556000F0BD000001F000428B1AA3F16051B1F5CB
:10557000801F0ADBB1F17F6F1FD242EAC102C10076
:1055800071F1004142EB507070470B15C3F10903F4
:10559000212B10D2890241EA905180020128494111
:1055A00041F0004121FA03F0C3F12003994071F169
:1055B000004150417047100070476FF0000013EB3E
:1055C000103F5CBF000E42EAC050704770B44FF00D
:1055D000004591EA030F41F1E9816B40841A71EBB8
:1055E000030604D26E40001BB141121973414FF4FF
:1055F000001C1CEB410F34BF7CEB430683E00C0D19
:10560000A4EB1356362E00F37C80012E45EAC3230B
:1056100041DC43EA525312BFD20292025B082405D6
:1056200045EAC12141EA5051D2EBC020994125D42D
:1056300007D1B0FA80F610FA06F162D000202036C9
:1056400008E0B1FA81F6B140C6F1200220FA02F278
:105650001143B0404FEAF474B4EB465434F0010601
:105660004FEA74040AD8D6F50016760D04F000440B
:10567000F04061FA06F25040F1404840C00A40EA6A
:10568000415021F0004128BF5FEA500550F1000071
:1056900044EBD12135E0DB0A45EAC121C90AB6F164
:1056A00020050EDD42EA0242120CC5F1200603FA83
:1056B00006F6EB4042EA06056D42984161F10001B1
:1056C0000DE062FA06F5F240554063FA06FC82EA04
:1056D0000C02F3405A406D42904161EB030111F41A
:1056E000801F05D1641E620502D06D004041494112
:1056F00021F48011430875F1004350F1000041EBA3
:10570000045170BC70471CEB410F15D223F00043CD
:1057100052EA43060BD04FEA4C0CBCEB410F04D8C5
:105720000C0D661E342EB7DDEBE7801A994150EA66
:10573000410608BF0021E4E708BF1CEB430F28BF68
:105740006FF00001DDE7000090EA010F41F1988160
:1057500081F00041431A4FF000423EBF5340C01A4F
:10576000C91800BFD3095FEAD05C13EB400F34BF08
:10577000B3EB410F40E07CEBD1530CD342EA012163
:1057800022D8D1EB402009D3400A28BF5FEA50015C
:1057900040EBCC507047401A15D04002B0FA80F26E
:1057A000521C9040400A4FEA3C23B3EB026384BF93
:1057B00000EB730007E040F400001A16DB07C2F1AB
:1057C0000102D04018437047182BFCDC31FA03F279
:1057D00002FA03F3591A38BF42F00102D2EB40201B
:1057E0003CBF4000ACF1010C5FEACC5CC20572F139
:1057F00000414CEB5020704713EB400F0FD2C942D1
:1058000009D0ACEBD153022B03DB4902172BDDDDB2
:1058100070479143401AC042D5D10020704713EB26
:10582000410FD0D36FF0000070470000C217504006
:10583000801AB0FA80F10AD08840D1F19D01D207D8
:1058400042EAC151020672F1004241EB102070475A
:1058500008B584B00023039300290EBF0193019083
:10586000491E0291009301A904AB074878441830FF
:1058700000F040F8019909B100220A70002858BFD1
:10588000039805B000BD00BF1FDBFFFF0300002031
:1058900013F0030F09D0521E22BF13F8010B11F8A9
:1058A00001CBB0EB0C00F3D0704711F0030F14D113
:1058B000121F22BF53F8040B51F804CB6045F7D0F8
:1058C000121D0AD200BA9CFA8CFCB0EB0C0038BF57
:1058D0006FF0000088BF01207047521E22BF13F8EE
:1058E000010B11F801CBB0EB0C00F6D0521C08BF35
:1058F000104670472DE9F14FB0B0924604910DF17A
:1059000042013A9A2B9199464A7000200AE01AF80F
:10591000011B0498309A90470028049000F0A88654
:105920000D98401C0D909AF8000050B12528EED13A
:10593000002100220791089209910A920B910C9282
:1059400004E00D9800F096BE41F001011AF8010F35
:105950002028F9D023280CD02B2804D02D2805D0BE
:10596000302809D00BE041F00201EFE741F00401DB
:10597000ECE741F00801E9E741F01001E6E72A28E9
:105980000FD1D9F8002052F8040BC9F800200028E4
:105990000F9003D540420F9041F004010AF1010A33
:1059A00014E00F92DFF828380AE00F98984205DAE1
:1059B00000EB800402EB4402303A0F920AF1010A34
:1059C0009AF80020A2F130000A28EED39AF80000DD
:1059D0002E2803D04FF0FF320E9229E01AF8010F63
:1059E0002A2809D1D9F8000050F8042BC9F8000082
:1059F0000E920AF1010A1BE02D280CBF0AF1010AE0
:105A0000002000220E92DFF8C8470BE040B90E9A42
:105A1000A24205DA02EB820503EB4503303B0E930D
:105A20000AF1010A9AF80030A3F130020A2AEDD3F4
:105A3000ADF84010DFF89C07784400F5F3609AF861
:105A4000001001F057F808B11AF8010B8DF8420068
:105A50009DF84200682805D19AF8000068280CD10A
:105A6000622106E06C2804BF9AF800006C2804D17B
:105A700071218DF842100AF1010A12A806901AF855
:105A800001BBBBF125012CD01C3900F0D081091FCE
:105A9000022940F2CC81133900F01585093900F054
:105AA000C681891E00F0AA85491E00F05785491E4F
:105AB000022940F2BC81091F00F05085491F00F007
:105AC0002881491E00F0FF84491E00F0D080C91EC5
:105AD0000DD0891E00F0F784C91E00F0F48400F098
