:020000040800F2
:100000000000032005490008C5470008CB47000849
:10001000D1470008D7470008DD470008000000006E
:10002000000000000000000000000000E34700089E
:10003000F147000800000000FF4700080D480008D5
:100040005549000855490008554900085549000818
:100050005549000855490008554900085549000808
:1000600055490008554900085549000855490008F8
:1000700055490008554900085549000855490008E8
:1000800055490008554900085549000855490008D8
:1000900055490008554900085549000855490008C8
:1000A00055490008554900085549000855490008B8
:1000B00055490008194800085549000855490008E5
:1000C0005549000855490008554900082D480008C1
:1000D000554900084148000855480008694800088B
:1000E0005549000855490008554900085549000878
:1000F0005549000855490008554900085549000868
:100100005549000855490008554900085549000857
:100110007D480008914800085549000855490008E5
:100120005549000855490008554900085549000837
:100130005549000855490008554900085549000827
:100140005549000855490008554900085549000817
:10015000554900085549000855490008A5480008B8
:1001600055490008554900085549000855490008F7
:10017000554900085549000855490008000000008D
:100180005549000855490008B9480008CD480008FD
:1001900055490008554900085549000855490008C7
:0C01A00055490008554900085549000861
:1001AC0010B5054C237833B9044B13B10448AFF3A5
:1001BC0000800123237010BD5400002000000000BB
:1001CC007483000808B5034B1BB103490348AFF314
:1001DC00008008BD00000000580000207483000857
:1001EC0081F0004102E000BF83F0004330B54FEADC
:1001FC0041044FEA430594EA050F08BF90EA020F49
:10020C001FBF54EA000C55EA020C7FEA645C7FEADB
:10021C00655C00F0E2804FEA5454D4EB5555B8BFFE
:10022C006D420CDD2C4480EA020281EA030382EA6F
:10023C00000083EA010180EA020281EA0303362D01
:10024C0088BF30BD11F0004F4FEA01314FF4801CD4
:10025C004CEA113102D0404261EB410113F0004FE6
:10026C004FEA03334CEA133302D0524263EB43039D
:10027C0094EA050F00F0A780A4F10104D5F1200E3B
:10028C000DDB02FA0EFC22FA05F2801841F1000196
:10029C0003FA0EF2801843FA05F359410EE0A5F16A
:1002AC0020050EF1200E012A03FA0EFC28BF4CF09B
:1002BC00020C43FA05F3C01851EBE37101F0004551
:1002CC0007D54FF0000EDCF1000C7EEB00006EEB5E
:1002DC000101B1F5801F1BD3B1F5001F0CD34908E8
:1002EC005FEA30004FEA3C0C04F101044FEA44523F
:1002FC0012F5800F80F09A80BCF1004F08BF5FEAC6
:10030C00500C50F1000041EB045141EA050130BDA5
:10031C005FEA4C0C404141EB0101013C28BFB1F5B7
:10032C00801FE9D291F0000F04BF01460020B1FA02
:10033C0081F308BF2033A3F10B03B3F120020CDAD5
:10034C000C3208DD02F1140CC2F10C0201FA0CF0B3
:10035C0021FA02F10CE002F11402D8BFC2F1200C18
:10036C0001FA02F120FA0CFCDCBF41EA0C019040CE
:10037C00E41AA2BF01EB0451294330BD6FEA040417
:10038C001F3C1CDA0C340EDC04F11404C4F1200202
:10039C0020FA04F001FA02F340EA030021FA04F314
:1003AC0045EA030130BDC4F10C04C4F1200220FA6B
:1003BC0002F001FA04F340EA0300294630BD21FAA9
:1003CC0004F0294630BD94F0000F83F4801306BF6F
:1003DC0081F480110134013D4EE77FEA645C18BF63
:1003EC007FEA655C29D094EA050F08BF90EA020FFA
:1003FC0005D054EA000C04BF1946104630BD91EAF2
:10040C00030F1EBF0021002030BD5FEA545C05D1F4
:10041C004000494128BF41F0004130BD14F5800433
:10042C003CBF01F5801130BD01F0004545F0FE41A7
:10043C0041F470014FF0000030BD7FEA645C1ABFDC
:10044C00194610467FEA655C1CBF0B46024650EA13
:10045C00013406BF52EA033591EA030F41F400213F
:10046C0030BD00BF90F0000F04BF0021704730B5C5
:10047C004FF4806404F132044FF000054FF000019A
:10048C0050E700BF90F0000F04BF0021704730B55B
:10049C004FF4806404F1320410F0004548BF404230
:1004AC004FF000013EE700BF42004FEAE2014FEA85
:1004BC0031014FEA02701FBF12F07F4393F07F4F60
:1004CC0081F06051704732F07F4208BF704793F063
:1004DC007F4F04BF41F40021704730B54FF4607476
:1004EC0001F0004521F000411CE700BF50EA010279
:1004FC0008BF704730B54FF000050AE050EA010222
:10050C0008BF704730B511F0004502D5404261EB91
:10051C0041014FF4806404F132045FEA915C3FF4D2
:10052C00D8AE4FF003025FEADC0C18BF03325FEA6F
:10053C00DC0C18BF033202EBDC02C2F1200300FA20
:10054C0003FC20FA02F001FA03FE40EA0E0021FA45
:10055C0002F11444BDE600BF70B54FF0FF0C4CF433
:10056C00E06C1CEA11541DBF1CEA135594EA0C0FE5
:10057C0095EA0C0F00F0DEF82C4481EA030621EA20
:10058C004C5123EA4C5350EA013518BF52EA03355B
:10059C0041F4801143F4801338D0A0FB02CE4FF00D
:1005AC000005E1FB02E506F00042E0FB03E54FF03D
:1005BC000006E1FB03569CF0000F18BF4EF0010E35
:1005CC00A4F1FF04B6F5007F64F5407404D25FEA31
:1005DC004E0E6D4146EB060642EAC62141EA5551E4
:1005EC004FEAC52040EA5E504FEACE2EB4F1FD0C26
:1005FC0088BFBCF5E06F1ED8BEF1004F08BF5FEAA4
:10060C00500E50F1000041EB045170BD06F0004655
:10061C0046EA010140EA020081EA0301B4EB5C0402
:10062C00C2BFD4EB0C0541EA045170BD41F48011FA
:10063C004FF0000E013C00F3AB8014F1360FDEBF1F
:10064C00002001F0004170BDC4F10004203C35DAFB
:10065C000C341BDC04F11404C4F1200500FA05F37E
:10066C0020FA04F001FA05F240EA020001F000421F
:10067C0021F0004110EBD37021FA04F642EB060195
:10068C005EEA430E08BF20EAD37070BDC4F10C04BF
:10069C00C4F1200500FA04F320FA05F001FA04F283
:1006AC0040EA020001F0004110EBD37041F100016F
:1006BC005EEA430E08BF20EAD37070BDC4F120057A
:1006CC0000FA05F24EEA020E20FA04F301FA05F2E2
:1006DC0043EA020321FA04F001F0004121FA04F28A
:1006EC0020EA020000EBD3705EEA430E08BF20EA5A
:1006FC00D37070BD94F0000F0FD101F00046400094
:10070C0041EB010111F4801F08BF013CF7D041EA15
:10071C00060195F0000F18BF704703F00046520019
:10072C0043EB030313F4801F08BF013DF7D043EAEA
:10073C000603704794EA0C0F0CEA135518BF95EAA0
:10074C000C0F0CD050EA410618BF52EA4306D1D127
:10075C0081EA030101F000414FF0000070BD50EA46
:10076C00410606BF1046194652EA430619D094EAD0
:10077C000C0F02D150EA013613D195EA0C0F05D1BA
:10078C0052EA03361CBF104619460AD181EA03010E
:10079C0001F0004141F0FE4141F470014FF00000C6
:1007AC0070BD41F0FE4141F4780170BD70B54FF061
:1007BC00FF0C4CF4E06C1CEA11541DBF1CEA1355E1
:1007CC0094EA0C0F95EA0C0F00F0A7F8A4EB0504C3
:1007DC0081EA030E52EA03354FEA013100F08880BA
:1007EC004FEA03334FF0805545EA131343EA126383
:1007FC004FEA022245EA111545EA10654FEA002638
:10080C000EF000419D4208BF964244F1FD0404F5F0
:10081C00407402D25B084FEA3202B61A65EB03054C
:10082C005B084FEA32024FF480104FF4002CB6EB09
:10083C00020E75EB030E22BFB61A754640EA0C0089
:10084C005B084FEA3202B6EB020E75EB030E22BFC9
:10085C00B61A754640EA5C005B084FEA3202B6EB0A
:10086C00020E75EB030E22BFB61A754640EA9C00C9
:10087C005B084FEA3202B6EB020E75EB030E22BF99
:10088C00B61A754640EADC0055EA060E18D04FEA57
:10089C00051545EA16754FEA06164FEAC30343EAF7
:1008AC0052734FEAC2025FEA1C1CC0D111F4801FC4
:1008BC000BD141EA00014FF000004FF0004CB6E7BD
:1008CC0011F4801F04BF01430020B4F1FD0C88BF5C
:1008DC00BCF5E06F3FF6AFAEB5EB030C04BFB6EB67
:1008EC00020C5FEA500C50F1000041EB045170BD5A
:1008FC000EF0004E4EEA113114EB5C04C2BFD4EB87
:10090C000C0541EA045170BD41F480114FF0000E0A
:10091C00013C90E645EA060E8DE60CEA135594EA86
:10092C000C0F08BF95EA0C0F3FF43BAF94EA0C0F89
:10093C000AD150EA01347FF434AF95EA0C0F7FF4FE
:10094C0025AF104619462CE795EA0C0F06D152EA52
:10095C0003353FF4FDAE1046194622E750EA410636
:10096C0018BF52EA43067FF4C5AE50EA41047FF447
:10097C000DAF52EA43057FF4EBAE12E74A0011D2F9
:10098C0012F5001211D20DD56FF47873B3EB6252DD
:10099C000ED44FEAC12343F0004343EA505323FAE9
:1009AC0002F070474FF00000704750EA013002D15E
:1009BC004FF0FF3070474FF00000704753B94AB901
:1009CC00002908BF00281CBF4FF0FF314FF0FF304B
:1009DC0000F070B9ADF1080C6DE904CE00F006F82A
:1009EC00DDF804E0DDE9022304B070472DE9F0479F
:1009FC00089E0D4604460F46002B4AD18A42944667
:100A0C0065D9B2FA82F343B102FA03FCC3F12002B6
:100A1C009F4020FA02F217439C404FEA1C4E1FFAEB
:100A2C008CF5B7FBFEF1220C0EFB117742EA074264
:100A3C0001FB05F090420AD91CEB020201F1FF37D1
:100A4C0080F01C81904240F2198102396244121AE2
:100A5C00A4B2B2FBFEF00EFB102244EA024400FBEF
:100A6C0005F5A5420AD91CEB040400F1FF3280F015
:100A7C000781A54240F204816444023840EA0140F7
:100A8C00641B00211EB1DC400023C6E90043BDE815
:100A9C00F0878B4208D9002E00F0ED800021C6E9CA
:100AAC0000050846BDE8F087B3FA83F1002949D167
:100ABC00AB4202D3824200F2F880841A65EB030247
:100ACC0001201746002EE2D0C6E90047DFE702B945
:100ADC00FFDEB2FA82F3002B40F090808A1A4FEAC4
:100AEC001C471FFA8CFE0121B2FBF7F507FB152002
:100AFC00220C42EA00420EFB05F0904208D91CEB96
:100B0C00020205F1FF3802D2904200F2CB8045463A
:100B1C00121AA4B2B2FBF7F007FB102244EA02440B
:100B2C000EFB00FEA64508D91CEB040400F1FF32B5
:100B3C0002D2A64500F2BB801046A4EB0E0440EA9C
:100B4C0005409FE7C1F120078B4022FA07FC4CEAD5
:100B5C00030C05FA01F420FA07F3FD404FEA1C4997
:100B6C002343B5FBF9F81FFA8CFE09FB18551C0C36
:100B7C0044EA054408FB0EF5A54202FA01F200FA1C
:100B8C0001F00BD91CEB040408F1FF3A80F08880CB
:100B9C00A54240F28580A8F102086444641B9DB212
:100BAC00B4FBF9F309FB134445EA044403FB0EFEC2
:100BBC00A64508D91CEB040403F1FF356CD2A645FD
:100BCC006AD9023B644443EA0843A3FB0295A4EBB5
:100BDC000E04AC42C846AE4656D353D056B1B0EB19
:100BEC00080264EB0E0404FA07F7CA40CC40174322
:100BFC00C6E9007418460021BDE8F087C3F1200156
:100C0C0002FA03FC20FA01F225FA01F19D402A4375
:100C1C004FEA1C471FFA8CFEB1FBF7F007FB1015CF
:100C2C00110C41EA054100FB0EF58D4204FA03F468
:100C3C0008D91CEB010100F1FF382FD28D422DD9C0
:100C4C0002386144491B92B2B1FBF7F507FB151151
:100C5C0042EA014205FB0EF1914208D91CEB02025B
:100C6C0005F1FF3816D2914214D9023D6244521A52
:100C7C0045EA004138E73146304608E73946E6E6B2
:100C8C001046FBE64845A9D2B9EB020865EB0C0E01
:100C9C00013BA3E74546EAE72B4694E74046D1E7FC
:100CAC00D0467BE7023D624432E708460AE76444DB
:100CBC00023842E7704700BFB0B584B000AF0346BE
:100CCC00FB80184BD3ED006A174B93ED007AC6EE00
:100CDC00877AC7ED037AF868FFF7E6FB04460D4602
:100CEC00FB8807EE903AF8EE677A17EE900AFFF75A
:100CFC00DBFB4FF000020D4BFFF72EFC02460B46C0
:100D0C0020462946FFF752FD02460B46104619466F
:100D1C00FFF734FE03467B817B8918461037BD46AE
:100D2C00B0BD00BF20000020240000200000304097
:100D3C0080B500AF03F00AFE00F032F900F088FB3A
:100D4C0000F0B2F900F0E6F900F032FA00F05AFACD
:100D5C0000F082FA00F0AAFA00F0D2FA00F0FAFAE7
:100D6C0000F022FB00F04AFB00F08AF901224FF45C
:100D7C000061684804F0E8F901221021654804F08C
:100D8C00E3F90321002200234FF4964002F090FF78
:100D9C00614805F015FF00F067FC4FF480731A46AC
:100DAC005E495F4803F07FF84FF480731A465D4943
:100DBC005D4803F078F84FF480731A465B495C4841
:100DCC0003F071F84FF480731A465A495A4803F0ED
:100DDC006AF84FF480731A465849594803F063F87F
:100DEC004FF480731A465749574803F05CF84FF498
:100DFC0080731A465549564803F055F84FF48073E2
:100E0C001A465449544803F04EF8544B1B68DA68A0
:100E1C00524B1B6842F02002DA60514B1B68DA68B7
:100E2C004F4B1B6842F02002DA604E4B1B68DA68AD
:100E3C004C4B1B6842F02002DA604B4B1B68DA68A3
:100E4C00494B1B6842F02002DA60484B1B68DA6899
:100E5C00464B1B6842F02002DA60454B1B68DA688F
:100E6C00434B1B6842F02002DA60424B1B68DA6885
:100E7C00404B1B6842F02002DA603F4B1B68DA687B
:100E8C003D4B1B6842F02002DA6001223B4933489B
:100E9C0006F00CFB01223A49314806F007FB01220F
:100EAC003849304806F002FB012237492E4806F03B
:100EBC00FDFA012235492D4806F0F8FA0122344991
:100ECC002B4806F0F3FA012232492A4806F0EEFAD2
:100EDC0001223149284806F0E9FA00F0A7FF00F09A
:100EEC00E7FF01F027F801F067F801F0A7F801F02F
:100EFC00E7F801F027F901F067F902F0A9FD274B9B
:100F0C001B78012BE9D102F03FFE244B00221A7012
:100F1C00E3E700BF00000240D80000207803002067
:100F2C00640300208C04002078040020A00500201D
:100F3C008C050020B4060020A0060020C807002065
:100F4C00B4070020DC080020C8080020F0090020AD
:100F5C00DC090020040B0020F00A002040020020D5
:100F6C0088020020D002002020010020680100200F
:100F7C0018030020B0010020F8010020040C002010
:100F8C00050C0020060C0020070C0020080C00208B
:100F9C00090C00200A0C00200B0C00206003002020
:100FAC0080B594B000AF07F1200330220021184621
:100FBC0007F0A0F907F10C0300221A605A609A603E
:100FCC00DA601A610023BB602B4B1B6C2A4A43F07E
:100FDC0080531364284B1B6C03F08053BB60BB68BD
:100FEC0000237B60254B1B68244A43F44043136069
:100FFC00224B1B6803F440437B607B6801233B62FC
:10100C004FF480337B620223BB634FF48003FB639A
:10101C0004233B64B4237B640223BB640823FB647A
:10102C0007F12003184604F013F90346002B01D0F6
:10103C0002F034FF04F0BCF80346002B01D002F0A0
:10104C002DFF0F23FB6002233B6100237B614FF4D8
:10105C00A053BB614FF48053FB6107F10C030521D6
:10106C00184604F06DFB0346002B01D002F016FF6E
:10107C0000BF5037BD4680BD0038024000700040B4
:10108C0080B500AF064B074A1A60054804F078FD9E
:10109C000346002B01D002F001FF00BF80BD00BF52
:1010AC00700000200008065080B500AF174B184A9E
:1010BC001A60164B4FF482725A60144B00229A60DD
:1010CC00124B0022DA60114B00221A610F4B0022E6
:1010DC005A610E4B4FF400729A610C4B0822DA6184
:1010EC000A4B00221A62094B00225A62074B00225B
:1010FC009A62064B0A22DA62044804F0D6FD0346D3
:10110C00002B01D002F0CAFE00BF80BD8000002081
:10111C000030014080B586B000AF07F10803002213
:10112C001A605A609A60DA603B4600221A605A6074
:10113C001D4B1E4A1A601C4B41F288325A601A4BE6
:10114C0000229A60184B1222DA60174B00221A61A7
:10115C00154B00229A61144805F0E2FC0346002B63
:10116C0001D002F09BFE4FF48053BB6007F10803E3
:10117C0019460D4805F084FE0346002B01D002F001
:10118C008DFE00233B6000237B603B4619460648DE
:10119C0006F0ACF80346002B01D002F07FFE00BF36
:1011AC001837BD4680BD00BFD800002000040040A9
:1011BC0080B500AF114B124A1A60104B4FF4165207
:1011CC005A600E4B00229A600C4B0022DA600B4BDB
:1011DC0000221A61094B0C225A61084B00229A61B9
:1011EC00064B0022DA61054806F010F90346002B85
:1011FC0001D002F053FE00BF80BD00BF20010020D3
:10120C00004C004080B500AF114B124A1A60104BD5
:10121C004FF416525A600E4B00229A600C4B00226F
:10122C00DA600B4B00221A61094B0C225A61084BF5
:10123C0000229A61064B0022DA61054806F0E6F8B6
:10124C000346002B01D002F029FE00BF80BD00BF79
:10125C00680100200050004080B500AF114B124ACD
:10126C001A60104B4FF416525A600E4B00229A60C3
:10127C000C4B0022DA600B4B00221A61094B0C223A
:10128C005A61084B00229A61064B0022DA6105482C
:10129C0006F0BCF80346002B01D002F0FFFD00BFA6
:1012AC0080BD00BFB00100200078004080B500AFC9
:1012BC00114B124A1A60104B4FF416525A600E4BD7
:1012CC0000229A600C4B0022DA600B4B00221A6150
:1012DC00094B0C225A61084B00229A61064B0022E2
:1012EC00DA61054806F092F80346002B01D002F0B3
:1012FC00D5FD00BF80BD00BFF8010020007C004080
:10130C0080B500AF114B124A1A60104B4FF41652B5
:10131C005A600E4B00229A600C4B0022DA600B4B89
:10132C0000221A61094B0C225A61084B00229A6167
:10133C00064B0022DA61054806F068F80346002BDC
:10134C0001D002F0ABFD00BF80BD00BF4002002009
:10135C000010014080B500AF114B124A1A60104BBF
:10136C004FF416525A600E4B00229A600C4B00221E
:10137C00DA600B4B00221A61094B0C225A61084BA4
:10138C0000229A61064B0022DA61054806F03EF80D
:10139C000346002B01D002F081FD00BF80BD00BFD1
:1013AC00880200200044004080B500AF114B124A67
:1013BC001A60104B4FF416525A600E4B00229A6072
:1013CC000C4B0022DA600B4B00221A61094B0C22E9
:1013DC005A61084B00229A61064B0022DA610548DB
:1013EC0006F014F80346002B01D002F057FD00BFA5
:1013FC0080BD00BFD00200200048004080B500AF87
:10140C00114B124A1A60104B4FF416525A600E4B85
:10141C0000229A600C4B0022DA600B4B00221A61FE
:10142C00094B0C225A61084B00229A61064B002290
:10143C00DA61054805F0EAFF0346002B01D002F003
:10144C002DFD00BF80BD00BF18030020001401401B
:10145C0080B58EB000AF07F1240300221A605A60E9
:10146C009A60DA601A6100233B62794B1B6B784AF5
:10147C0043F010031363764B1B6B03F010033B62BA
:10148C003B6A0023FB61724B1B6B714A43F00403F4
:10149C0013636F4B1B6B03F00403FB61FB690023AD
:1014AC00BB616B4B1B6B6A4A43F020031363684BA5
:1014BC001B6B03F02003BB61BB6900237B61644B96
:1014CC001B6B634A43F080031363614B1B6B03F08C
:1014DC0080037B617B6900233B615D4B1B6B5C4A2A
:1014EC0043F0010313635A4B1B6B03F001033B6185
:1014FC003B690023FB60564B1B6B554A43F0400382
:10150C001363534B1B6B03F04003FB60FB6800231E
:10151C00BB604F4B1B6B4E4A43F0080313634C4BA1
:10152C001B6B03F00803BB60BB6800237B60484B5C
:10153C001B6B474A43F002031363454B1B6B03F0D1
:10154C0002037B607B6800221021424803F0FCFD03
:10155C0000224FF44061404803F0F6FD00224FF4A6
:10156C0001613E4803F0F0FD00224FF6FF713C484C
:10157C0003F0EAFD00224FF470713A4803F0E4FDE9
:10158C0008237B620023BB620023FB6207F1240368
:10159C001946304803F014FC10237B620123BB6214
:1015AC000023FB6200233B6307F1240319462948FF
:1015BC0003F006FC4FF440637B620123BB62002303
:1015CC00FB6200233B6307F124031946224803F016
:1015DC00F7FB4FF401637B620123BB620023FB62C8
:1015EC0000233B6307F1240319461C4803F0E8FB76
:1015FC004FF6FF737B620123BB620023FB62002367
:10160C003B6307F124031946154803F0D9FB4FF44B
:10161C0080737B624FF48813BB620023FB6207F17B
:10162C00240319460D4803F0CBFB4FF470737B6217
:10163C000123BB620023FB6200233B6307F12403FD
:10164C001946084803F0BCFB00BF3837BD4680BDC7
:10165C00003802400010024000140240000002401A
:10166C00001802400004024080B500AF01220121A5
:10167C00334803F069FD01220421314803F064FD75
:10168C00012210212E4803F05FFD012240212C483D
:10169C0003F05AFD01224FF48071294803F054FDE8
:1016AC0001224FF48061264803F04EFD01224FF4D5
:1016BC008051234803F048FD01224FF4804120481B
:1016CC0003F042FD012202211D4803F03DFD0122E1
:1016DC0008211B4803F038FD01222021184803F093
:1016EC0033FD01228021164803F02EFD01224FF418
:1016FC000071134803F028FD01224FF400611048DB
:10170C0003F022FD01224FF400510D4803F01CFDA3
:10171C0001224FF400410A4803F016FD01224FF458
:10172C008061084803F010FD01224FF40061054868
:10173C0003F00AFD1E2003F07BF900BF80BD00BF43
:10174C00001802400014024080B582B000AF7860EF
:10175C007B681B68594A934240F0AC80584B1B681D
:10176C000133574A1360574B1B680133554A1360BA
:10177C00554B1B680133544A1360544B1B6801339F
:10178C00524A1360524B1B680133514A1360514B40
:10179C001B6801334F4A13604F4B1B6801334E4A91
:1017AC0013604E4B1B6801334C4A13604C4B1B6847
:1017BC0001334B4A13604B4B1B680133494A13608E
:1017CC00494B1B680133484A1360484B1B68013373
:1017DC00464A1360464B1B680133454A1360454B20
:1017EC001B680133434A1360434B1B680133424A65
:1017FC001360424B1B680133404A1360404B1B681B
:10180C0001333F4A13602F4B1B68052B04D901226F
:10181C0001213C4803F098FC2B4B1B68052B04D989
:10182C0001220421374803F08FFC284B1B68052B41
:10183C0004D901221021334803F086FC244B1B6889
:10184C00052B04D9012240212E4803F07DFC214BAD
:10185C001B68052B05D901224FF48071294803F030
:10186C0073FC1D4B1B68052B05D901224FF48061BD
:10187C00244803F069FC194B1B68052B05D9012280
:10188C004FF480511F4803F05FFC154B1B68052B70
:10189C0005D901224FF480411A4803F055FC084B3E
:1018AC001B68B3F57A7F05D9174B01221A70044BCC
:1018BC0000221A6000BF0837BD4680BD00040040FE
:1018CC001C0D0020200D0020240D0020280D0020D0
:1018DC002C0D0020300D0020340D0020380D002080
:1018EC003C0D0020400D0020440D0020480D002030
:1018FC004C0D0020500D0020540D0020580D0020E0
:10190C005C0D0020001802406003002080B582B0FE
:10191C0000AF78607B681B686A4A934214D16A4BAB
:10192C0000221A60694B00221A60002201216848CB
:10193C0003F00AFC674B1B78184600F015F90122DE
:10194C006449654805F0B2FD7B681B68634A9342A5
:10195C0014D1634B00221A60624B00221A600022E1
:10196C0004215B4803F0F0FB5F4B1B78184600F03A
:10197C000DF901225C495D4805F098FD7B681B68F8
:10198C005B4A934214D15B4B00221A605A4B0022E3
:10199C001A60002210214E4803F0D6FB574B1B78DF
:1019AC00184600F005F901225449554805F07EFD12
:1019BC007B681B68534A934214D1534B00221A6024
:1019CC00524B00221A6000224021414803F0BCFB1C
:1019DC004F4B1B78184600F0FDF801224C494D483E
:1019EC0005F064FD7B681B684B4A934215D14B4B49
:1019FC0000221A604A4B00221A6000224FF48071B8
:101A0C00334803F0A1FB474B1B78184600F0F4F861
:101A1C0001224449444805F049FD7B681B68434A50
:101A2C00934215D1424B00221A60424B00221A609D
:101A3C0000224FF48061264803F086FB3E4B1B7856
:101A4C00184600F0EBF801223B493C4805F02EFD0E
:101A5C007B681B683A4A934215D13A4B00221A60B4
:101A6C00394B00221A6000224FF48051184803F0C1
:101A7C006BFB364B1B78184600F0E2F80122334919
:101A8C00334805F013FD7B681B68324A934215D12D
:101A9C00314B00221A60314B00221A6000224FF4A5
:101AAC0080410B4803F050FB2D4B1B78184600F07F
:101ABC00D9F801222A492B4805F0F8FC00BF083759
:101ACC00BD4680BD00100140200D0020400D0020BF
:101ADC0000180240040C002040020020004400408A
:101AEC00240D0020440D0020050C0020880200204D
:101AFC0000480040280D0020480D0020060C002056
:101B0C00D0020020004C00402C0D00204C0D002079
:101B1C00070C00202001002000500040300D002058
:101B2C00500D0020080C002068010020001401401A
:101B3C00340D0020540D0020090C00201803002047
:101B4C0000780040380D0020580D00200A0C0020B1
:101B5C00B0010020007C00403C0D00205C0D0020FA
:101B6C000B0C0020F801002080B582B000AF0346BA
:101B7C00FB71FB1D01221946034802F0D2FA00BF8B
:101B8C000837BD4680BD00BF6403002080B582B01D
:101B9C0000AF0346FB71FB1D01221946034802F0FE
:101BAC00C0FA00BF0837BD4680BD00BF78040020D6
:101BBC0080B582B000AF0346FB71FB1D01221946B4
:101BCC00034802F0AEFA00BF0837BD4680BD00BF27
:101BDC008C05002080B582B000AF0346FB71FB1D65
:101BEC0001221946034802F09CFA00BF0837BD4693
:101BFC0080BD00BFA006002080B582B000AF0346B8
:101C0C00FB71FB1D01221946034802F08AFA00BF42
:101C1C000837BD4680BD00BFB407002080B582B038
:101C2C0000AF0346FB71FB1D01221946034802F06D
:101C3C0078FA00BF0837BD4680BD00BFC808002039
:101C4C0080B582B000AF0346FB71FB1D0122194623
:101C5C00034802F066FA00BF0837BD4680BD00BFDE
:101C6C00DC09002080B582B000AF0346FB71FB1D80
:101C7C0001221946034802F054FA00BF0837BD464A
:101C8C0080BD00BFF00A002080B485B000AF786042
:101C9C000B467B8000237B730023FB8109E0FB89CF
:101CAC007A6813441A787B7B13447B73FB8901336A
:101CBC00FB81FA897B889A42F1D37B7B20337B733F
:101CCC007B7B18461437BD465DF8047B70470000DB
:101CDC0080B485B000AF0346FB71FB7903F00F03B2
:101CEC00BB73FB79092B0DD9BA7B0B4BA3FB0213EE
:101CFC00D9080B469B000B445B00D31ADBB2413373
:101D0C00FB7302E0BB7B3033FB73FB7B1846143751
:101D1C00BD465DF8047B7047CDCCCCCC90B589B07A
:101D2C0000AFF860B9607A603B600023FB61002370
:101D3C00BB61BA687B689A424CD8BB68013BFA68B5
:101D4C0013441B78FB75FA68FB6913441B78BB754D
:101D5C00BB7D022B03D0FB690133FB613BE0FB7DB8
:101D6C000A2B03D0FB690133FB6134E0BB682D3BCC
:101D7C00FA68134428211846FFF786FF03467B7543
:101D8C00BB68053BFA6813441C787B7D1B09DBB2EE
:101D9C001846FFF79DFF03469C4203D0FB690133B5
:101DAC00FB6118E0BB68043BFA6813441C787B7D2C
:101DBC0003F00F03DBB21846FFF78AFF03469C4281
:101DCC0003D0FB690133FB6105E0BB68FB610123B8
:101DDC00BB6100E000BF3B68002B02D03B68FA6996
:101DEC001A60BB6918462437BD4690BD80B485B0D7
:101DFC0000AF03460A46FB801346BB800123BB8120
:101E0C000023FB8107E0BA89FB8812FB03F3BB813B
:101E1C00FB890133FB81FA89BB889A42F3D3BB89D6
:101E2C0018461437BD465DF8047B704780B500AF8B
:101E3C0029E01A4B1B681A4619491A4802F0AEF8E9
:101E4C000346DAB2184B1A70174B1B781946134B12
:101E5C001A68164B1248FFF761FF0346002B07D098
:101E6C000E4B1B68012219460D4800F0EFF903E0F8
:101E7C000E4B1B68002B0DD00C4B1B681A460849E7
:101E8C00084802F0EBF8074802F03CF803462D2B0B
:101E9C00CFD800E000BF00BF80BD00BF28000020ED
:101EAC00600D0020640300208E0D0020900D00209A
:101EBC0080B500AF29E01A4B1B681A4619491A481D
:101ECC0002F06CF80346DAB2184B1A70174B1B78F9
:101EDC001946134B1A68164B1248FFF71FFF03469F
:101EEC00002B07D00E4B1B68022219460D4800F040
:101EFC00FDFA03E00E4B1B68002B0DD00C4B1B683E
:101F0C001A460849084802F0A9F8074801F0FAFFF8
:101F1C0003462D2BCFD800E000BF00BF80BD00BF13
:101F2C002C000020940D002078040020C20D00200D
:101F3C00C40D002080B500AF29E01A4B1B681A466F
:101F4C0019491A4802F02AF80346DAB2184B1A70EB
:101F5C00174B1B781946134B1A68164B1248FFF790
:101F6C00DDFE0346002B07D00E4B1B6803221946DF
:101F7C000D4800F00BFC03E00E4B1B68002B0DD042
:101F8C000C4B1B681A460849084802F067F80748CA
:101F9C0001F0B8FF03462D2BCFD800E000BF00BFE7
:101FAC0080BD00BF30000020C80D00208C05002033
:101FBC00F60D0020F80D002080B500AF29E01A4B7B
:101FCC001B681A4619491A4801F0E8FF0346DAB2B1
:101FDC00184B1A70174B1B781946134B1A68164B73
:101FEC001248FFF79BFE0346002B07D00E4B1B68D5
:101FFC00042219460D4800F019FD03E00E4B1B6836
:10200C00002B0DD00C4B1B681A460849084802F0EF
:10201C0025F8074801F076FF03462D2BCFD800E0BA
:10202C0000BF00BF80BD00BF34000020FC0D0020AD
:10203C00A00600202A0E00202C0E002080B500AF38
:10204C0029E01A4B1B681A4619491A4801F0A6FFD9
:10205C000346DAB2184B1A70174B1B781946134B00
:10206C001A68164B1248FFF759FE0346002B07D08F
:10207C000E4B1B68052219460D4800F027FE03E0A5
:10208C000E4B1B68002B0DD00C4B1B681A460849D5
:10209C00084801F0E3FF074801F034FF03462D2BFD
:1020AC00CFD800E000BF00BF80BD00BF38000020CB
:1020BC00300E0020B40700205E0E0020600E0020C1
:1020CC0080B500AF29E01A4B1B681A4619491A480B
:1020DC0001F064FF0346DAB2184B1A70174B1B78E9
:1020EC001946134B1A68164B1248FFF717FE034696
:1020FC00002B07D00E4B1B68062219460D4800F02A
:10210C0035FF03E00E4B1B68002B0DD00C4B1B68EE
:10211C001A460849084801F0A1FF074801F0F2FEF1
:10212C0003462D2BCFD800E000BF00BF80BD00BF01
:10213C003C000020640E0020C8080020920E0020F5
:10214C00940E002080B500AF29E01A4B1B681A468C
:10215C0019491A4801F022FF0346DAB2184B1A70DB
:10216C00174B1B781946134B1A68164B1248FFF77E
:10217C00D5FD0346002B07D00E4B1B6807221946D2
:10218C000D4801F043F803E00E4B1B68002B0DD0FB
:10219C000C4B1B681A460849084801F05FFF0748BA
:1021AC0001F0B0FE03462D2BCFD800E000BF00BFDE
:1021BC0080BD00BF40000020980E0020DC090020EC
:1021CC00C60E0020C80E002080B500AF29E01A4BC7
:1021DC001B681A4619491A4801F0E0FE0346DAB2A8
:1021EC00184B1A70174B1B781946134B1A68164B61
:1021FC001248FFF793FD0346002B07D00E4B1B68CC
:10220C00082219460D4801F051F903E00E4B1B68EA
:10221C00002B0DD00C4B1B681A460849084801F0DE
:10222C001DFF074801F06EFE03462D2BCFD800E0B2
:10223C0000BF00BF80BD00BF44000020CC0E0020BA
:10224C00F00A0020FA0E0020FC0E0020F0B589B038
:10225C0000AFF860B9607A600023FB77984803F010
:10226C000FFDB861974B00221A707B68012B40F070
:10227C002281954AFB681C46164604F1200C354613
:10228C002346186859689A68DB680FC510341036F5
:10229C006445F4D1334620686168A26807C3A289FB
:1022AC001A80894BDB78FB77FB7F342B00F0938013
:1022BC00854B1B79302B40F08680844B1B78092B87
:1022CC0000F289802E2282497F4806F03FF87F4B2E
:1022DC001B780133DAB27D4B1A70BB6903F10A012A
:1022EC007C4BA3FB01231A0913461B019B1A5B00B1
:1022FC00CA1A93B2C3F5B6730133FB82BB6903F1FF
:10230C001401744BA3FB01231A0913461B019B1ADE
:10231C005B00CA1A93B2C3F14103BB826E4B00221D
:10232C001A7021E002210A20FFF760FD03461A46CD
:10233C00FB8AB3FBF2F39AB2684BA3FB0213D908E6
:10234C000B469B000B445B00D31A9BB2DAB2624B78
:10235C001B7816333032D1B25B4AD1545E4B1B78AA
:10236C000133DAB25C4B1A705B4B1B78022BD9D958
:10237C00594B00221A7021E002210A20FFF736FD8A
:10238C0003461A46BB8AB3FBF2F39AB2534BA3FB38
:10239C000213D9080B469B000B445B00D31A9BB26B
:1023AC00DAB24D4B1B7819333032D1B2464AD15484
:1023BC00494B1B780133DAB2474B1A70464B1B78EA
:1023CC00022BD9D907E0414B00221A702E223E492C
:1023DC003F4805F0BBFF3C4B93F820203A4BDA7793
:1023EC00394B93F82120384B83F82020364B302280
:1023FC0083F82120BB682B3B334A134426223849EF
:10240C00184601F045FABB682D3B2F4A13440222B3
:10241C003449184601F09AF9BB682D3B2A4A012130
:10242C00D154BB682C3B284A13442E4A12781A709C
:10243C00BB682B3B244A134413222949184605F048
:10244C0085FFBB682E3B204A13441621184601F029
:10245C008FFA03461A461B4B1A70BB68183B194A75
:10246C001178194AD154BB68173B174A0321D15430
:10247C00BB68163B144A0D21D154BB68153B124A5C
:10248C000A21D1547A6813461B019B1A5B00164A29
:10249C009818BB682E3B0C4A13441A22194605F0B7
:1024AC0055FF2E220021084805F024FF1A22002196
:1024BC000B4805F01FFF00BF2437BD46F0BD00BF21
:1024CC0070000020000F0020040F0020320F0020AD
:1024DC00340F002089888888620F0020CDCCCCCCAA
:1024EC00640F0020800F00200C0C0020F0B589B088
:1024FC0000AFF860B9607A600023FB77984803F06E
:10250C00BFFBB861974B00221A707B68022B40F01E
:10251C002281954AFB681C46164604F1200C354670
:10252C002346186859689A68DB680FC51034103652
:10253C006445F4D1334620686168A26807C3A28958
:10254C001A80894BDB78FB77FB7F342B00F0938070
:10255C00854B1B79302B40F08680844B1B78092BE4
:10256C0000F289802E2282497F4805F0EFFE7F4BD6
:10257C001B780133DAB27D4B1A70BB6903F10A0187
:10258C007C4BA3FB01231A0913461B019B1A5B000E
:10259C00CA1A93B2C3F5B6730133FB82BB6903F15C
:1025AC001401744BA3FB01231A0913461B019B1A3C
:1025BC005B00CA1A93B2C3F14103BB826E4B00227B
:1025CC001A7021E002210A20FFF710FC03461A467C
:1025DC00FB8AB3FBF2F39AB2684BA3FB0213D90844
:1025EC000B469B000B445B00D31A9BB2DAB2624BD6
:1025FC001B7816333032D1B25B4AD1545E4B1B7808
:10260C000133DAB25C4B1A705B4B1B78022BD9D9B5
:10261C00594B00221A7021E002210A20FFF7E6FB39
:10262C0003461A46BB8AB3FBF2F39AB2534BA3FB95
:10263C000213D9080B469B000B445B00D31A9BB2C8
:10264C00DAB24D4B1B7819333032D1B2464AD154E1
:10265C00494B1B780133DAB2474B1A70464B1B7847
:10266C00022BD9D907E0414B00221A702E223E4989
:10267C003F4805F06BFE3C4B93F820203A4BDA7741
:10268C00394B93F82120384B83F82020364B3022DD
:10269C0083F82120BB682B3B334A1344262238494C
:1026AC00184601F0F5F8BB682D3B2F4A1344022263
:1026BC003449184601F04AF8BB682D3B2A4A0221DE
:1026CC00D154BB682C3B284A13442E4A12781A70FA
:1026DC00BB682B3B244A134413222949184605F0A6
:1026EC0035FEBB682E3B204A13441621184601F0D8
:1026FC003FF903461A461B4B1A70BB68183B194A24
:10270C001178194AD154BB68173B174A0321D1548D
:10271C00BB68163B144A0D21D154BB68153B124AB9
:10272C000A21D1547A6813461B019B1A5B00164A86
:10273C009818BB682E3B0C4A13441A22194605F014
:10274C0005FE2E220021084805F0D4FD1A22002196
:10275C000B4805F0CFFD00BF2437BD46F0BD00BFD0
:10276C0070000020820F0020840F0020B20F002088
:10277C00B40F002089888888E20F0020CDCCCCCC07
:10278C00E40F0020001000200C0C0020F0B589B0E4
:10279C0000AFF860B9607A600023FB77984803F0CB
:1027AC006FFAB861974B00221A707B68032B40F0CC
:1027BC002281954AFB681C46164604F1200C3546CE
:1027CC002346186859689A68DB680FC510341036B0
:1027DC006445F4D1334620686168A26807C3A289B6
:1027EC001A80894BDB78FB77FB7F342B00F09380CE
:1027FC00854B1B79302B40F08680844B1B78092B42
:10280C0000F289802E2282497F4805F09FFD7F4B84
:10281C001B780133DAB27D4B1A70BB6903F10A01E4
:10282C007C4BA3FB01231A0913461B019B1A5B006B
:10283C00CA1A93B2C3F5B6730133FB82BB6903F1B9
:10284C001401744BA3FB01231A0913461B019B1A99
:10285C005B00CA1A93B2C3F14103BB826E4B0022D8
:10286C001A7021E002210A20FFF7C0FA03461A462B
:10287C00FB8AB3FBF2F39AB2684BA3FB0213D908A1
:10288C000B469B000B445B00D31A9BB2DAB2624B33
:10289C001B7816333032D1B25B4AD1545E4B1B7865
:1028AC000133DAB25C4B1A705B4B1B78022BD9D913
:1028BC00594B00221A7021E002210A20FFF796FAE8
:1028CC0003461A46BB8AB3FBF2F39AB2534BA3FBF3
:1028DC000213D9080B469B000B445B00D31A9BB226
:1028EC00DAB24D4B1B7819333032D1B2464AD1543F
:1028FC00494B1B780133DAB2474B1A70464B1B78A5
:10290C00022BD9D907E0414B00221A702E223E49E6
:10291C003F4805F01BFD3C4B93F820203A4BDA77EF
:10292C00394B93F82120384B83F82020364B30223A
:10293C0083F82120BB682B3B334A134426223849A9
:10294C00184600F0A5FFBB682D3B2F4A134402220A
:10295C003449184600F0FAFEBB682D3B2A4A032185
:10296C00D154BB682C3B284A13442E4A12781A7057
:10297C00BB682B3B244A134413222949184605F003
:10298C00E5FCBB682E3B204A13441621184600F088
:10299C00EFFF03461A461B4B1A70BB68183B194ACB
:1029AC001178194AD154BB68173B174A0321D154EB
:1029BC00BB68163B144A0D21D154BB68153B124A17
:1029CC000A21D1547A6813461B019B1A5B00164AE4
:1029DC009818BB682E3B0C4A13441A22194605F072
:1029EC00B5FC2E220021084805F084FC1A22002197
:1029FC000B4805F07FFC00BF2437BD46F0BD00BF7F
:102A0C007000002002100020041000203210002062
:102A1C00341000208988888862100020CDCCCCCC62
:102A2C0064100020801000200C0C0020F0B589B040
:102A3C0000AFF860B9607A600023FB77984803F028
:102A4C001FF9B861974B00221A707B68042B40F079
:102A5C002281954AFB681C46164604F1200C35462B
:102A6C002346186859689A68DB680FC5103410360D
:102A7C006445F4D1334620686168A26807C3A28913
:102A8C001A80894BDB78FB77FB7F342B00F093802B
:102A9C00854B1B79302B40F08680844B1B78092B9F
:102AAC0000F289802E2282497F4805F04FFC7F4B33
:102ABC001B780133DAB27D4B1A70BB6903F10A0142
:102ACC007C4BA3FB01231A0913461B019B1A5B00C9
:102ADC00CA1A93B2C3F5B6730133FB82BB6903F117
:102AEC001401744BA3FB01231A0913461B019B1AF7
:102AFC005B00CA1A93B2C3F14103BB826E4B002236
:102B0C001A7021E002210A20FFF770F903461A46D9
:102B1C00FB8AB3FBF2F39AB2684BA3FB0213D908FE
:102B2C000B469B000B445B00D31A9BB2DAB2624B90
:102B3C001B7816333032D1B25B4AD1545E4B1B78C2
:102B4C000133DAB25C4B1A705B4B1B78022BD9D970
:102B5C00594B00221A7021E002210A20FFF746F996
:102B6C0003461A46BB8AB3FBF2F39AB2534BA3FB50
:102B7C000213D9080B469B000B445B00D31A9BB283
:102B8C00DAB24D4B1B7819333032D1B2464AD1549C
:102B9C00494B1B780133DAB2474B1A70464B1B7802
:102BAC00022BD9D907E0414B00221A702E223E4944
:102BBC003F4805F0CBFB3C4B93F820203A4BDA779F
:102BCC00394B93F82120384B83F82020364B302298
:102BDC0083F82120BB682B3B334A13442622384907
:102BEC00184600F055FEBB682D3B2F4A13440222B9
:102BFC003449184600F0AAFDBB682D3B2A4A042133
:102C0C00D154BB682C3B284A13442E4A12781A70B4
:102C1C00BB682B3B244A134413222949184605F060
:102C2C0095FBBB682E3B204A13441621184600F036
:102C3C009FFE03461A461B4B1A70BB68183B194A79
:102C4C001178194AD154BB68173B174A0321D15448
:102C5C00BB68163B144A0D21D154BB68153B124A74
:102C6C000A21D1547A6813461B019B1A5B00164A41
:102C7C009818BB682E3B0C4A13441A22194605F0CF
:102C8C0065FB2E220021084805F034FB1A22002196
:102C9C000B4805F02FFB00BF2437BD46F0BD00BF2D
:102CAC00700000208210002084100020B210002040
:102CBC00B410002089888888E2100020CDCCCCCCC0
:102CCC00E4100020001100200C0C0020F0B589B09D
:102CDC0000AFF860B9607A600023FB77984802F087
:102CEC00CFFFB861974B00221A707B68052B40F020
:102CFC002281954AFB681C46164604F1200C354689
:102D0C002346186859689A68DB680FC5103410366A
:102D1C006445F4D1334620686168A26807C3A28970
:102D2C001A80894BDB78FB77FB7F342B00F0938088
:102D3C00854B1B79302B40F08680844B1B78092BFC
:102D4C0000F289802E2282497F4805F0FFFA7F4BE2
:102D5C001B780133DAB27D4B1A70BB6903F10A019F
:102D6C007C4BA3FB01231A0913461B019B1A5B0026
:102D7C00CA1A93B2C3F5B6730133FB82BB6903F174
:102D8C001401744BA3FB01231A0913461B019B1A54
:102D9C005B00CA1A93B2C3F14103BB826E4B002293
:102DAC001A7021E002210A20FFF720F803461A4688
:102DBC00FB8AB3FBF2F39AB2684BA3FB0213D9085C
:102DCC000B469B000B445B00D31A9BB2DAB2624BEE
:102DDC001B7816333032D1B25B4AD1545E4B1B7820
:102DEC000133DAB25C4B1A705B4B1B78022BD9D9CE
:102DFC00594B00221A7021E002210A20FEF7F6FF3F
:102E0C0003461A46BB8AB3FBF2F39AB2534BA3FBAD
:102E1C000213D9080B469B000B445B00D31A9BB2E0
:102E2C00DAB24D4B1B7819333032D1B2464AD154F9
:102E3C00494B1B780133DAB2474B1A70464B1B785F
:102E4C00022BD9D907E0414B00221A702E223E49A1
:102E5C003F4805F07BFA3C4B93F820203A4BDA774D
:102E6C00394B93F82120384B83F82020364B3022F5
:102E7C0083F82120BB682B3B334A13442622384964
:102E8C00184600F005FDBB682D3B2F4A1344022267
:102E9C003449184600F05AFCBB682D3B2A4A0521E0
:102EAC00D154BB682C3B284A13442E4A12781A7012
:102EBC00BB682B3B244A134413222949184605F0BE
:102ECC0045FABB682E3B204A13441621184600F0E5
:102EDC004FFD03461A461B4B1A70BB68183B194A28
:102EEC001178194AD154BB68173B174A0321D154A6
:102EFC00BB68163B144A0D21D154BB68153B124AD2
:102F0C000A21D1547A6813461B019B1A5B00164A9E
:102F1C009818BB682E3B0C4A13441A22194605F02C
:102F2C0015FA2E220021084805F0E4F91A22002196
:102F3C000B4805F0DFF900BF2437BD46F0BD00BFDC
:102F4C00700000200211002004110020321100201A
:102F5C00341100208988888862110020CDCCCCCC1B
:102F6C0064110020801100200C0C0020F0B589B0F9
:102F7C0000AFF860B9607A600023FB77984802F0E4
:102F8C007FFEB861974B00221A707B68062B40F0CD
:102F9C002281954AFB681C46164604F1200C3546E6
:102FAC002346186859689A68DB680FC510341036C8
:102FBC006445F4D1334620686168A26807C3A289CE
:102FCC001A80894BDB78FB77FB7F342B00F09380E6
:102FDC00854B1B79302B40F08680844B1B78092B5A
:102FEC0000F289802E2282497F4805F0AFF97F4B91
:102FFC001B780133DAB27D4B1A70BB6903F10A01FD
:10300C007C4BA3FB01231A0913461B019B1A5B0083
:10301C00CA1A93B2C3F5B6730133FB82BB6903F1D1
:10302C001401744BA3FB01231A0913461B019B1AB1
:10303C005B00CA1A93B2C3F14103BB826E4B0022F0
:10304C001A7021E002210A20FEF7D0FE03461A4630
:10305C00FB8AB3FBF2F39AB2684BA3FB0213D908B9
:10306C000B469B000B445B00D31A9BB2DAB2624B4B
:10307C001B7816333032D1B25B4AD1545E4B1B787D
:10308C000133DAB25C4B1A705B4B1B78022BD9D92B
:10309C00594B00221A7021E002210A20FEF7A6FEED
:1030AC0003461A46BB8AB3FBF2F39AB2534BA3FB0B
:1030BC000213D9080B469B000B445B00D31A9BB23E
:1030CC00DAB24D4B1B7819333032D1B2464AD15457
:1030DC00494B1B780133DAB2474B1A70464B1B78BD
:1030EC00022BD9D907E0414B00221A702E223E49FF
:1030FC003F4805F02BF93C4B93F820203A4BDA77FC
:10310C00394B93F82120384B83F82020364B302252
:10311C0083F82120BB682B3B334A134426223849C1
:10312C00184600F0B5FBBB682D3B2F4A1344022216
:10313C003449184600F00AFBBB682D3B2A4A06218D
:10314C00D154BB682C3B284A13442E4A12781A706F
:10315C00BB682B3B244A134413222949184605F01B
:10316C00F5F8BB682E3B204A13441621184600F094
:10317C00FFFB03461A461B4B1A70BB68183B194AD7
:10318C001178194AD154BB68173B174A0321D15403
:10319C00BB68163B144A0D21D154BB68153B124A2F
:1031AC000A21D1547A6813461B019B1A5B00164AFC
:1031BC009818BB682E3B0C4A13441A22194605F08A
:1031CC00C5F82E220021084805F094F81A22002197
:1031DC000B4805F08FF800BF2437BD46F0BD00BF8B
:1031EC00700000208211002084110020B2110020F8
:1031FC00B411002089888888E2110020CDCCCCCC79
:10320C00E4110020001200200C0C0020F0B589B055
:10321C0000AFF860B9607A600023FB77984802F041
:10322C002FFDB861974B00221A707B68072B40F07A
:10323C002281954AFB681C46164604F1200C354643
:10324C002346186859689A68DB680FC51034103625
:10325C006445F4D1334620686168A26807C3A2892B
:10326C001A80894BDB78FB77FB7F342B00F0938043
:10327C00854B1B79302B40F08680844B1B78092BB7
:10328C0000F289802E2282497F4805F05FF87F4B3F
:10329C001B780133DAB27D4B1A70BB6903F10A015A
:1032AC007C4BA3FB01231A0913461B019B1A5B00E1
:1032BC00CA1A93B2C3F5B6730133FB82BB6903F12F
:1032CC001401744BA3FB01231A0913461B019B1A0F
:1032DC005B00CA1A93B2C3F14103BB826E4B00224E
:1032EC001A7021E002210A20FEF780FD03461A46DF
:1032FC00FB8AB3FBF2F39AB2684BA3FB0213D90817
:10330C000B469B000B445B00D31A9BB2DAB2624BA8
:10331C001B7816333032D1B25B4AD1545E4B1B78DA
:10332C000133DAB25C4B1A705B4B1B78022BD9D988
:10333C00594B00221A7021E002210A20FEF756FD9B
:10334C0003461A46BB8AB3FBF2F39AB2534BA3FB68
:10335C000213D9080B469B000B445B00D31A9BB29B
:10336C00DAB24D4B1B7819333032D1B2464AD154B4
:10337C00494B1B780133DAB2474B1A70464B1B781A
:10338C00022BD9D907E0414B00221A702E223E495C
:10339C003F4804F0DBFF3C4B93F820203A4BDA77A4
:1033AC00394B93F82120384B83F82020364B3022B0
:1033BC0083F82120BB682B3B334A1344262238491F
:1033CC00184600F065FABB682D3B2F4A13440222C5
:1033DC003449184600F0BAF9BB682D3B2A4A07213C
:1033EC00D154BB682C3B284A13442E4A12781A70CD
:1033FC00BB682B3B244A134413222949184604F07A
:10340C00A5FFBB682E3B204A13441621184600F03A
:10341C00AFFA03461A461B4B1A70BB68183B194A85
:10342C001178194AD154BB68173B174A0321D15460
:10343C00BB68163B144A0D21D154BB68153B124A8C
:10344C000A21D1547A6813461B019B1A5B00164A59
:10345C009818BB682E3B0C4A13441A22194604F0E8
:10346C0075FF2E220021084804F044FF1A22002187
:10347C000B4804F03FFF00BF2437BD46F0BD00BF32
:10348C0070000020021200200412002032120020D2
:10349C00341200208988888862120020CDCCCCCCD4
:1034AC0064120020801200200C0C0020F0B589B0B2
:1034BC0000AFF860B9607A600023FB77984802F09F
:1034CC00DFFBB861974B00221A707B68082B40F029
:1034DC002281954AFB681C46164604F1200C3546A1
:1034EC002346186859689A68DB680FC51034103683
:1034FC006445F4D1334620686168A26807C3A28989
:10350C001A80894BDB78FB77FB7F342B00F09380A0
:10351C00854B1B79302B40F08680844B1B78092B14
:10352C0000F289802E2282497F4804F00FFF7F4BE6
:10353C001B780133DAB27D4B1A70BB6903F10A01B7
:10354C007C4BA3FB01231A0913461B019B1A5B003E
:10355C00CA1A93B2C3F5B6730133FB82BB6903F18C
:10356C001401744BA3FB01231A0913461B019B1A6C
:10357C005B00CA1A93B2C3F14103BB826E4B0022AB
:10358C001A7021E002210A20FEF730FC03461A468D
:10359C00FB8AB3FBF2F39AB2684BA3FB0213D90874
:1035AC000B469B000B445B00D31A9BB2DAB2624B06
:1035BC001B7816333032D1B25B4AD1545E4B1B7838
:1035CC000133DAB25C4B1A705B4B1B78022BD9D9E6
:1035DC00594B00221A7021E002210A20FEF706FC4A
:1035EC0003461A46BB8AB3FBF2F39AB2534BA3FBC6
:1035FC000213D9080B469B000B445B00D31A9BB2F9
:10360C00DAB24D4B1B7819333032D1B2464AD15411
:10361C00494B1B780133DAB2474B1A70464B1B7877
:10362C00022BD9D907E0414B00221A702E223E49B9
:10363C003F4804F08BFE3C4B93F820203A4BDA7752
:10364C00394B93F82120384B83F82020364B30220D
:10365C0083F82120BB682B3B334A1344262238497C
:10366C00184600F015F9BB682D3B2F4A1344022273
:10367C003449184600F06AF8BB682D3B2A4A0821E9
:10368C00D154BB682C3B284A13442E4A12781A702A
:10369C00BB682B3B244A134413222949184604F0D7
:1036AC0055FEBB682E3B204A13441621184600F0E9
:1036BC005FF903461A461B4B1A70BB68183B194A34
:1036CC001178194AD154BB68173B174A0321D154BE
:1036DC00BB68163B144A0D21D154BB68153B124AEA
:1036EC000A21D1547A6813461B019B1A5B00164AB7
:1036FC009818BB682E3B0C4A13441A22194604F046
:10370C0025FE2E220021084804F0F4FD1A22002187
:10371C000B4804F0EFFD00BF2437BD46F0BD00BFE1
:10372C00700000208212002084120020B2120020AF
:10373C00B412002089888888E2120020CDCCCCCC31
:10374C00E4120020001300200C0C002080B487B081
:10375C0000AFF860B9607A600023FB750023BB757D
:10376C0000233B6188E0FA683B6913441B782F2BDC
:10377C000CD9FA683B6913441B78392B06D8FA68C4
:10378C003B6913441B78303BFB7524E0FA683B69BA
:10379C0013441B78402B0CD9FA683B6913441B78F3
:1037AC00462B06D8FA683B6913441B78373BFB75EC
:1037BC0011E0FA683B6913441B78602B0BD9FA684B
:1037CC003B6913441B78662B05D8FA683B69134494
:1037DC001B78573BFB753B690133FA6813441B7824
:1037EC002F2B0ED93B690133FA6813441B78392B04
:1037FC0007D83B690133FA6813441B78303BBB751F
:10380C002AE03B690133FA6813441B78402B0ED92C
:10381C003B690133FA6813441B78462B07D83B6984
:10382C000133FA6813441B78373BBB7514E03B69D2
:10383C000133FA6813441B78602B0DD93B690133B3
:10384C00FA6813441B78662B06D83B690133FA6877
:10385C0013441B78573BBB75FB7D1B015AB297F980
:10386C001630134359B23B695B08BA681344CAB2A9
:10387C001A703B6902333B613A697B689A42FFF4E8
:10388C0072AF00BF00BF1C37BD465DF8047B7047AC
:10389C0080B590B000AFF860B9607A6007F114039E
:1038AC002622F968184604F051FD304B00221A709C
:1038BC0051E02E4B1B7840333B4413F82C3C2F2B00
:1038CC003AD92A4B1B7840333B4413F82C3C392B08
:1038DC0032D8002387F83F30002387F83E30234B43
:1038EC001B7840333B4413F82C3C03F00F0387F850
:1038FC003F301E4B1B78013340333B4413F82C3CB8
:10390C0003F00F0387F83E3097F83F301B015AB293
:10391C0097F93E3013435AB2144B1B785B08DBB259
:10392C001946BB680B44D2B21A70104B1B7801338A
:10393C00DAB20E4B1A7008E00C4B1B785B08DBB24A
:10394C001A46BB68134400221A70084B1B780133CB
:10395C00DAB2064B1A70054B1B781A467B689342F9
:10396C00A7D800BF00BF4037BD4680BD0213002062
:10397C0080B58AB000AF78603960002387F82730B3
:10398C00002387F8253007F10C03162279681846B6
:10399C0004F0DCFC7B7B012B02D1632387F8253000
:1039AC007B7B022B02D1642387F825307B7B032B96
:1039BC0002D1652387F825307B7B042B02D166234B
:1039CC0087F825307B7B052B02D1672387F82530C0
:1039DC007B7B062B02D1682387F825307B7B072B5A
:1039EC0002D1692387F825307B7B082B02D16A230F
:1039FC0087F82530002387F826301AE097F8263010
:103A0C007A6813441B7803F00F03DAB297F8263068
:103A1C0079680B441B781B09DBB21344DAB297F8B4
:103A2C002730134487F8273097F82630013387F86E
:103A3C00263097F826303A689A42DFD897F8272034
:103A4C0097F82530D31ADBB218462837BD4680BD0F
:103A5C0080B500AF3C4B1B6840F6B832934208D996
:103A6C00394B40F6AC521A601A220021374804F048
:103A7C0041FC374B1B6840F6B832934208D9344BA3
:103A8C0040F6AC521A601A220021324804F032FC83
:103A9C00314B1B6840F6B832934208D92E4B40F696
:103AAC00AC521A601A2200212C4804F023FC2C4B37
:103ABC001B6840F6B832934208D9294B40F6AC52F9
:103ACC001A601A220021274804F014FC264B1B68AC
:103ADC0040F6B832934208D9234B40F6AC521A60E8
:103AEC001A220021214804F005FC214B1B6840F6EA
:103AFC00B832934208D91E4B40F6AC521A601A22C7
:103B0C0000211C4804F0F6FB1B4B1B6840F6B83236
:103B1C00934208D9184B40F6AC521A601A22002175
:103B2C00164804F0E7FB164B1B6840F6B83293427C
:103B3C0008D9134B40F6AC521A601A2200211148D6
:103B4C0004F0D8FB00BF80BD400D00202A0C0020E3
:103B5C00440D0020480C0020480D0020660C00206D
:103B6C004C0D0020840C0020500D0020A20C0020D5
:103B7C00540D0020C00C0020580D0020DE0C00203D
:103B8C005C0D0020FC0C002098B500AF1A224149B6
:103B9C00414804F0DBFB414B01221A6016E03F4B1D
:103BAC001A6813461B019B1A5B003B4A13443B4AA1
:103BBC00146816211846FFF7DBFE03461A46384BED
:103BCC001A55364B1B680133344A1360334B1B6850
:103BDC00082BE4D9334B00221A600BE0314B1B68E5
:103BEC002D4AD35C184600F027F92E4B1B68013385
:103BFC002C4A13602B4B1B68192BEFD92A4B012233
:103C0C001A603CE0284B1A68234913461B019B1A87
:103C1C005B000B4402331B78002B2BD0224B1A6811
:103C2C001D4913461B019B1A5B000B4416331A7873
:103C3C001D4B1B681A49CB5C9A421BD11B4B0022B3
:103C4C001A6013E0184B1A68184B1968124813467F
:103C5C001B019B1A5B0003440B441B78184600F0B5
:103C6C00EBF8124B1B680133104A13600F4B1B68A7
:103C7C00192BE7D90C4B1B6801330B4A13600A4B09
:103C8C001B68082BBED909220021054804F032FB21
:103C9C0000BF98BD000000200C0C00200413002075
:103CAC000813002014130020181300201C130020EC
:103CBC0090B585B000AF0446084611461A46234617
:103CCC00FB8003467B710B463B711346FB70002255
:103CDC004FF40061244801F037FA642000F0A8FE8C
:103CEC0001224FF40061204801F02EFA642000F00C
:103CFC009FFEFB881846FCF7DFFF0346FB81FB8920
:103D0C001B0A9BB27B73FB893B73182380211846DB
:103D1C0000F02CF800223B7B1946104600F026F8E8
:103D2C0008227B7B1946104600F020F81823BF218F
:103D3C00184600F01BF810230021184600F016F866
:103D4C0018207A793B791343DAB2FB781343DBB250
:103D5C00194600F00BF808230221184600F006F86B
:103D6C0000BF1437BD4690BD0000024080B584B042
:103D7C0000AF03460A46FB711346BB71FB793B73DC
:103D8C00BB797B73FB79002B11D1002210211348D6
:103D9C0001F0DAF907F10C0302221946104802F07F
:103DAC00BDF9012210210D4801F0CEF911E00022DD
:103DBC0010210A4801F0C8F907F10C0207F10C01B7
:103DCC000223074802F032FA01221021034801F0C5
:103DDC00BBF900BF1037BD4680BD00BF00000240DC
:103DEC008000002080B586B002AF0346FB71FB79E2
:103DFC003B733B7B63F07F03DBB23B7300221021F0
:103E0C000B4801F0A1F907F10C0207F10C011E237C
:103E1C0000930223074801F0D1FF0122102104482E
:103E2C0001F092F97B7B18461037BD4680BD00BF70
:103E3C00000002408000002080B582B000AF034635
:103E4C00FB71102304211846FFF790FF00BF2823B5
:103E5C001846FFF7C7FF034603F04003002BF6D0CC
:103E6C004FF400610B4801F088F90022FB791946E8
:103E7C001046FFF77BFF00BF4FF48071064801F03E
:103E8C004BF90346002BF7D100BF00BF0837BD46E6
:103E9C0080BD00BF001402400000024080B400AF9F
:103EAC0072B600BFFEE780B487B000AFF860B960AF
:103EBC007A6001237B6102E07B6901337B61012223
:103ECC007B6902FA03F31A467B689342F4D8012209
:103EDC007B6902FA03F33B61FB683A691A603B6940
:103EEC005A1EFB685A60FB6800229A60FB6800222D
:103EFC00DA60FB68BA681A6100BF1C37BD465DF812
:103F0C00047B704780B485B000AF78607B689B6899
:103F1C00FB607B68DB68BB60FA68BB689A4203D9BC
:103F2C00FA68BB68D31A08E0FA68BB68D21A7B68D7
:103F3C001B681A447B685B68134018461437BD46EF
:103F4C005DF8047B704780B485B000AF78607B6807
:103F5C009B68FB607B68DB68BB60FA68BB689A4255
:103F6C000AD9BA68FB68D21A7B681B681A447B684A
:103F7C005B681340013B0BE0FA68BB689A4204D2C1
:103F8C00BA68FB68D31A013B02E07B681B68013BF3
:103F9C0018461437BD465DF8047B704780B58AB06F
:103FAC0000AFF860B9607A60F868FFF7ABFFF861B2
:103FBC00FB69002B01D100234CE07A68FB6993422A
:103FCC0028BF1346BB61FB68DB68BA6913447B618D
:103FDC00FB681B687A699A420BD9FB681A68FB6804
:103FEC00DB68D31A7B62FB685B687A6913403B62BF
:103FFC0003E0BB697B6200233B62FB68DB683B61CF
:10400C00FB681A693B6913447A6A1946B86804F06C
:10401C009DF93A697B6A13443B61FB685B683A69BA
:10402C0013403B613B6A002B13D0BA687B6AD018F3
:10403C00FB681A693B6913443A6A194604F086F91D
:10404C003A693B6A13443B61FB685B683A6913400D
:10405C003B61BB6918462837BD4680BD80B58AB028
:10406C0000AFF860B9607A60F868FFF74BFFB86191
:10407C00BB69002B01D100234FE07A68BB699342E6
:10408C0028BF13467B61FB68DB687A6913443B618C
:10409C00FB681B683A699A420BD9FB681A68FB6883
:1040AC00DB68D31A7B62FB685B683A6913403B623E
:1040BC0003E07B697B6200233B62FB68DB68FB618E
:1040CC00FB681A69FB6913447A6A1946B86804F0EC
:1040DC003DF9FA697B6A1344FB61FB685B68FA691A
:1040EC001340FB613B6A002B13D0BA687B6AD01873
:1040FC00FB681A69FB6913443A6A194604F026F9FD
:10410C00FA693B6A1344FB61FB685B68FA6913400C
:10411C00FB61FB68FA69DA607B6918462837BD4693
:10412C0080BD80B58AB000AFF860B9607A60F8687D
:10413C00FFF709FFB861BB69002B01D100234FE0E9
:10414C007A68BB69934228BF13467B61FB689B6806
:10415C007A6913443B61FB681B683A699A420BD934
:10416C00FB681A68FB689B68D31A7B62FB685B6808
:10417C003A6913403B6203E07B697B6200233B623C
:10418C00FB689B68FB61FB681A69FB6913447A6ADC
:10419C00B968184604F0DAF8FA697B6A1344FB61D3
:1041AC00FB685B68FA691340FB613B6A002B13D018
:1041BC00FB681A69FB69D018BA687B6A13443A6ABF
:1041CC00194604F0C3F8FA693B6A1344FB61FB68B7
:1041DC005B68FA691340FB61FB68FA699A607B695A
:1041EC0018462837BD4680BD80B483B000AF00238D
:1041FC007B60104B5B6C0F4A43F4804353640D4B54
:10420C005B6C03F480437B607B6800233B60094B51
:10421C001B6C084A43F080531364064B1B6C03F071
:10422C0080533B603B6800BF0C37BD465DF8047B98
:10423C00704700BF0038024080B485B000AF786092
:10424C007B681B680B4A93420DD10023FB600A4B21
:10425C005B6B094A43F040035363074B5B6B03F002
:10426C004003FB60FB6800BF1437BD465DF8047B60
:10427C00704700BF000806500038024080B58AB075
:10428C0000AF786007F1140300221A605A609A603C
:10429C00DA601A617B681B681D4A934233D1002394
:1042AC003B611C4B5B6C1B4A43F480535364194BAE
:1042BC005B6C03F480533B613B690023FB60154B43
:1042CC001B6B144A43F001031363124B1B6B03F07B
:1042DC000103FB60FB68E0237B610223BB610023CD
:1042EC00FB6103233B6205237B6207F11403194630
:1042FC00094800F065FD00220021232000F097FC06
:10430C00232000F0B0FC00BF2837BD4680BD00BFA5
:10431C0000300140003802400000024080B584B0FB
:10432C0000AF78607B681B680E4A934215D100235E
:10433C00FB600D4B1B6C0C4A43F0020313640A4BDD
:10434C001B6C03F00203FB60FB68002200211D20A4
:10435C0000F06DFC1D2000F086FC00BF1037BD4640
:10436C0080BD00BF000400400038024080B598B00A
:10437C0000AF786007F14C0300221A605A609A6013
:10438C00DA601A617B681B68A04A934235D100231E
:10439C00BB649F4B1B6C9E4A43F4002313649C4BE1
:1043AC001B6C03F40023BB64BB6C00237B64984B35
:1043BC001B6B974A43F004031363954B1B6B03F081
:1043CC0004037B647B6C4FF44063FB6402233B650A
:1043DC0000237B650323BB650823FB6507F14C03B6
:1043EC0019468C4800F0ECFC00220521342000F02A
:1043FC001EFC342000F037FCCCE17B681B68864A3D
:10440C00934253D100233B64814B1B6C804A43F491
:10441C00801313647E4B1B6C03F480133B643B6C66
:10442C000023FB637A4B1B6B794A43F00403136341
:10443C00774B1B6B03F00403FB63FB6B0023BB6329
:10444C00734B1B6B724A43F008031363704B1B6B6B
:10445C0003F00803BB63BB6B4FF48053FB64022374
:10446C003B6500237B650323BB650823FB6507F1D4
:10447C004C031946674800F0A3FC0423FB64022399
:10448C003B6500237B650323BB650823FB6507F1B4
:10449C004C031946614800F093FC0022062135209C
:1044AC0000F0C5FB352000F0DEFB73E17B681B6878
:1044BC005B4A934234D100237B63554B1B6C544AAB
:1044CC0043F080431364524B1B6C03F080437B63BB
:1044DC007B6B00233B634E4B1B6B4D4A43F020031D
:1044EC0013634B4B1B6B03F020033B633B6BC023F1
:1044FC00FB6402233B6500237B650323BB65082318
:10450C00FB6507F14C031946464800F059FC0022A4
:10451C000521522000F08BFB522000F0A4FB39E166
:10452C007B681B68404A934234D10023FB62384BB2
:10453C001B6C374A43F000431364354B1B6C03F080
:10454C000043FB62FB6A0023BB62314B1B6B304A9E
:10455C0043F0100313632E4B1B6B03F01003BB6271
:10456C00BB6A0323FB6402233B6500237B650323A7
:10457C00BB650823FB6507F14C0319462B4800F07B
:10458C001FFC00220421532000F051FB532000F0AB
:10459C006AFBFFE07B681B68254A93424CD10023E1
:1045AC007B621B4B5B6C1A4A43F010035364184B31
:1045BC005B6C03F010037B627B6A00233B62144B41
:1045CC001B6B134A43F001031363114B1B6B03F07A
:1045DC0001033B623B6A4FF4C063FB6402233B65FF
:1045EC0000237B650323BB650723FB6507F14C03A5
:1045FC001946104800F0E4FB00220421252000F0AD
:10460C0016FB252000F02FFBC4E000BF004C00403F
:10461C00003802400008024000500040000C0240EC
:10462C000078004000140240007C00400010024062
:10463C0000100140000002407B681B68574A9342FF
:10464C0034D10023FB61564B1B6C554A43F40033A9
:10465C001364534B1B6C03F40033FB61FB690023A5
:10466C00BB614F4B1B6B4E4A43F0010313634C4B26
:10467C001B6B03F00103BB61BB690C23FB640223BE
:10468C003B6500237B650323BB650723FB6507F1B3
:10469C004C031946434800F093FB002205212620C9
:1046AC0000F0C5FA262000F0DEFA73E07B681B6888
:1046BC003D4A934235D100237B61394B1B6C384A00
:1046CC0043F480231364364B1B6C03F480237B610F
:1046DC007B6900233B61324B1B6B314A43F008036F
:1046EC0013632F4B1B6B03F008033B613B694FF4C7
:1046FC004073FB6402233B6500237B650323BB658E
:10470C000723FB6507F14C031946284800F058FBBA
:10471C0000220521272000F08AFA272000F0A3FAB6
:10472C0038E07B681B68224A934233D10023FB603C
:10473C001B4B5B6C1A4A43F020035364184B5B6CA5
:10474C0003F02003FB60FB680023BB60144B1B6B66
:10475C00134A43F004031363114B1B6B03F0040364
:10476C00BB60BB68C023FB6402233B6500237B65F5
:10477C000323BB650823FB6507F14C0319460D4861
:10478C0000F01EFB00220021472000F050FA4720C9
:10479C0000F069FA00BF6037BD4680BD00440040A0
:1047AC00003802400000024000480040000C02406B
:1047BC00001401400008024080B400AFFEE780B452
:1047CC0000AFFEE780B400AFFEE780B400AFFEE7B9
:1047DC0080B400AFFEE780B400AF00BFBD465DF80B
:1047EC00047B704780B400AF00BFBD465DF8047B0E
:1047FC00704780B400AF00BFBD465DF8047B7047C6
:10480C0080B500AF00F0F4F800BF80BD80B500AFFC
:10481C00024802F045FA00BF80BD00BFD80000205E
:10482C0080B500AF024801F093FD00BF80BD00BF12
:10483C008000002080B500AF024802F05DFE00BF92
:10484C0080BD00BF4002002080B500AF024802F0DE
:10485C0053FE00BF80BD00BF8802002080B500AFB2
:10486C00024802F049FE00BF80BD00BFD00200200C
:10487C0080B500AF024802F03FFE00BF80BD00BF14
:10488C002001002080B500AF024802F035FE00BFC9
:10489C0080BD00BF6801002080B500AF024802F067
:1048AC002BFE00BF80BD00BF1803002080B500AFF9
:1048BC00024802F021FE00BF80BD00BFB001002005
:1048CC0080B500AF024802F017FE00BF80BD00BFEC
:1048DC00F801002080B400AF064BD3F88830054AAD
:1048EC0043F47003C2F8883000BFBD465DF8047B0A
:1048FC00704700BF00ED00E0DFF834D0FFF7EAFFAF
:10490C000C480D490D4A002302E0D458C45004331E
:10491C00C4188C42F9D30A4A0A4C002301E01360F4
:10492C000432A242FBD303F0EDFCFCF701FA704712
:10493C00000003200000002054000020B483000875
:10494C005400002024130020FEE7000080B500AFC7
:10495C000E4B1B680D4A43F4007313600B4B1B6822
:10496C000A4A43F480631360084B1B68074A43F4FC
:10497C0080731360032000F04FF90F2000F008F84B
:10498C00FFF732FC0023184680BD00BF003C0240FC
:10499C0080B582B000AF7860124B1A68124B1B784E
:1049AC0019464FF47A73B3FBF1F3B2FBF3F31846E9
:1049BC0000F067F90346002B01D001230EE07B6861
:1049CC000F2B0AD8002279684FF0FF3000F02FF936
:1049DC00064A7B681360002300E001231846083761
:1049EC00BD4680BD48000020500000204C00002037
:1049FC0080B400AF064B1B781A46064B1B68134459
:104A0C00044A136000BFBD465DF8047B704700BFCD
:104A1C00500000202013002080B400AF034B1B6813
:104A2C001846BD465DF8047B704700BF201300207C
:104A3C0080B584B000AF7860FFF7EEFFB8607B689C
:104A4C00FB60FB68B3F1FF3F05D00A4B1B781A469D
:104A5C00FB681344FB6000BFFFF7DEFF0246BB6838
:104A6C00D31AFA689A42F7D800BF00BF1037BD4678
:104A7C0080BD00BF5000002080B485B000AF7860CE
:104A8C007B6803F00703FB600C4BDB68BB60BA6808
:104A9C004FF6FF031340BB60FB681A02BB6813435D
:104AAC0043F0BF6343F40033BB60044ABB68D3607C
:104ABC0000BF1437BD465DF8047B704700ED00E085
:104ACC0080B400AF044BDB681B0A03F007031846E5
:104ADC00BD465DF8047B704700ED00E080B483B008
:104AEC0000AF0346FB7197F90730002B0BDBFB790A
:104AFC0003F01F02074997F907305B09012000FA00
:104B0C0002F241F8232000BF0C37BD465DF8047B50
:104B1C00704700BF00E100E080B483B000AF0346F3
:104B2C003960FB7197F90730002B0ADB3B68DAB26E
:104B3C000C4997F907301201D2B20B4483F80023C9
:104B4C000AE03B68DAB20849FB7903F00F03043B37
:104B5C001201D2B20B441A7600BF0C37BD465DF879
:104B6C00047B704700E100E000ED00E080B489B008
:104B7C0000AFF860B9607A60FB6803F00703FB6173
:104B8C00FB69C3F10703042B28BF0423BB61FB693A
:104B9C000433062B02D9FB69033B00E000237B6145
:104BAC004FF0FF32BB6902FA03F3DA43BB681A40D9
:104BBC007B699A404FF0FF317B6901FA03F3D943CB
:104BCC007B680B40134318462437BD465DF8047BC5
:104BDC007047000080B582B000AF78607B68013B05
:104BEC00B3F1807F01D301230FE00A4A7B68013BBC
:104BFC0053600F214FF0FF30FFF78EFF054B002263
:104C0C009A60044B07221A60002318460837BD46E9
:104C1C0080BD00BF10E000E080B582B000AF7860CE
:104C2C007868FFF729FF00BF0837BD4680BD80B507
:104C3C0086B000AF0346B9607A60FB7300237B61DA
:104C4C00FFF73EFF78617A68B9687869FFF78EFFE5
:104C5C00024697F90F3011461846FFF75DFF00BF6B
:104C6C001837BD4680BD80B582B000AF0346FB71DE
:104C7C0097F907301846FFF731FF00BF0837BD46DC
:104C8C0080BD80B582B000AF78607868FFF7A2FF76
:104C9C00034618460837BD4680BD80B584B000AFCA
:104CAC0078607B689B6DFB60FFF7B6FEB8607B6835
:104CBC0093F83530DBB2022B08D07B6880225A6522
:104CCC007B68002283F83420012352E07B681B6848
:104CDC001A687B681B6822F016021A607B681B68D6
:104CEC005A697B681B6822F080025A617B681B6CD6
:104CFC00002B03D17B689B6C002B07D07B681B6857
:104D0C001A687B681B6822F008021A607B681B68B3
:104D1C001A687B681B6822F001021A6013E0FFF727
:104D2C007BFE0246BB68D31A052B0CD97B6820226C
:104D3C005A657B68032283F835207B68002283F850
:104D4C003420032315E07B681B681B6803F0010308
:104D5C00002BE4D17B68DB6D3F229A40FB689A60A4
:104D6C007B68012283F835207B68002283F834208D
:104D7C00002318461037BD4680BD80B483B000AF09
:104D8C0078607B6893F83530DBB2022B04D07B68FB
:104D9C0080225A6501230CE07B68052283F83520BC
:104DAC007B681B681A687B681B6822F001021A601A
:104DBC00002318460C37BD465DF8047B7047000095
:104DCC0080B489B000AF7860396000237B61002328
:104DDC003B610023BB610023FB6177E10122FB698E
:104DEC0002FA03F37B613B681B687A6913403B61F1
:104DFC003A697B699A4240F066813B685B6803F0D4
:104E0C000303012B05D03B685B6803F00303022B03
:104E1C0030D17B689B68BB61FB695B00032202FAA3
:104E2C0003F3DB43BA691340BB613B68DA68FB6987
:104E3C005B0002FA03F3BA691343BB617B68BA697E
:104E4C009A607B685B68BB610122FB6902FA03F321
:104E5C00DB43BA691340BB613B685B681B0903F019
:104E6C000102FB6902FA03F3BA691343BB617B6865
:104E7C00BA695A603B685B6803F00303032B17D0D5
:104E8C007B68DB68BB61FB695B00032202FA03F3FE
:104E9C00DB43BA691340BB613B689A68FB695B00F2
:104EAC0002FA03F3BA691343BB617B68BA69DA602F
:104EBC003B685B6803F00303022B23D1FB69DA0820
:104ECC007B68083253F82230BB61FB6903F007039F
:104EDC009B000F2202FA03F3DB43BA691340BB6158
:104EEC003B681A69FB6903F007039B0002FA03F3A2
:104EFC00BA691343BB61FB69DA087B680832B9698C
:104F0C0043F822107B681B68BB61FB695B000322C2
:104F1C0002FA03F3DB43BA691340BB613B685B687D
:104F2C0003F00302FB695B0002FA03F3BA69134353
:104F3C00BB617B68BA691A603B685B6803F44033F9
:104F4C00002B00F0C0800023FB60664B5B6C654A55
:104F5C0043F480435364634B5B6C03F48043FB600A
:104F6C00FB68614AFB699B08023352F82330BB6132
:104F7C00FB6903F003039B000F2202FA03F3DB43EC
:104F8C00BA691340BB617B68584A934237D07B683F
:104F9C00574A934231D07B68564A93422BD07B6858
:104FAC00554A934225D07B68544A93421FD07B6864
:104FBC00534A934219D07B68524A934213D07B6870
:104FCC00514A93420DD07B68504A934207D07B687C
:104FDC004F4A934201D1092312E00A2310E008231F
:104FEC000EE007230CE006230AE0052308E0042367
:104FFC0006E0032304E0022302E0012300E0002387
:10500C00FA6902F0030292009340BA691343BB6140
:10501C003549FB699B080233BA6941F823203D4BA3
:10502C009B68BB613B69DB43BA691340BB613B685E
:10503C005B6803F48013002B03D0BA693B691343FC
:10504C00BB61344ABB699360324BDB68BB613B6923
:10505C00DB43BA691340BB613B685B6803F4001324
:10506C00002B03D0BA693B691343BB61294ABB6966
:10507C00D360284B5B68BB613B69DB43BA69134067
:10508C00BB613B685B6803F40033002B03D0BA6947
:10509C003B691343BB611F4ABB6953601D4B1B68C3
:1050AC00BB613B69DB43BA691340BB613B685B681E
:1050BC0003F48033002B03D0BA693B691343BB6103
:1050CC00144ABB691360FB690133FB61FB690F2B4D
:1050DC007FF684AE00BF00BF2437BD465DF8047B6D
:1050EC00704700BF00380240003801400000024009
:1050FC000004024000080240000C02400010024074
:10510C000014024000180240001C02400020024023
:10511C0000240240003C014080B485B000AF7860B0
:10512C000B467B807B681A697B881340002B02D06E
:10513C000123FB7301E00023FB73FB7B1846143740
:10514C00BD465DF8047B704780B483B000AF7860D7
:10515C000B467B8013467B707B78002B03D07A88C0
:10516C007B689A6103E07B881A047B689A6100BFB4
:10517C000C37BD465DF8047B704780B485B000AF3A
:10518C0078600B467B807B685B69FB607A88FB6888
:10519C0013401A04FB68D9437B880B401A437B6885
:1051AC009A6100BF1437BD465DF8047B7047000060
:1051BC0080B582B000AF00237B6000233B60204BA6
:1051CC001B6C1F4A43F0805313641D4B1B6C03F084
:1051DC0080533B603B681B4B01221A60FFF71CFCA1
:1051EC00786009E0FFF718FC02467B68D31AB3F528
:1051FC007A7F01D903231FE0134B5B6803F48033E0
:10520C00B3F5803FEED1114B01221A60FFF704FC7D
:10521C00786009E0FFF700FC02467B68D31AB3F50F
:10522C007A7F01D9032307E0074B5B6803F4003353
:10523C00B3F5003FEED1002318460837BD4680BDBC
:10524C000038024040000E420070004044000E4204
:10525C0080B586B000AF78607B68002B01D101234C
:10526C0067E27B681B6803F00103002B75D0884B49
:10527C009B6803F00C03042B0CD0854B9B6803F04C
:10528C000C03082B12D1824B5B6803F48003B3F53B
:10529C00800F0BD17E4B1B6803F40033002B5BD0CB
:1052AC007B685B68002B57D1012342E27B685B680B
:1052BC00B3F5803F06D1764B1B68754A43F48033B7
:1052CC0013601DE07B685B68B3F5A02F0CD1704BAD
:1052DC001B686F4A43F4802313606D4B1B686C4A48
:1052EC0043F4803313600BE0694B1B68684A23F46A
:1052FC0080331360664B1B68654A23F4802313606C
:10530C007B685B68002B13D0FFF786FB386108E0E5
:10531C00FFF782FB02463B69D31A642B01D90323A6
:10532C0007E25B4B1B6803F40033002BF0D014E056
:10533C00FFF772FB386108E0FFF76EFB02463B6932
:10534C00D31A642B01D90323F3E1514B1B6803F4EB
:10535C000033002BF0D100E000BF7B681B6803F02A
:10536C000203002B63D04A4B9B6803F00C03002B09
:10537C000BD0474B9B6803F00C03082B1CD1444B00
:10538C005B6803F48003002B16D1414B1B6803F0C0
:10539C000203002B05D07B68DB68012B01D00123B5
:1053AC00C7E13B4B1B6823F0F8027B681B69DB00F1
:1053BC00374913430B603AE07B68DB68002B20D045
:1053CC00344B01221A60FFF727FB386108E0FFF726
:1053DC0023FB02463B69D31A022B01D90323A8E114
:1053EC002B4B1B6803F00203002BF0D0284B1B68DF
:1053FC0023F0F8027B681B69DB00254913430B6023
:10540C0015E0244B00221A60FFF706FB386108E018
:10541C00FFF702FB02463B69D31A022B01D9032387
:10542C0087E11B4B1B6803F00203002BF0D17B6858
:10543C001B6803F00803002B36D07B685B69002BDC
:10544C0016D0154B01221A60FFF7E6FA386108E016
:10545C00FFF7E2FA02463B69D31A022B01D9032368
:10546C0067E10B4B5B6F03F00203002BF0D01BE0EA
:10547C00094B00221A60FFF7CFFA38610EE0FFF7F4
:10548C00CBFA02463B69D31A022B07D9032350E10E
:10549C000038024000004742800E4742884B5B6F49
:1054AC0003F00203002BEAD17B681B6803F00403B2
:1054BC00002B00F097800023FB75814B1B6C03F0D5
:1054CC008053002B0FD10023BB607D4B1B6C7C4A9F
:1054DC0043F0805313647A4B1B6C03F08053BB6016
:1054EC00BB680123FB75774B1B6803F48073002B9F
:1054FC0018D1744B1B68734A43F480731360FFF725
:10550C008BFA386108E0FFF787FA02463B69D31A39
:10551C00022B01D903230CE16A4B1B6803F4807343
:10552C00002BF0D07B689B68012B06D1644B1B6F62
:10553C00634A43F0010313671CE07B689B68052BEF
:10554C000CD15F4B1B6F5E4A43F0040313675C4B3B
:10555C001B6F5B4A43F0010313670BE0584B1B6F47
:10556C00574A23F001031367554B1B6F544A23F022
:10557C00040313677B689B68002B15D0FFF74CFA6C
:10558C0038610AE0FFF748FA02463B69D31A41F248
:10559C008832934201D90323CBE0494B1B6F03F0B4
:1055AC000203002BEED014E0FFF736FA38610AE064
:1055BC00FFF732FA02463B69D31A41F28832934222
:1055CC0001D90323B5E03E4B1B6F03F00203002B04
:1055DC00EED1FB7D012B05D1394B1B6C384A23F0E6
:1055EC00805313647B689B69002B00F0A180344BC3
:1055FC009B6803F00C03082B5CD07B689B69022B27
:10560C0041D1314B00221A60FFF706FA386108E0ED
:10561C00FFF702FA02463B69D31A022B01D9032386
:10562C0087E0274B1B6803F00073002BF0D17B68DD
:10563C00DA697B681B6A1A437B685B6A9B011A43B5
:10564C007B689B6A5B08013B1B041A437B68DB6A23
:10565C001B061B4913434B601B4B01221A60FFF7BF
:10566C00DBF9386108E0FFF7D7F902463B69D31A3A
:10567C00022B01D903235CE0114B1B6803F0007370
:10568C00002BF0D054E0104B00221A60FFF7C4F945
:10569C00386108E0FFF7C0F902463B69D31A022BC8
:1056AC0001D9032345E0064B1B6803F00073002B64
:1056BC00F0D13DE07B689B69012B07D1012338E0D9
:1056CC000038024000700040600047421B4B5B6892
:1056DC00FB607B689B69012B28D0FB6803F480027C
:1056EC007B68DB699A4221D1FB6803F03F027B683F
:1056FC001B6A9A421AD1FA6847F6C07313407A684B
:10570C00526A9201934211D1FB6803F440327B68D8
:10571C009B6A5B08013B1B049A4207D1FB6803F0B0
:10572C0070627B68DB6A1B069A4201D0012300E0A1
:10573C00002318461837BD4680BD00BF0038024014
:10574C0080B584B000AF786039607B68002B01D1E4
:10575C000123CCE0684B1B6803F00F033A689A42B4
:10576C000CD9654B3A68D2B21A70634B1B6803F0C4
:10577C000F033A689A4201D00123B8E07B681B689A
:10578C0003F00203002B20D07B681B6803F004039A
:10579C00002B05D0594B9B68584A43F4E053936057
:1057AC007B681B6803F00803002B05D0534B9B68E8
:1057BC00524A43F460439360504B9B6823F0F002D1
:1057CC007B689B684D4913438B607B681B6803F0B7
:1057DC000103002B44D07B685B68012B07D1474B3E
:1057EC001B6803F40033002B19D101237FE07B6885
:1057FC005B68022B03D07B685B68032B07D13F4BA4
:10580C001B6803F00073002B09D101236FE03B4BA5
:10581C001B6803F00203002B01D1012367E0374B17
:10582C009B6823F003027B685B68344913438B60ED
:10583C00FFF7F2F8F8600AE0FFF7EEF80246FB68B3
:10584C00D31A41F28832934201D903234FE02B4BF8
:10585C009B6803F00C027B685B689B009A42EBD15F
:10586C00254B1B6803F00F033A689A420CD2224B6B
:10587C003A68D2B21A70204B1B6803F00F033A68D7
:10588C009A4201D0012332E07B681B6803F00403C9
:10589C00002B08D0194B9B6823F4E0527B68DB6823
:1058AC00164913438B607B681B6803F00803002BBD
:1058BC0009D0124B9B6823F460427B681B69DB00A8
:1058CC000E4913438B6000F021F802460B4B9B688A
:1058DC001B0903F00F030A49CB5C22FA03F3094AB4
:1058EC001360094B1B681846FFF752F80023184643
:1058FC001037BD4680BD00BF003C0240003802405E
:10590C008C830008480000204C0000202DE9B04F8B
:10591C0094B000AF00237B640023FB6400233B6442
:10592C000023BB64794B9B6803F00C03082B0DD050
:10593C00082B00F2E180002B02D0042B03D0DBE01B
:10594C00734BBB64DBE0734BBB64D8E06F4B5B68A1
:10595C0003F03F037B646D4B5B6803F48003002B07
:10596C0063D06A4B5B689B090022BB63FA63BB6B19
:10597C00C3F308033B6300237B63D7E90C45224642
:10598C002B464FF000004FF00001590141EAD26163
:10599C00500102460B462146511A3961294663EBE8
:1059AC0001037B614FF000024FF00003D7E904AB19
:1059BC0059468B01514643EA916351468A0151463F
:1059CC00B2EB0108594663EB01094FF000024FF0AE
:1059DC0000034FEAC90343EA58734FEAC8029046E2
:1059EC009946234618EB0303BB602B4649EB030394
:1059FC00FB604FF000024FF00003D7E90245294647
:105A0C004B02214643EAD15321464A02104619461D
:105A1C007B6C0022BB62FA62D7E90A23FAF7CEFF4D
:105A2C0002460B461346FB6458E0384B5B689B09F7
:105A3C00002218461146C0F308033B6200237B6228
:105A4C00D7E9088942464B464FF000004FF0000161
:105A5C00590141EAD261500102460B464146B2EB74
:105A6C00010A494663EB010B4FF000024FF00003B3
:105A7C004FEA8B1343EA9A634FEA8A12B2EB0A0499
:105A8C0063EB0B054FF000024FF00003EB0043EA11
:105A9C005473E20014461D464346E3183B604B46E4
:105AAC0045EB03037B604FF000024FF00003D7E996
:105ABC00004529468B02214643EA915321468A022E
:105ACC00104619467B6C0022BB61FA61D7E90623AC
